:100000000C9416020C940E2A0C94E3290C94B82933
:100010000C948D290C9462290C9437290C940C298A
:100020000C94E1280C940E570C940E570C940E5718
:100030000C9440020C94602A0C9440020C944002F0
:100040000C9440020C9416580C9440020C944002FC
:100050000C9440020C9440020C9440020C9497289B
:100060000C9440020C945D4B0C94334B0C94400266
:100070000C9440020C9440020C9440020C944002F8
:100080000C94E8570C9440020C9440020C944002EB
:100090000C94094B0C94DF4A0C9440020C947F3969
:1000A0000C9440020C9440020C94BA570C944002F9
:1000B0000C9440020C9440020C9440020C948C5717
:1000C0000C9440020C9440020C9440020C94B54AEB
:1000D0000C948B4A0C9440020C94614A0C94374A5D
:1000E0000C9440027102FE042C09390B820CEF0FB4
:1000F000CF101E1247139013F318F318F318F318C8
:10010000F318F318E71742098009F2092B0AA30A2A
:10011000C70A040B950CFC0C900DD70D240E730E22
:10012000CC0E210F570F990F94169C16A916BC16CA
:10013000CF16E216F5160717191721172917DC2312
:10014000DF23CE23D223D8231624E323E723ED2372
:10015000F123F523FB23FF230324162409240D2474
:100160001124622767276C2776278027F9278A279B
:1001700092279A27A427AE27B827C727D127F92780
:10018000DB27E527EF27502A462A482A4A2A4C2A05
:10019000522A542AD433E033DD33E333D733DA330E
:1001A000E033DD33E3330E5C165CEE5BF65BFE5B47
:1001B000065C1E5C265C85628B6298629E62A4620D
:1001C000B162E26206636D6381639663BD63ED6352
:1001D0001C642E6404654A657B65C2653966C0642B
:1001E000E8662F684F687D689268084AD73B3BCE27
:1001F000016E84BCBFFDC12F3D6C74319ABD568326
:100200003DDA3D00C77F11BED9E4BB4C3E916BAADD
:10021000AABE000000803F0000000A0B02090C0D7E
:100220000E080703040100000000000000000000A9
:1002300000000000000000000000000000000000BE
:10024000000000001211100000000000000000007B
:10025000000000000000000000000000000000009E
:1002600020002300260029002C002F00320000016E
:1002700000000301060109010000210024002700FD
:100280002A002D00300033000101000004010701A5
:100290000A0100002200250028002B002E0031005A
:1002A000340002010000050108010B0101021020C9
:1002B000200808102040102040800201020108049C
:1002C0000201010204081020408080402010080430
:1002D0000201800402018040201008040201080489
:1002E00002010102040810204080010204081020CD
:1002F00040800505050507050808080802020202F6
:100300000A0A0808040404040101010101010101B1
:100310000303030303030303040707070C0C0C0C7C
:100320000C0C0C0C02020202060606060606060665
:100330000B0B0B0B0B0B0B0B0220082507051B3EB1
:100340002F2342262443161841C4000800C4000885
:1003500000DC001000C400100006011000F70020AF
:1003600000C4000800C4000800DC001000C4001035
:10037000002601100006012000C4000800C4000887
:1003800000880110004A01100006011000F700105B
:1003900000DC0010005D0108005D0108004A01104A
:1003A000000601100026011000060120004A010885
:1003B000004A0108004A0110004A0108004A0108E9
:1003C000004A0110004A0108008801080006010CDB
:1003D00000260104004A0120005D0108005D0108BB
:1003E000005D010C005D0104005D0108004A010888
:1003F000004A0108004A0104004A0104004A0108B9
:100400000026010800260108000601080026011048
:1004100000880110000C3911100B3A033B1514022F
:100420003C13120D3D0F0E00076FAC7211241FBE5E
:10043000CFEFD1E2DEBFCDBF14E0A0E0B2E0ECE44C
:10044000F3EF00E00BBF02C007900D92AE34B1078E
:10045000D9F72AE0AEE4B4E001C01D92A631B2079C
:10046000E1F712E0C5E1D2E004C02197FE010E944D
:100470002777C431D107C9F70E943F6E0C94997950
:100480000C9400002F923F924F925F926F927F9256
:100490008F929F92AF92BF92CF92DF92EF92FF9294
:1004A0000F931F93CF93DF93CDB7DEB7AB970FB604
:1004B000F894DEBF0FBECDBF7C01DC01DA96ED9172
:1004C000FC91DB97E0818E2F90E0FC01E057F10971
:1004D000E131F10510F00C94F318EE58FF4F0C9435
:1004E0002777D701DC96ED91FC91DD9780818031F3
:1004F00009F4F6C180F5813011F00C94F3189701DE
:100500002E5B3F4F3C8F2B8FD9011D921C9255E1E2
:10051000A52E54E0B52EC12CD12C2C5F3F4F3A8F25
:10052000298F68EE462E63E0562E612C712C7FE1F8
:10053000872E72E0972E85EE99E03BE0380F3F8FD3
:10054000A7014E5A5F4F59A348A397012F5A3F4F17
:100550003BA32AA315C08701065B1F4F813109F415
:10056000F0C1803211F00C94F31881E0F701EB5BDD
:10057000FF4F8083339711821082F801108223C2CB
:10058000C7010E944919182F8983C7010E94491980
:100590008A83103A09F0F6C0833079F1863009F485
:1005A000DFC0823009F01DC136E0C316D10419F452
:1005B0008FEF94E00DC041E0C416D10419F482E637
:1005C00094E006C058E0C516D10421F488ED97E008
:1005D0000E947472F50164918AEE98E00E946B307B
:1005E0008AEE98E00E94A0318AEE98E00E942D2FBA
:1005F0008AEE98E00E949D30F4C0F6E0CF16D10458
:1006000059F028E0C216D10451F031E0C316D104EC
:1006100059F482E694E005C08FEF94E002C088EDC3
:1006200097E00E948661DDC0A98DBA8D8D919C9165
:10063000892B09F0D6C0F50131962490F50134904C
:100640008FE190E00E9460788C01DC0113961C928F
:100650001E921297FC0144825582668277829182B3
:100660008082178A168A118E108E138E128E158E26
:10067000148E668D6E7F6D7F668F6695617081E0EA
:100680006827822D0E94CF2661E0822D0E94FF26DE
:10069000822D90E0FC01E455FD4FE491D801509685
:1006A000EC93FC01EE50FD4FE491F0E0EE0FFF1FE4
:1006B000EE56FD4F25913491F801328B218B60E08D
:1006C000832D0E94FF26D8015E968C9181FD04C087
:1006D00061E0832D0E94CF26F8013486832D90E0BF
:1006E000FC01E455FD4FE491D8011D96EC93FC010B
:1006F000EE50FD4FE491F0E0EE0FFF1FE25AFD4F88
:1007000025913491F80137872687C8010E94956D9D
:100710008091570490915804A98DBA8D0817190734
:1007200081F00D911C910115110509F45AC0F801D1
:1007300091828082C8010E949672C8010E94F57859
:1007400050C08D919C919093E3098093E2090E949F
:10075000956DE5EEF9E011922F8C2E12FCCF41C081
:1007600023E0C216D10429F481E0AAA1BBA18C9395
:1007700038C0B5E0CB16D104A1F581E0E8A1F9A11C
:1007800080832FC09E012F5F3F4F1901A601440FA8
:10079000551F5E8F4D8F00E010E0D1019D911D012E
:1007A000ED8DFE8DE00FF11FEB5EFB4F84919330DA
:1007B00069F028F4913041F0923069F409C0943026
:1007C00039F0963041F404C062E003C060E001C03B
:1007D00061E00E94FF260130110519F001E010E0F0
:1007E000DCCFBFEFCB1ADB0AE2E0AE0EB11CF9E0C2
:1007F000CF16D10409F0C4CE0AEB18E0C7010E945D
:100800004919D82EC7010E94491990EA292ED21001
:100810000BC0843049F461E0C8010E94CD3C6AE518
:1008200070E0C8010E94A73D045F1F4F28E00A3E08
:10083000120721F7C7010E944919182FC7010E940A
:100840004919103A59F4853049F4F701EF5AFF4F2E
:10085000408161E084E199E00E94A453C7010E94B5
:100860004919182FC7010E944919103A59F48530C7
:1008700049F4F701EE5AFF4F408160E087E399E0C9
:100880000E94A4536FEF8FEF98E00E94362F8FEFF6
:1008900098E00E942D2F8FEF98E00E949D30AB8D45
:1008A000BC8D1D921C92F701E65BFF4F1082F70191
:1008B00086819781DC01ED91FC910084F185E02D2A
:1008C0000995F701892B11F40C94E818868197811A
:1008D000DC01ED91FC910284F385E02D0995E7CFD1
:1008E000F701EE5BFF4F1182108263E0C7010E94A7
:1008F000515BF701E75BFF4F6081C7010E94515BCD
:1009000061E0C7010E94515BF701E65BFF4F108277
:10091000F70186819781DC01ED91FC910084F185DE
:10092000E02D0995F701892B11F40C94E8188681C4
:100930009781DC01ED91FC910284F385E02D09950E
:10094000E7CF6701B2E4CB0ED11CF6011182108211
:10095000C7010E944919A82EC7010E944919B82E43
:10096000C7010E944919F3E0AF1209C0F701E75B24
:10097000FF4F2081B21203C061E0813009F060E0D6
:10098000D6011D921C92C7010E94515BF801108292
:10099000F70186819781DC01ED91FC910084F1855E
:1009A000E02D0995892B11F40C94C215D7011696E8
:1009B0008D919C911797DC01ED91FC910284F38558
:1009C000E02D0995E5CFF70186819781DC01ED9156
:1009D000FC910084F185E02D0995892B11F40C948C
:1009E000C215D70116968D919C911797DC01ED9158
:1009F000FC910284F385E02D0995E5CFD701DC96C3
:100A0000ED91FC91DD978081843009F477C148F441
:100A1000823009F4A5C008F010C1813069F00C944F
:100A2000F318813A09F458C2823A09F4E8C38530D0
:100A300011F00C94F3189FC15701B2E4AB0EB11C36
:100A4000F50111821082C7010E944919182FC701B0
:100A50000E944919782EC7010E944919682EC701C2
:100A60000E944919582ED701DE96ED91FC91DF972F
:100A70008081813061F0823029F40AEEC02E08E0D6
:100A8000D02E09C0F5011182108288EE49C0BFEF57
:100A9000CB2EB8E0DB2E111112C0D60112961C919C
:100AA000812C912C8116A8F4052D262D472DB401FB
:100AB000C6010E941A30BFEF8B1A9B0AF3CF612F39
:100AC00070E061507109052D262D472DC6010E9449
:100AD0001A3060E0C7010E944D64C6010E949D303B
:100AE0000E942C28F6010685178520893189DC01B2
:100AF000CB01801B910BA20BB30B8C329140A10553
:100B0000B10570F364E070E080E090E00E9451284D
:100B100061E0C7010E944D64D5011D921C9280E0E6
:100B2000F701E65BFF4F808381110C94F318F70106
:100B300086819781DC01ED91FC910084F185E02DA7
:100B40000995F701892B11F40C94E8188681978197
:100B5000DC01ED91FC910284F385E02D0995E7CF4E
:100B60006701B2E4CB0ED11CF60111821082C701DD
:100B70000E944919B82EC7010E944919182FC701B0
:100B80000E944919282FC7012FA30E944919D70194
:100B9000DE96ED91FC91DF9790812FA1913051F07D
:100BA000923019F4EAEEF8E007C0F60111821082E3
:100BB00088EE23C0EFEFF8E0BB2051F06B2D70E022
:100BC00061507109082F412FCF010E941A3011C0C6
:100BD000422F50E060E070E0762F652F542F4427BD
:100BE000612B482B00E010E020E030E0CF010E94B4
:100BF000E32FD6011D921C9280E0F701E65BFF4FC8
:100C0000808381110C94F318F70186819781DC01B0
:100C1000ED91FC910084F185E02D0995F701892B78
:100C200011F40C94E81886819781DC01ED91FC9118
:100C30000284F385E02D0995E7CFD701DE96ED918B
:100C4000FC91DF978081813061F0823019F40AEEE7
:100C500018E009C0F701EE5BFF4F1182108288EEA9
:100C60002BC00FEF18E060E0C7010E944D64C8017F
:100C70000E949D300E942C28F80186849784A088C9
:100C8000B188DC01CB0188199909AA09BB098C320A
:100C90009140A105B10570F364E070E080E090E060
:100CA0000E94512861E0C7010E944D64F701EE5B8C
:100CB000FF4F1182108280E0F701E65BFF4F8083D7
:100CC00081110C94F318F70186819781DC01ED9175
:100CD000FC910084F185E02D0995892B11F40C9489
:100CE000C215D70116968D919C911797DC01ED9155
:100CF000FC910284F385E02D0995E5CFD701DE96BE
:100D0000ED91FC91DF97808187010E5B1F4F813051
:100D100051F0823019F48AEE98E007C0F801118290
:100D2000108288EE08C08FEF98E00E942D2FD80126
:100D30001D921C9280E0F701E65BFF4F80838111DA
:100D40000C94F318F70186819781DC01ED91FC91F9
:100D50000084F185E02D0995F701892B11F40C949D
:100D6000E81886819781DC01ED91FC910284F3857E
:100D7000E02D0995E7CF3701B2E46B0E711CF3014A
:100D800011821082D701DE96ED91FC91DF97808170
:100D9000813041F0823009F07EC07AEEC72E78E0D3
:100DA000D72E04C06FEFC62E68E0D62EC7010E9472
:100DB0004919882E10E048E0242E312C412C512C6A
:100DC000AA24AA94B12C1815F1F1C7010E9449195F
:100DD000982EC7010E944919682FC7016EA30E946F
:100DE0004919082F6EA1693030F00E943573A201B5
:100DF00091010E94667470E0FB01EE0FFF1FE60F89
:100E0000F71FE35DFD4F828121814081809FC001FA
:100E10001124B5010E941377362F209FC0011124A1
:100E2000B5010E941377262F409FC0011124B50100
:100E30000E941377462F692D70E0032FC6010E9490
:100E40001A301F5FC0CF60E0C7010E944D64C60129
:100E50000E949D300E942C28F60106851785208966
:100E60003189DC01CB01801B910BA20BB30B8C32BF
:100E70009140A105B10570F364E070E080E090E07E
:100E80000E94512861E0C7010E944D64D3011D9268
:100E90001C9280E001C088EEF701E65BFF4F808383
:100EA00081110C94F318F70186819781DC01ED9193
:100EB000FC910084F185E02D0995F701892B11F44F
:100EC0000C94E81886819781DC01ED91FC910284F5
:100ED000F385E02D0995E7CF1701B2E42B0E311C05
:100EE000F10111821082C7010E944919A82EC70181
:100EF0000E944919182FC7010E944919B82ED7011D
:100F0000DE96ED91FC91DF978081813041F0823057
:100F100009F052C12AEE822E28E0922E04C09FEFE3
:100F2000892E98E0992E193048F00E94357328E0F8
:100F300030E040E050E00E946674162FC12ED12CA4
:100F4000A11032C0F601EE0FFF1FEC0DFD1DE35D99
:100F5000FD4F7280218180818B9DC0011124EFEFB4
:100F6000F0E0BF010E941377662E2B9DC001112473
:100F7000BF010E941377062F10E020E030E0322FEF
:100F8000212F102F002726297B9CC0011124BF018F
:100F90000E941377D901C801862BAC01BD0100E086
:100FA00010E020E030E047C0F401A281B381F601F7
:100FB000EE0FFF1FEC0DFD1DE35DFD4F4280498EDE
:100FC000418180818D01169507956A2D70E06150F1
:100FD0007109A69FF001A79FF00DB69FF00D112497
:100FE000F695E7958B9DC00111242FEF30E0B901F4
:100FF0000E941377762E4B9DC0011124B9010E94E7
:101000001377462F50E060E070E0762F652F542F65
:101010004427DB01CA01A7292C013D01498D4B9DC5
:10102000C0011124B9010E941377D301C201862B9C
:10103000AC01BD019F01C4010E94E32F60E0C70124
:101040000E944D64C4010E949D300E942C28D4014E
:101050001E960D911D912D913C915197DC01CB0174
:10106000801B910BA20BB30B8C329140A105B105F3
:1010700060F364E070E080E090E00E94512861E05D
:10108000C7010E944D64D701DE96ED91FC91DF9778
:101090008081823009F08BC0B1E0AB1609F45CC0EE
:1010A000AB1640F1E2E0AE1282C0F601EE0FFF1F78
:1010B000EC0DFD1DE35DFD4F80818701025B1F4F3D
:1010C0008B9DC00111242FEF30E0B9010E941377EE
:1010D000D8016C9381810F5F1F4F8B9DC00111243C
:1010E000B9010E941377D8016C938281F701E05B0C
:1010F000FF4F56C0F601EE0FFF1FEC0DFD1DE35D27
:10110000FD4F80818B9DC00111242FEF30E0B9018C
:101110000E941377162FD701A55BBF4F6C93818177
:101120008B9DC0011124B9010E941377462FD7016E
:10113000A45BBF4F6C9382818B9DC0011124B901C8
:101140000E941377F701E35BFF4F608331961083B2
:101150003196408331962AC0F601EE0FFF1FEC0D49
:10116000FD1DE35DFD4F80818701055B1F4F8B9D5A
:10117000C00111242FEF30E0B9010E941377D8018C
:101180006C9381810F5F1F4F8B9DC0011124B901AA
:101190000E941377D8016C938281F701E35BFF4FC4
:1011A0008B9DC0011124B9010E9413776083F10166
:1011B0001182108280E001C088EEF701E65BFF4FEC
:1011C000808381110C94F318F70186819781DC01EB
:1011D000ED91FC910084F185E02D0995892B11F4A6
:1011E0000C94C215D70116968D919C911797DC012E
:1011F000ED91FC910284F385E02D0995E5CFF7018F
:10120000EE5BFF4F11821082C7010E94491962E014
:10121000680FC7010E946064F701E65BFF4F80839F
:1012200081110C94F318F70186819781DC01ED910F
:10123000FC910084F185E02D0995F701892B11F4CB
:101240000C94E81886819781DC01ED91FC91028471
:10125000F385E02D0995E7CFD701DC96ED91FC9160
:10126000DD97E0818E2F90E0FC013197E730F105AA
:1012700010F00C94F318ED57FF4F87010E5B1F4FD2
:101280000C942777F80111821082C7010E94335B0A
:10129000D701DE96ED91FC91DF97208130E021505F
:1012A00031099CE0929FF001939FF00D1124E654C8
:1012B000F74F082E000C990B96838583F801118255
:1012C0001082F701E65BFF4F1082F701868197815C
:1012D000DC01ED91FC910084F185E02D0995892BCD
:1012E00011F40C94C215D70116968D919C91179705
:1012F000DC01ED91FC910284F385E02D0995E5CFA9
:10130000F80111821082C7010E944919482FC701B4
:101310004CA30E944919682FD701DE96ED91FC91EC
:10132000DF97208130E0215031095CE0529FC001FD
:10133000539F900D11248654974F6EA30E94D33C67
:101340004CA16EA1423049F0433061F0413081F050
:10135000F8011182108288EE23C0680F653B40F0CF
:1013600064EB06C0681718F4861B682F01C060E0A4
:1013700070E0D701DE96ED91FC91DF97208130E09F
:10138000215031094CE0429FC001439F900D112430
:101390008654974F0E94A73DF8011182108280E089
:1013A000F701E65BFF4F808381110C94F318F7017E
:1013B00086819781DC01ED91FC910084F185E02D1F
:1013C0000995892B11F40C94C215D70116968D91AD
:1013D0009C911797DC01ED91FC910284F385E02D3F
:1013E0000995E5CFD701DE96ED91FC91DF9720813D
:1013F00030E0215031094CE0429FC001439F900DE5
:1014000011248654974F0E94D33CF8011182108218
:10141000682FC7010E94515BF701E65BFF4F108206
:10142000F70186819781DC01ED91FC910084F185C3
:10143000E02D0995892B11F40C94C215D70116964D
:101440008D919C911797DC01ED91FC910284F385BD
:10145000E02D0995E5CFF80111821082C7010E94A5
:101460004919582FC7015DA30E944919682FC70168
:101470006EA30E944919D82ED701DE96ED91FC91FA
:10148000DF97208130E0215031094CE0429FC001BC
:10149000439F900D11248654974F0E94D33C5DA129
:1014A0006EA1523049F0533061F0513081F0F801B3
:1014B0001182108288EE25C0680F653B40F064EB16
:1014C00006C0681718F4861B682F01C060E04D2D18
:1014D00050E070E0D701DE96ED91FC91DF9720811E
:1014E00030E021503109ECE0E29FC001E39F900D14
:1014F00011248654974F0E944A3DF80111821082B0
:1015000080E0F701E65BFF4F808381110C94F318B4
:10151000F70186819781DC01ED91FC910084F185D2
:10152000E02D0995892B11F40C94C215D70116965C
:101530008D919C911797DC01ED91FC910284F385CC
:10154000E02D0995E5CF0E94AA5CF8011182108276
:10155000F701E65BFF4F1082F70186819781DC017E
:10156000ED91FC910084F185E02D0995892B11F412
:101570000C94C215D70116968D919C911797DC019A
:10158000ED91FC910284F385E02D0995E5CFF801FA
:1015900011821082C7010E944919C82E5AEBA52E4C
:1015A00058E0B52ED12CDC1479F0C7010E944919FE
:1015B000853B28F4682F70E0C5010E94A73DD394B5
:1015C000FCE0AF0EB11CEFCFD8011D921C92F701C9
:1015D000E65BFF4F1082F70186819781DC01ED9178
:1015E000FC910084F185E02D0995F701892B11F418
:1015F0000C94E81886819781DC01ED91FC910284BE
:10160000F385E02D0995E7CFF8011182108264E09F
:10161000C7010E94515B0AEB18E0C8010E94D33C4D
:10162000682FC7010E94515B045F1F4FF8E00A3E1C
:101630001F0799F7F701E65BFF4F1082F7018681DC
:101640009781DC01ED91FC910084F185E02D0995F5
:10165000892B11F40C94C215D70116968D919C918B
:101660001797DC01ED91FC910284F385E02D09953B
:10167000E5CFD701DC96ED91FC91DD978081F701F4
:10168000E65BFF4F6F01823009F457C020F48130D0
:1016900051F00C94F318833009F48DC0843009F4B0
:1016A000F7C00C94F31887010E5B1F4FD8011D92F1
:1016B0001C92C7010E94335B682FD701DE96ED9123
:1016C000FC91DF978081813041F0823091F4062EC9
:1016D000000C770B87E399E005C0062E000C770B12
:1016E00084E199E00E94DC52D8011D921C9280E0B6
:1016F00004C0F8011182108288EEF6018083811106
:101700000C94F318F70186819781DC01ED91FC912F
:101710000084F185E02D0995892B11F40C94C215F4
:10172000D70116968D919C911797DC01ED91FC9154
:101730000284F385E02D0995E5CFD701DE96ED9182
:10174000FC91DF97808187010E5B1F4F813011F084
:10175000823069F484E199E00E94E651D8011D923B
:101760001C92682FC7010E94215B80E004C0F80131
:101770001182108288EEF601808381110C94F31897
:10178000F70186819781DC01ED91FC910084F18560
:10179000E02D0995892B11F40C94C215D7011696EA
:1017A0008D919C911797DC01ED91FC910284F3855A
:1017B000E02D0995E5CF5701B2E4AB0EB11CF50160
:1017C00011821082C7010E944919282FC7012FA337
:1017D0000E944919082FD701DE96ED91FC91DF9701
:1017E00080812FA1813039F0823089F547E3842E42
:1017F00049E0942E04C034E1832E39E0932E10E0AA
:10180000C4012FA30E9414522FA1223099F038F462
:10181000222369F02130D9F4080F191F0FC023309B
:1018200069F02430A1F411950195110907C000E079
:1018300010E004C0FC01E01BF10B8F01B801C401F2
:101840000E943A52D5011D921C9280E001C088EEA0
:10185000F601808381110C94F318F701868197813A
:10186000DC01ED91FC910084F185E02D0995892B37
:1018700011F40C94C215D70116968D919C9117976F
:10188000DC01ED91FC910284F385E02D0995E5CF13
:10189000D701DE96ED91FC91DF978081813011F0C8
:1018A000823079F484E199E00E941452F701EE5BF2
:1018B000FF4F11821082BC01C7010E94FB5A80E0D9
:1018C00001C088EEF601808381110C94F318F701B2
:1018D00086819781DC01ED91FC910084F185E02DFA
:1018E0000995892B11F40C94C215D70116968D9188
:1018F0009C911797DC01ED91FC910284F385E02D1A
:101900000995E5CFD701DC96ED91FC91DD97E0815B
:101910008E2F90E0FC013197EA30F10510F00C9425
:10192000F318E657FF4F0C94277787010E5B1F4F84
:10193000F80111821082C7010E944919D701DE9671
:10194000ED91FC91DF979081913081F524E630E0B4
:10195000F901E81BF109CF01E0916009F0916109FB
:101960001816190674F49C013595279594E6921B78
:101970009683E0916209F09163098C59821B8683FA
:1019800010C09195819591099C013595279594E614
:10199000920F9683E0916209F0916309281B2C59FC
:1019A0002683D8011D921C9280E004C0F8011182A8
:1019B000108288EEF701E65BFF4F808381110C9463
:1019C000F318F70186819781DC01ED91FC91008489
:1019D000F185E02D0995892B11F40C94C215D701DE
:1019E00016968D919C911797DC01ED91FC910284E4
:1019F000F385E02D0995E5CF5701B2E4AB0EB11C9C
:101A0000F50111821082C7010E944919382FC701C0
:101A10003EA30E944919082F10E0C7010E944919EE
:101A2000282FC7012FA30E944919C82ED12C8091BD
:101A30006009909161090E94E6513EA12FA13230C8
:101A4000A9F040F4332379F0313009F048C0080F91
:101A5000191F10C0333071F0343009F040C01195B7
:101A60000195110907C000E010E004C01C01201A14
:101A7000310A810180916009909161092FA30E9430
:101A8000E6512FA1223099F038F4222369F0213059
:101A900031F5C80ED91E0FC0233069F02430F9F497
:101AA000D194C194D10807C0C12CD12C04C02C0101
:101AB0004C185D086201D701DE96ED91FC91DF972D
:101AC0008081813049F4B601C8010E94A95BF5010B
:101AD0001182108280E004C0D5011D921C9288EE14
:101AE000F701E65BFF4F808381110C94F318F70137
:101AF00086819781DC01ED91FC910084F185E02DD8
:101B00000995F701892B11F40C94E81886819781C7
:101B1000DC01ED91FC910284F385E02D0995E7CF7E
:101B2000D701DE96ED91FC91DF9780818130F1F451
:101B300080916009909161090E94E651682F80911F
:101B40006209909163096EA30E94E651182FF70174
:101B5000EE5BFF4F118210826EA1C7010E94215BD4
:101B6000612FC7010E94215B80E001C088EEF70170
:101B7000E65BFF4F808381110C94F318F701868197
:101B80009781DC01ED91FC910084F185E02D0995B0
:101B9000F701892B11F40C94E81886819781DC01F8
:101BA000ED91FC910284F385E02D0995E7CF670163
:101BB000B2E4CB0ED11CF60111821082C7010E9443
:101BC000CD5A8C01C7010E944919D701DE96ED91CB
:101BD000FC91DF9790819130B1F4A80160E070E052
:101BE00090E00E94393480E090E00E943133892BEC
:101BF00011F40C94FF1881E090E00E943133892B9E
:101C000091F70C94FF1888EEF701E65BFF4F808395
:101C100081110C94F318F70186819781DC01ED9115
:101C2000FC910084F185E02D0995F701892B11F4D1
:101C30000C94E81886819781DC01ED91FC91028477
:101C4000F385E02D0995E7CF87010E5B1F4FF80163
:101C500011821082C7010E94CD5A6C01C7010E94F7
:101C60004919D701DE96ED91FC91DF979081913073
:101C7000C9F4A60160E070E090E09195819591092A
:101C80000E94393480E090E00E943133892B11F4B6
:101C90000C940B1981E090E00E943133892B91F76D
:101CA0000C940B1988EEF701E65BFF4F80838111DE
:101CB0000C94F318F70186819781DC01ED91FC917A
:101CC0000084F185E02D0995F701892B11F40C941E
:101CD000E81886819781DC01ED91FC910284F385FF
:101CE000E02D0995E7CF87010E5B1F4FF8011182A8
:101CF0001082C7010E94CD5A6C01C7010E94491988
:101D0000282FD701DE96ED91FC91DF9780818130FD
:101D100011F530E088279927821B930B29F0A60143
:101D200060E070E00E94E83380E090E00E94313390
:101D3000892BD1F781E090E00E943133892BA1F704
:101D400064E670E080E090E00E945128F801118282
:101D5000108280E001C088EEF701E65BFF4F8083D0
:101D600081110C94F318F70186819781DC01ED91C4
:101D7000FC910084F185E02D0995F701892B11F480
:101D80000C94E81886819781DC01ED91FC91028426
:101D9000F385E02D0995E7CF87010E5B1F4FF80112
:101DA00011821082C7010E94CD5A6C01C7010E94A6
:101DB0004919D701DE96ED91FC91DF979081913022
:101DC000F9F490E0009729F0A60160E070E00E942D
:101DD000E83380E090E00E943133892BD1F781E035
:101DE00090E00E943133892BA1F764E670E080E037
:101DF00090E00E945128D8011D921C9280E001C001
:101E000088EEF701E65BFF4F808381110C94F31895
:101E1000F70186819781DC01ED91FC910084F185C9
:101E2000E02D0995F701892B11F40C94E8188681AF
:101E30009781DC01ED91FC910284F385E02D0995F9
:101E4000E7CFD701DE96ED91FC91DF97808181305D
:101E500069F460E070E080E090E00E948633F70172
:101E6000EE5BFF4F1182108280E001C088EEF70127
:101E7000E65BFF4F808381110C94F318F701868194
:101E80009781DC01ED91FC910084F185E02D0995AD
:101E9000F701892B11F40C94E81886819781DC01F5
:101EA000ED91FC910284F385E02D0995E7CF870140
:101EB0000E5B1F4FF80111821082C7010E94491961
:101EC000D701DE96ED91FC91DF979081913079F406
:101ED000E0916009F09161098783E0916209F091D6
:101EE00063098783F8011182108280E001C088EEC7
:101EF000F701E65BFF4F808381110C94F318F70123
:101F000086819781DC01ED91FC910084F185E02DC3
:101F10000995892B09F436C6D70116968D919C91A7
:101F20001797DC01ED91FC910284F385E02D099572
:101F3000E6CF87010E5B1F4FF80111821082C701A7
:101F40000E944919D701DE96ED91FC91DF979081AF
:101F5000913019F5682F70E080E090E00E9449739D
:101F60002091640930916509409166095091670993
:101F70000E94A87320E030E048EC52E40E94A8756B
:101F8000609364097093650980936609909367096B
:101F9000F8011182108280E001C088EEF701E65B53
:101FA000FF4F808381110C94F318F701868197818C
:101FB000DC01ED91FC910084F185E02D0995892BE0
:101FC00009F4E0C5D70116968D919C911797DC0115
:101FD000ED91FC910284F385E02D0995E6CFD701C0
:101FE000DC96ED91FC91DD9780818701065B1F4FA8
:101FF000823009F473C0833009F4A3C0813011F03A
:102000000C94F3186701B2E4CB0ED11CF6011182D7
:102010001082C7010E944919B82EC7010E944919B0
:10202000A82ED701DE96ED91FC91DF97808181305B
:10203000B1F5BB2071F0EB2DF0E0EE0FFF1FE35B7D
:10204000FD4F6081718120E030E0A90184E00E94B1
:10205000D146EA2DF0E0EB5BFD4F208130E0A0E6B9
:10206000BAEE0E94BA74E4E09695879577956795E5
:10207000EA95D1F7F701ED5AFF4F2081318140E019
:1020800050E00E949874CA01B9010E94512884E06E
:102090000E948D46F6011182108280E001C088EE18
:1020A000D8018C9381110C94F318F70186819781E4
:1020B000DC01ED91FC910084F185E02D0995F7019B
:1020C000892B11F40C94E81886819781DC01ED913D
:1020D000FC910284F385E02D0995E7CF6701B2E416
:1020E000CB0ED11CF60111821082C7010E94CD5A7D
:1020F000D6011D921C92482F50E060E070E0C701AD
:102100000E947262F801808381110C94F318F70128
:1021100086819781DC01ED91FC910084F185E02DB1
:102120000995892B09F42EC5D70116968D919C919E
:102130001797DC01ED91FC910284F385E02D099560
:10214000E6CF6701B2E4CB0ED11CF60111821082FA
:10215000C7010E94CD5AF701ED5AFF4F918380834A
:10216000D6011D921C92F8011082F7018681978199
:10217000DC01ED91FC910084F185E02D0995892B1E
:1021800009F400C5D70116968D919C911797DC0133
:10219000ED91FC910284F385E02D0995E6CFD701FE
:1021A000DC96ED91FC91DD978081823009F46EC060
:1021B000B0F4813011F00C94F31887010E5B1F4FBF
:1021C000F80111821082FE013D965E0121E1A20E0E
:1021D000B11CCF01670130E4C30ED11C0BC08701D5
:1021E000065B1F4F833009F4A5C0843009F4E3C0B7
:1021F0000C94F318D6014D915C91D8012D913C912E
:102200001197B9016F5F7F4F6D937C93240F351F3A
:10221000D9014C9150E060E070E049835A836B83B0
:102220007C834193EA15FB0529F7D701DE96ED91F2
:10223000FC91DF972081213039F40E94D45EF801AF
:102240001182108280E004C0D8011D921C9288EE99
:10225000F701E65BFF4F80838111C5C7F7018681D7
:102260009781DC01ED91FC910084F185E02D0995C9
:10227000F701892B09F4ACC786819781DC01ED91C8
:10228000FC910284F385E02D0995E8CF87010E5B70
:102290001F4FF80111821082C7010E944919D7010E
:1022A000DE96ED91FC91DF979081913011F58130B0
:1022B00049F030F0823041F08330D9F48DEA05C026
:1022C0008BEA03C08AEA01C08CEA8093E50981E0C9
:1022D0000E94265E0E94A55D8BEA8093E50981E05D
:1022E0000E94265E0E94A55DF8011182108280E0A6
:1022F00001C088EEF701E65BFF4F8083811173C751
:10230000F70186819781DC01ED91FC910084F185D4
:10231000E02D0995892B09F435C4D70116968D91C6
:102320009C911797DC01ED91FC910284F385E02DDF
:102330000995E6CF6701B2E4CB0ED11CF6011182FC
:102340001082C7010E944919D701DE96ED91FC91D8
:10235000DF979081913091F49EEA9093E509803265
:1023600008F08FE18093E60982E00E94265E0E94D9
:10237000A55DF6011182108280E001C088EED801CF
:102380008C93811130C7F70186819781DC01ED9133
:10239000FC910084F185E02D0995F701892B09F462
:1023A00017C786819781DC01ED91FC910284F3854A
:1023B000E02D0995E8CF6701B2E4CB0ED11CF60100
:1023C00011821082C7010E944919D701DE96ED9152
:1023D000FC91DF979081913079F49FEA9093E50921
:1023E0008093E60982E00E94265E0E94A55DF601C8
:1023F0001182108280E004C0D6011D921C9288EEEA
:10240000F80180838111EFC6F70186819781DC0195
:10241000ED91FC910084F185E02D0995892B09F45B
:10242000B1C3D70116968D919C911797DC01ED9160
:10243000FC910284F385E02D0995E6CFD701DC9667
:10244000ED91FC91DD9780818701065B1F4F823003
:1024500009F47FC018F4813061F1C5C6833009F4F6
:10246000C0C0843009F0BFC66701B2E4CB0ED11CF6
:10247000F60111821082C7010E944919D701DE9628
:10248000ED91FC91DF97E081F0E03197EE0FFF1FB7
:10249000E80FF11DEB5EFB4F84910E940228F601CC
:1024A00011821082BC01C7010E94A75AD8011C9258
:1024B000D6C06701B2E4CB0ED11CF60111821082A6
:1024C000C7010E944919682FC7016EA30E944919CC
:1024D000B82E6EA1623070F4D701DE96ED91FC91BA
:1024E000DF97E081F0E0EE0FFF1FED5EFB4F849180
:1024F0000E94CF26B1E0BB1578F0D701DE96ED91B2
:10250000FC91DF97E081F0E0EE0FFF1FEC5EFB4FE8
:1025100084916B2D0E94CF26F60111821082D80182
:102520001C92F70186819781DC01ED91FC9100847A
:10253000F185E02D0995F701892B09F449C68681BB
:102540009781DC01ED91FC910284F385E02D0995E2
:10255000E8CFD701DE96ED91FC91DF97E081F0E0C6
:10256000EE0FFF1FED5EFB4F84910E94A626682FA1
:10257000D701DE96ED91FC91DF97E081F0E0EE0F60
:10258000FF1FEC5EFB4F84916EA30E94A626D82EFF
:10259000F701EE5BFF4F118210826EA1C7010E940E
:1025A000515B6D2DC7010E94515BF8011082F7014C
:1025B00086819781DC01ED91FC910084F185E02D0D
:1025C0000995892B09F4DEC2D70116968D919C914D
:1025D0001797DC01ED91FC910284F385E02D0995BC
:1025E000E6CF6701B2E4CB0ED11CF6011182108256
:1025F000C7010E944919B82EC7010E94CD5ABC01DB
:10260000D701DE96ED91FC91DF97E081F0E0319704
:10261000EE0FFF1FEB0DF11DEB5EFB4F8491772753
:102620000E943B27F60111821082D8011C92F7010B
:1026300086819781DC01ED91FC910084F185E02D8C
:102640000995F701892B09F4C3C586819781DC01BF
:10265000ED91FC910284F385E02D0995E8CFF70117
:1026600086819781DC01ED91FC910084F185E02D5C
:102670000995F701892B09F4ABC586819781DC01A7
:10268000ED91FC910284F385E02D0995E8CFD70107
:10269000DC96ED91FC91DD978081813009F0A3C536
:1026A00087010E5B1F4FF80111821082DE96ED91BB
:1026B000FC91DF978081813019F0823041F002C0B7
:1026C0008FE306C08FE30E94A626892B31F484E4B1
:1026D0000E94A62661E0892B09F060E0D8011D92D6
:1026E0001C92C7010E94515BF701E65BFF4F10820D
:1026F000F70186819781DC01ED91FC910084F185E1
:10270000E02D0995F701892B09F462C5868197812F
:10271000DC01ED91FC910284F385E02D0995E8CF71
:10272000D701DC96ED91FC91DD978081833009F42F
:102730002BC230F4813089F0823009F4F3C053C5E4
:10274000F701E65BFF4F6F01853009F4D9C208F449
:102750007AC2863009F4B3C346C5D701DE96ED913F
:10276000FC91DF978081813009F0B6C00E948B28F0
:102770004B015C01FE0131966F018CE0DF011D927F
:102780008A95E9F7B2E04B2E512C612C712CC601D1
:102790000E941426892B09F098C00CEB19E0E4ED97
:1027A000F9E0FA8FE98F1601F10180819181A28110
:1027B000B381F801448155816681778148175907B3
:1027C0006A077B0744F484839583A683B7830E94BA
:1027D0008B284B015C01F10181919191A191B19103
:1027E0001F01F8014081518162817381841795072F
:1027F000A607B70744F480839183A283B3830E9422
:102800008B284B015C01D8012D913D914D915C913C
:10281000139714968D919D910D90BC91A02D280F2A
:10282000391F4A1F5B1FCA01B901A30192010E940F
:102830006674E98DFA8D2193319341935193FA8F08
:10284000E98F0E948B28DC01CB0188199909AA091C
:10285000BB09893B9B40A105B10578F18091D40962
:102860009091D509A091D609B091D709B095A095BE
:10287000909581959F4FAF4FBF4F8093D409909310
:10288000D509A093D609B093D7098091DC0990911E
:10289000DD09A091DE09B091DF09B095A095909572
:1028A00081959F4FAF4FBF4F8093DC099093DD0917
:1028B000A093DE09B093DF0908C0085F1F4F29E02D
:1028C000043D120709F070CF62CFF701EE5BFF4FB6
:1028D0001182108280E006C0F701EE5BFF4F11828B
:1028E000108288EEF701E65BFF4F808381117BC485
:1028F000F70186819781DC01ED91FC910084F185DF
:10290000E02D0995892B09F43DC1D70116968D91CB
:102910009C911797DC01ED91FC910284F385E02DE9
:102920000995E6CF87010E5B1F4FF80111821082D7
:10293000D701DE96ED91FC91DF978081813009F01F
:1029400001C1BE01635F7F4F8CE0FB0111928A954C
:10295000E9F781EB99E00E94553B892B09F0E8C02B
:1029600049895A896B897C898D849E84AF84B88813
:10297000DB01CA0177FF07C088279927DC01841B88
:10298000950BA60BB70B4D885E886F88788C77FE09
:1029900008C07094609450944094411C511C611C78
:1029A000711C84159505A605B70514F4D301C20161
:1029B00024013501B7FE07C04424552432014818CC
:1029C00059086A087B0884159505A605B70514F40F
:1029D000D301C20188159905AA05BB0559F0C12C80
:1029E000D12C84179507A607B70739F0882483945C
:1029F000912C06C0CC24C394D12CE2E08E2E912CD5
:102A00009E012F5F3F4F59018CE0D9011D928A959D
:102A1000E9F7C9010E941426892B09F089C0898130
:102A20009A81AB81BC81B095A095909581959F4F7F
:102A3000AF4FBF4F89839A83AB83BC8389859A85C7
:102A4000AB85BC85B095A095909581959F4FAF4F74
:102A5000BF4F89879A87AB87BC87D401AA0FBB1F5A
:102A6000AA0FBB1FAA0DBB1DF401EE0FFF1FEE0F37
:102A7000FF1FEC52F64F8D919D910D90BC91A02DB2
:102A80004080518062807380BC01CD01641975095A
:102A9000860997090E9449739B01AC01C601880F02
:102AA000991F880F991FD501A80FB91FF6017B96B2
:102AB000EE0FFF1FEE0FFF1FE859F64F8D919D910E
:102AC0000D90BC91A02D80809180A280B380BC012C
:102AD000CD01681979098A099B092FA33EA34CA34C
:102AE0005DA30E9449732FA13EA14CA15DA10E944C
:102AF000497521EE3EE245E652E40E94A87320E0CB
:102B000030E040E05FE30E94CA740E941A7677FFCB
:102B100011C0072E000C880B990B0E94497320E00E
:102B200030E044EB53E40E94CA740E941A7602C05B
:102B30006FEF7FEFF80111821082C7010E94A75A40
:102B400080E001C088EEF701E65BFF4F80838111D2
:102B50004AC3F70186819781DC01ED91FC910084E5
:102B6000F185E02D0995892B69F0D70116968D9195
:102B70009C911797DC01ED91FC910284F385E02D87
:102B80000995E7CFF70124C387010E5B1F4FF801BA
:102B900011821082C7010E944919D82ED701DE96F2
:102BA000ED91FC91DF978081813019F58FEF8D0DCC
:102BB0008330A0F4BE016F5F7F4F81EB99E00E94EC
:102BC000553BE1E0F0E0EC0FFD1FB4E0DB9EE00DD3
:102BD000F11D112434976081718110C00E949F25DE
:102BE00020E030E040E854E40E94A8730E941A7686
:102BF00005C0F8011182108288EE07C0D8011D922D
:102C00001C92C7010E94FB5A80E0F701E65BFF4F70
:102C100080838111E8C2F70186819781DC01ED9103
:102C2000FC910084F185E02D0995F701892B09F4C9
:102C3000CFC286819781DC01ED91FC910284F385FE
:102C4000E02D0995E8CF87010E5B1F4FF801118237
:102C50001082D701DE96ED91FC91DF978081813063
:102C600091F5AE014F5F5F4F6CE081EB99E00E9400
:102C7000FB3AAE014E5F5F4F6DE081EB99E00E9441
:102C8000FB3A6A8170E0762F66278981682BF8010C
:102C900011821082072E000C880B990B0E94497339
:102CA00020E030E040E85BE30E94A87320E030E0E1
:102CB00048EC51E40E94CA740E941A76C7010E942F
:102CC000FB5A80E001C088EED6018C9381118BC243
:102CD000F70186819781DC01ED91FC910084F185FB
:102CE000E02D0995F701892B09F472C2868197813D
:102CF000DC01ED91FC910284F385E02D0995E8CF8C
:102D00005701B2E4AB0EB11CF50111821082C7016C
:102D10000E94491990E08B30910508F0A7C0FC0192
:102D2000EC56FF4F0C9427770E949F2511E020E07E
:102D300030E040EC5FE394C00E949F252DEC3CEC1A
:102D40004CEC5DE30E944273182F111F1127111FD5
:102D500092C0BE016F5F7F4F81EB99E00E94553BAF
:102D600011E089819A81AB81BC818D3B9240A105A4
:102D7000B1050CF080C078C0BE016F5F7F4F81EB62
:102D800099E00E94553B11E089819A81AB81BC8119
:102D900084349D4FAF4FBF4F0CF46DC065C0BE0172
:102DA0006F5F7F4F81EB99E00E94553B11E08D8171
:102DB0009E81AF81B8858D3B9240A105B1050CF095
:102DC0005AC052C0BE016F5F7F4F81EB99E00E94F5
:102DD000553B11E08D819E81AF81B88584349D4F34
:102DE000AF4FBF4F0CF447C03FC0BE016F5F7F4F76
:102DF00081EB99E00E94553B11E089859A85AB856E
:102E0000BC858D3B9240A105B105ACF52DC0BE013E
:102E10006F5F7F4F81EB99E00E94553B11E0898500
:102E20009A85AB85BC8584349D4FAF4FBF4F1CF155
:102E30001BC00E949F2511E020E030E040E450E4F8
:102E40000FC00E949F2511E020E030E040EC50E4EC
:102E500007C00E949F2511E020E030E040E051E4EF
:102E60000E94777618163CF010E005C0D5011D923F
:102E70001C9288EE08C0F50111821082612FC701F3
:102E80000E94515B80E0D6018C938111ACC1F701A7
:102E900086819781DC01ED91FC910084F185E02D24
:102EA0000995F701892B09F493C186819781DC018B
:102EB000ED91FC910284F385E02D0995E8CF87011F
:102EC0000E5B1F4FF80111821082C7010E94491941
:102ED000782EF1E0F81708F45AC0BE016F5F7F4FFB
:102EE0008CE0DB011D928A95E9F781EB99E00E9465
:102EF000553B892B09F041C089859A85AB85BC85F6
:102F00001C012D0166277727CB01621973098409FB
:102F100095090E9449734B015C0149815A816B817B
:102F20007C811A012B0166277727CB01621973096F
:102F3000840995090E944973A50194010E9449756D
:102F40003324339473100AC06D817E818F819885FC
:102F50000E944973A50194010E94497521EE3EE249
:102F600045E652E40E94A87320E030E040E05FE3D1
:102F70000E94CA740E941A7602C06FEF7FEFD801D8
:102F80001D921C92C7010E94FB5A80E004C0F80108
:102F90001182108288EED6018C93811124C1F70131
:102FA00086819781DC01ED91FC910084F185E02D13
:102FB0000995F701892B09F40BC186819781DC0102
:102FC000ED91FC910284F385E02D0995E8CFD701BE
:102FD000DC96ED91FC91DD978081F701E65BFF4F78
:102FE0001F01813019F0833021F0FDC088EE80830D
:102FF000FAC0F701EE5BFF4FFA8FE98F1182108262
:10300000C7010E94CD5A8C01C7010E94CD5AD70139
:10301000DE96ED91FC91DF972081213009F0B8C058
:103020009C018536910510F024E630E0A8010936B0
:10303000114010F048E651E02A01612C712C490141
:10304000A12CB12C4A355105E0F44FEF429FC0014D
:10305000439F900D112464E670E00E9413778B016A
:10306000A2E0BEEFA30192010E9493742AE530E032
:1030700040E050E00E94667421503F4F4F4F5F4F39
:1030800047C0443B510508F541E0429FC001439FC2
:10309000900D921B112464E670E00E9413776B017F
:1030A000A30192012A55310941095109A2E0BEEF5D
:1030B0000E9493742AE530E040E050E00E9466747C
:1030C00021503F4F4F4F5F4F4EC04E30514060F543
:1030D00041E0429FC001439F900D921B112464E682
:1030E00070E00E9413778B01A3019201245B3109E8
:1030F00041095109AEEFB1E00E9485742AE530E044
:1031000040E050E00E9466742F5F31094109510987
:10311000C501B4010E94E37624E630E040E050E0CF
:103120000E94667469012AC04FEF429FC001439F0D
:10313000900D112464E670E00E9413776B01A301E7
:1031400092012E50314041095109AEEFB1E00E9489
:1031500085742AE530E040E050E00E9466742F5FFD
:10316000310941095109C501B4010E94E37624E601
:1031700030E040E050E00E9466748901B601C80169
:103180000E948633A98DBA8D1D921C9280E005C0E5
:10319000E98DFA8D1182108288EED1018C93811114
:1031A00022C0F70186819781DC01ED91FC910084BA
:1031B000F185E02D0995F701892B51F086819781E2
:1031C000DC01ED91FC910284F385E02D0995E9CFB6
:1031D000A4ADB5AD82AD93AD4C91DC016C91C7014E
:1031E0000E94E85824C0F701E65BFF4F60813697E4
:1031F00080818823E1F0C7010E94AE5818C064E6C0
:1032000070E080E090E00E945128F6011182108267
:1032100080E00C94040E64E670E080E090E00E9490
:103220005128D8011D921C9280E00C94530EAB964D
:103230000FB6F894DEBF0FBECDBFDF91CF911F91C7
:103240000F91FF90EF90DF90CF90BF90AF909F9045
:103250008F907F906F905F904F903F902F90089548
:1032600008952AE832E0FC01318320830C943D6903
:1032700024E732E0FC01318320830C943D69CF9335
:10328000DF93EC010E943819CE01DF91CF910C94AD
:10329000F578CF93DF9300D000D0CDB7DEB7FC0137
:1032A000E05CFF4F20813181329680819181AC01B9
:1032B0004F5F5F4F51834083F901E80FF91F808111
:1032C0000F900F900F900F90DF91CF9108954F9234
:1032D0005F926F927F928F929F92AF92BF92CF92A6
:1032E000DF92EF92FF920F931F93CF93DF9300D063
:1032F00000D01F92CDB7DEB78C01DC01DA96ED91DC
:10330000FC91DB978081803809F0DAC1DC96ED9181
:10331000FC91DD978081813009F0D2C12801B2E4AF
:103320004B0E511CF20111821082C8010E944919F2
:10333000D2011D921C92D801DE96ED91FC91DF978F
:103340006081623C60F4603C08F05DC1603908F463
:1033500077C1603A58F0603B08F03BC171C1623CF4
:1033600009F45AC1603D08F459C16AC1823009F4B8
:1033700065C16F70613009F486C020F0623009F4D5
:10338000A8C05EC182E394E00E94D45E23E0E22EF6
:10339000F12C6801B6E5CB0ED11CF6018481958134
:1033A0000E94D33C5C0180E090E00E9431334C01EC
:1033B0008035910559F081E58816910424F0A1E04B
:1033C0008A1A910803C0BFEF8B1A9B0A60E070E075
:1033D000C4010E94863361E070E080E090E00E94CA
:1033E0005128E0E58E169104F1F6B501615F7F4F3B
:1033F000D60114968D919C9115970E94A73D64E685
:1034000070E080E090E00E94512880E090E00E940F
:1034100031334C018B3CBFEF9B0751F08C3C9F4FED
:1034200024F0F1E08F1A910803C08FEF881A980AF0
:1034300060E070E0C4010E94863361E070E080E0EB
:1034400090E00E945128ABEC8A16AFEF9A06E9F69D
:10345000B501F601848195810E94A73D6CE271E07F
:1034600080E090E00E94512860E070E080E090E011
:103470000E948633F1E0EF1AF10809F08ECFD201F5
:103480001D921C92DBC093E0E92EF12C64EC7FEFDF
:103490008CE390E00E94863364EF71E080E090E07E
:1034A0000E9451286CE370E084EC9FEF0E94863309
:1034B00064EF71E080E090E00E94512860E070E0ED
:1034C00080E090E00E948633B1E0EB1AF108F1F65B
:1034D000D6CF0E94357323E030E040E050E00E94F8
:1034E0006674613071058105910561F06230710586
:1034F0008105910551F0672B682B692B51F487E307
:1035000094E005C08CE394E002C081E494E00E9462
:10351000D45E0E94357323E030E040E050E00E942A
:1035200066747B0183E0682E712C6801E6E5CE0E9F
:10353000D11CD60118968D919C9119970E94D33C6D
:103540004C01F601868197810E94D33C5C01F1E039
:10355000EF16F10459F4B401615F7F4FD60118965C
:103560008D919C9119970E94A73D0BC0BC01615F92
:103570007F4FF601868197810E94A73DE114F104F7
:1035800051F766E970E080E090E00E945128F1E098
:10359000EF16F10449F4B401D60118968D919C916F
:1035A00019970E94A73D09C0B501F6018681978150
:1035B0000E94A73DE114F10471F766E970E080E034
:1035C00090E00E945128F1E06F1A710809F0B1CF24
:1035D00056CF823099F185E0EBE6F2E0DE011196FC
:1035E00001900D928A95E1F76F70E1E0F0E0EC0F49
:1035F000FD1FE60FF11D408150E060E070E0C80162
:103600000E9472621EC08230A1F48FEF98E00E9487
:103610002D2F8FEF98E00AC062E00CC0823049F491
:103620008AEE98E00E942D2F8AEE98E00E949D304D
:1036300005C06F70C8010E94606403C080E001C0D3
:1036400088EEF801E65BFF4F8083811139C0F801F5
:1036500086819781DC01ED91FC910084F185E02D5C
:103660000995892B69F0D80116968D919C91179731
:10367000DC01ED91FC910284F385E02D0995E7CF03
:10368000F801A4ADB5AD82AD93AD4C91DC016C9168
:10369000C8010F900F900F900F900F90DF91CF9176
:1036A0001F910F91FF90EF90DF90CF90BF90AF9060
:1036B0009F908F907F906F905F904F900C94E85800
:1036C000C8010F900F900F900F900F90DF91CF9146
:1036D0001F910F91FF90EF90DF90CF90BF90AF9030
:1036E0009F908F907F906F905F904F900C944202CC
:1036F000DC01ED91FC910190F081E02D09942F9275
:103700003F924F925F926F927F928F929F92AF9271
:10371000BF92CF92DF92EF92FF920F931F93CF93BE
:10372000DF93CDB7DEB7CE5AD1090FB6F894DEBF1E
:103730000FBECDBF8FE390E00E94B13A882309F419
:1037400058C02CE231E040E050E064EF71E084E0EA
:103750000E94D14620E230E240E050E060E070E0BC
:103760008FEF98E00E94772F8FEF98E00E949D30B6
:103770006CE271E080E090E00E9451288FEF98E0C9
:103780000E942D2F8FEF98E00E949D3001E020E6EF
:1037900030E040E050E068ED77E0CE0101960E9415
:1037A000176B80E690E0A0E0B0E0C955DF4F88835A
:1037B0009983AA83BB83C75AD0408EE094E0CB554F
:1037C000DF4F99838883C55AD04088ED97E0C5556F
:1037D000DF4F99838883CB5AD04041E061EBCE0123
:1037E0008B559F4F0E941E4CCE0101960E943E6950
:1037F000FBCF84E490E00E94B13A8823B1F12CE23F
:1038000031E040E050E068EE73E084E00E94D14691
:1038100020E030E240E050E061E070E08FEF98E0BF
:103820000E94772F8FEF98E00E949D308CE995E001
:103830000E943A45892B49F08CE995E00E94184591
:10384000BC0188ED97E00E94781B88ED97E00E940C
:103850003A45892B59F388ED97E00E941845BC0141
:103860008CE995E00E94781BE1CF85E798E00E9403
:103870006E5A892B09F06DC7E091AF08F091B0083E
:103880008081803759F5E091B108F091B2088081CC
:10389000803121F51092B8081092B70885E798E0BA
:1038A0000E944919182F85E798E00E944919F82EBF
:1038B0001330A1F42CE231E040E050E064EF71E01D
:1038C00084E00E94D14682E0F81609F406C1E3E0E4
:1038D000FE1609F47DC1F1E0FF1689F0E091AF0812
:1038E000F091B0088081803709F033C7E091B108CA
:1038F000F091B2088081823109F02BC710C228EC08
:1039000030E040E050E064EF71E084E00E94D14696
:1039100000E010E020E030E040E250E0BA018FEF3C
:1039200098E00E94E32F8FEF98E00E949D306CE2B8
:1039300071E080E090E00E9451288FEF98E00E94B3
:103940002D2F8FEF98E00E949D3020E630E040E080
:1039500050E068ED77E0CE0101960E94176B84E796
:1039600092E09A83898380E267968FAF67978CE8AD
:1039700093E069969FAF8EAF699789EF99E06B9658
:103980009FAF8EAF6B9782ED98E06D969FAF8EAF35
:103990006D978EED98E06F969FAF8EAF6F978AEB25
:1039A00098E0A1969FAF8EAFA19712E02B961FAF24
:1039B0002B9788ED97E00E94465CE5E1F4E0649186
:1039C0008AEE98E00E946B306CE070E08AEE98E03E
:1039D0000E9468319091F7088091F408F092F708FE
:1039E000F092F4081092F5081093F608F092EA08A5
:1039F0002091F2083091F308232B51F0981741F0F1
:103A00006091EC087091ED088AEE98E00E946831B0
:103A10008AEE98E00E94A0312D961FAE2D976796F2
:103A20008FAD67972E968FAF2E972F968FAF2F97CC
:103A30002F968DAD9EADAFAD2F9762968DAF9EAF99
:103A4000AFAF6297E12CF12C8091EC089091ED08DA
:103A5000E816F90690F42F960FAD2F972E962FADFE
:103A60002E972D964FAD2D97B7018AEE98E00E94C4
:103A70001A308FEFE81AF80AE7CF8AEE98E00E9432
:103A80009D3082E694E00E9486610AEB18E061E0D6
:103A9000C8010E94CD3C045F1F4FE8E00A3E1E07AC
:103AA000B1F78AEB98E00E94986182ED98E00E945D
:103AB000986181E00E942E5C61E084E00E94FF2614
:103AC00061E08DE10E94FF2660E08DE10E94CF263B
:103AD000CE0101960E943E69FBCF28EC30E040E029
:103AE00050E068EE73E084E00E94D14600E010E010
:103AF00020E030E040E250E260E070E08FEF98E0DC
:103B00000E94E32F8FEF98E00E949D306CE271E0FD
:103B100080E090E00E9451288FEF98E00E942D2FC6
:103B20008FEF98E00E949D3020E630E040E050E0CA
:103B300068ED77E0CE0101960E94176B8AE892E06B
:103B40009A8389830EED18E022ED38E04AEB58E0C5
:103B500069EF79E0CE018A5A9F4F0E94B643CD5556
:103B6000DF4F19821882C35AD0402B96FFAE2B9795
:103B700088ED97E00E94465C8FEF94E00E9486619A
:103B80000AEB18E061E0C8010E94CD3C045F1F4FC2
:103B9000F8E00A3E1F07B1F78EED98E00E949861A9
:103BA00082ED98E00E94986181E00E942E5C61E0C5
:103BB00084E00E94FF2661E08DE10E94FF2660E024
:103BC0008DE10E94CF26CE0101960E943E69FBCF77
:103BD00028EC30E040E050E06CED75E084E00E94BD
:103BE000D14600E010E020E030E040E050E260E24A
:103BF00070E08FEF98E00E94E32F8FEF98E00E9433
:103C00009D306CE271E080E090E00E9451288FEFDF
:103C100098E00E942D2F8FEF98E00E949D3020E6C3
:103C200030E040E050E068ED77E0CE0101960E9480
:103C3000176B89EA93E09A8389838CE993E068960D
:103C40009FAF8EAF689782E369968FAF699784E6DE
:103C500090E06B969FAF8EAF6B9782E390E06D968E
:103C60009FAF8EAF6D9789EF99E06F969FAF8EAF44
:103C70006F9784E0A0968FAFA097E1E2F4E0E49123
:103C8000A196EFAFA197E2E2F4E0E491A296EFAF44
:103C9000A297E9E1F4E0E491A396EFAFA397EAE1FC
:103CA000F4E0E491A496EFAFA497A5961FAEA59774
:103CB0002B96FFAE2B9788ED97E00E94465C0AEBAF
:103CC00018E061E0C8010E94CD3C045F1F4F88E00E
:103CD0000A3E1807B1F782ED98E00E94986162E011
:103CE000A1968FADA1970E94FF2662E0A2968FADAC
:103CF000A2970E94FF2662E0A3968FADA3970E9431
:103D0000FF2662E0A4968FADA4970E94FF2681E073
:103D10000E942E5CCE0101960E943E69FBCF10925C
:103D2000B8081092B70885E798E00E9449198230D8
:103D300009F0E9C028EC30E040E050E068EE73E0C4
:103D400084E00E94D14600E010E020E030E040E254
:103D500050E260E070E08FEF98E00E94E32F8FEF79
:103D600098E00E949D306CE271E080E090E00E945B
:103D700051288FEF98E00E942D2F8FEF98E00E943E
:103D80009D300EED18E022ED38E04AEB58E069EF87
:103D900079E0CE0101960E94B64387EC93E09A83C6
:103DA00089838AEB98E060969FAF8EAF609782ED33
:103DB00098E062969FAF8EAF629764961FAF0EAF8A
:103DC000649766961FAE1EAE66978AE2888780E289
:103DD00090E09C838B8340E060E070E08AEB98E0A9
:103DE0000E941C4E41E062E070E062968EAD9FAD95
:103DF00062970E941C4E41E063E070E064968EADD5
:103E00009FAD64970E941C4E80E00E942E5C88ED5E
:103E100097E00E94465C8B859C850E94775DC12C53
:103E2000D12C760194EF492E55245394612C712C9A
:103E300002E010E023E0A22EB12C88248394912C80
:103E40008FEFC81AD80AE80AF80AC701B601A30119
:103E500092010E949874672B682B692B09F047C068
:103E600066968EAD9FAD669781309105A9F01CF4E2
:103E7000892B39F03CC082309105E1F0039729F19C
:103E800036C0CE0101960E941043882381F16696C8
:103E90009FAE8EAE66972BC0CE0101960E94C341A5
:103EA000009719F00297F9F022C066961FAF0EAF87
:103EB00066971DC0CE0101960E942B418823B9F060
:103EC0006696BFAEAEAE669712C0CE0101960E9456
:103ED000F43F009741F08230910549F466969FAF18
:103EE0008EAF669704C066961FAE1EAE669785E7D6
:103EF00098E00E946E5A892B09F0A2CFCE0101965C
:103F00000E94495526C4833009F0D2C028EC30E025
:103F100040E050E06CED75E084E00E94D14600E0A6
:103F200010E020E030E040E050E260E270E08FEF2F
:103F300098E00E94E32F8FEF98E00E949D306CE2A2
:103F400071E080E090E00E9451288FEF98E00E949D
:103F50002D2F8FEF98E00E949D3082E38B8384E6C3
:103F600090E09D838C8382E390E09F838E8389EF32
:103F700099E09987888784E08A878FEC93E09A8319
:103F800089838AEB98E09C878B87E1E2F4E0E491F7
:103F9000ED87E2E2F4E0E491EE87E9E1F4E0E49118
:103FA000EF87EAE1F4E0E491E88B8AEE98E00E9482
:103FB000A03188ED97E00E94465C81E00E942E5C73
:103FC0008FEF98E00E94A03162E08D850E94FF266D
:103FD00062E08E850E94FF2662E08F850E94FF26A8
:103FE00062E088890E94FF26CE0101960E94BD51A1
:103FF000C12CD12C760184EF482E55245394612C8A
:10400000712CEFEFCE1ADE0AEE0AFE0AC701B601E6
:10401000A30192010E949874672B682B692BE1F52C
:104020008D850E94A626892B29F08E850E94A626C2
:10403000892B91F480E090E00E9431338C0181E083
:1040400090E00E9431335C010115110509F04BC36A
:10405000A114B10409F047C38F850E94A626892BBD
:1040600029F088890E94A626892B91F480E090E0AF
:104070000E9431338C0181E090E00E9431335C0179
:104080000115110509F04AC3A114B10409F046C392
:10409000CE0101960E94F64E85E798E00E946E5A86
:1040A000892B09F0AECFCE0101960E94305551C345
:1040B000813009F04EC328EC30E040E050E064EF7E
:1040C00071E084E00E94D14600E010E020E030E0A2
:1040D00040E250E0BA018FEF98E00E94E32F8FEFAB
:1040E00098E00E949D306CE271E080E090E00E94D8
:1040F00051288FEF98E00E942D2F8FEF98E00E94BB
:104100009D308FEB93E09A838983CE0103960E94C2
:104110008C58CE010D960E948C58CE0147960E9475
:104120008C588EED98E09AA389A38AEB98E09CA323
:104130008BA382ED98E09EA38DA3E1E2F4E0E491ED
:10414000F0E0F8A7EFA3EAE1F4E0E491F0E0FAA7E9
:10415000E9A78AE590E09CA78BA79EA78DA798ABBF
:104160008FA780E690E0A0E0B0E08BAB9CABADAB5E
:10417000BEAB8EE094E09AAB89AB88ED97E098AF48
:104180008FAB86E30E940228BC01990F880B990B24
:10419000611571058105910511F00E9439738FEF4A
:1041A00098E00E94A03188ED97E00E94465C82E68C
:1041B00094E00E9486618AEE98E00E94A03181E03E
:1041C0000E942E5C20E030E045E053E460916409F9
:1041D0007091650980916609909167090E94A873A2
:1041E00020E030E048EC52E40E94A8756093640936
:1041F000709365098093660990936709E09160095F
:10420000F091610988E78783E0916209F091630981
:10421000878380E197E2A0E0B0E08B839C83AD834D
:10422000BE8301E010E01C870B870E948B28CB80A7
:10423000DC80ED80FE80DC01CB018C0D9D1DAE1D70
:10424000BF1D8F839887A987BA8780ED97E0A0E08C
:10425000B0E08D879E87AF87B88B1E8B0D8B0E9439
:104260008B28CD84DE84EF84F888DC01CB018C0DB3
:104270009D1DAE1DBF1D898B9A8BAB8BBC8B88EBB4
:104280009BE0A0E0B0E08F8B988FA98FBA8F18A326
:104290000F8F0E948B280F89188D298D3A8DDC0194
:1042A000CB01800F911FA21FB31F8B8F9C8FAD8FEF
:1042B000BE8F60E08FA10E94FF2660E089A50E946A
:1042C000FF2640E063E070E089A19AA10E941C4EA5
:1042D00041E060E070E08BA19CA10E941C4E41E097
:1042E00062E070E08DA19EA10E941C4E8AEE98E0D3
:1042F0000E942D2F8AEE98E00E949D3060E170E0D0
:1043000089EF99E00E94C32E43E050E060E170E045
:1043100089EF99E00E94262E6AE570E08BA19CA1AE
:104320000E94A73D6AE570E089A19AA10E94A73D7D
:104330006EE670E08DA19EA10E94A73DC12CD12CFC
:104340007601A4EF8A2E99249394A12CB12CB3E08A
:104350004B2E512C612C712CEFEFCE1ADE0AEE0A97
:10436000FE0AC701B601A50194010E949874672B4B
:10437000682B692B09F0ABC140E060E170E089EF88
:1043800099E00E94EB2C84FFA2C180E090E021E044
:1043900030E0082E01C0220F0A94EAF724FF08C07B
:1043A000880F991FFC01E750F64F2184328406C024
:1043B00001968830910559F7212C312CF10181812A
:1043C000882309F4E0C0CE010D960E944458F10103
:1043D00082818D3228F464E670E08CE99FEF06C09C
:1043E000883338F06CE97FEF84E690E00E948633F2
:1043F00098C060E070E080E090E00E948633CE01DB
:1044000003960E946558882309F48BC0CE01039659
:104410000E9444580E943573A30192010E94667461
:10442000613071058105910561F06230710581058A
:10443000910579F0672B682B692B39F487E394E0B9
:1044400002C08CE394E00E94D45E0AEB18E098016D
:1044500003C086E494E0F7CF60E0C901C355DF4FA5
:104460002883CD5AD040C255DF4F3883CE5AD04032
:104470000E94CD3CC355DF4F2881CD5AD040C25554
:10448000DF4F3881CE5AD040245F3F4FF8E02A3EBC
:104490003F0711F70E943573A30192010E946674D1
:1044A0006130710581059105B9F0623071058105B2
:1044B000910501F1672B682B692B49F54FE060E30B
:1044C00070E380E090E00E94EB5E22E040E360E376
:1044D00080E00E944E5F1BC04EE160E070E0CB01C7
:1044E0000E94DF604EE160E370E380E090E00E94B4
:1044F000DF600DC060E38AEE98E00E94362F81E015
:104500000E9414616FEF8AEE98E00E94362F61E0FE
:10451000C8010E94CD3C045F1F4F88E00A3E180787
:10452000B1F78DA19EA10E94D33CF10123812D32D0
:1045300078F4823891050CF052C062E370E0621B9F
:1045400071097595679575956795680F791F16C000
:10455000283308F444C08B3591050CF440C030E09A
:10456000A9014253510957FF02C04D5F5F4F559556
:10457000479555954795BC01641B750B8DA19EA170
:104580000E94A73D2CC0CE010D960E94655888233D
:1045900001F180E090E00E943133892B01F56EE655
:1045A00070E08DA19EA10E94A73D41E050E060E136
:1045B00070E089EF99E00E94B833833328F06CE90A
:1045C0007FEF84E690E009C064E670E08CE99FEF3D
:1045D00004C060E070E080E090E00E948633CE018D
:1045E00047960E946558882309F471C0AE014B5567
:1045F0005F4F60E5CE01C1960E94A94CCB55DF4FBD
:104600008881C55AD0408B3008F461C0CE014796EE
:104610000E944458CE0103960E94445860E070E026
:1046200080E090E00E9486330E943573A3019201DE
:104630000E946674613071058105910561F06230F8
:1046400071058105910551F0672B682B692B51F499
:1046500087E394E005C08CE394E002C086E494E034
:104660000E94D45E89A19AA10E94D33C8C0160EA89
:1046700070E089A19AA10E94A73D6CE271E080E000
:1046800090E00E94512845E0242E312C66E970E02C
:1046900089A19AA10E94A73D64E670E080E090E0C5
:1046A0000E94512860EA70E089A19AA10E94A73D6A
:1046B00064E670E080E090E00E945128F1E02F1A5B
:1046C000310821F7B80189A19AA10E94A73D85E789
:1046D00098E00E946E5A892B09F03ECECE010196D9
:1046E0000E94745536C060EB7FEF80E590E00E9439
:1046F000863368EE73E080E090E00E9451288D855B
:104700000E94A626892BA9F38E850E94A626892BB6
:1047100081F3B501C8010E9486339ECC60E570E04C
:1047200080EB9FEF0E94863368EE73E080E090E0BC
:104730000E9451288F850E94A626892BA9F388897B
:104740000E94A626892B81F3B501C8010E948633F9
:104750009FCCC255DF4F0FB6F894DEBF0FBECDBF62
:10476000DF91CF911F910F91FF90EF90DF90CF904D
:10477000BF90AF909F908F907F906F905F904F9081
:104780003F902F90089590E0FC013197E231F105C0
:1047900008F04CC0E156FF4F0C94277780918000C1
:1047A0008F7703C0809180008F7D80938000089573
:1047B00080918000877FF9CF84B58F7702C084B560
:1047C0008F7D84BD08958091B0008F7703C0809164
:1047D000B0008F7D8093B0000895809190008F7716
:1047E00007C0809190008F7D03C080919000877FEB
:1047F0008093900008958091A0008F7707C08091EA
:10480000A0008F7D03C08091A000877F8093A000CF
:104810000895809120018F7707C0809120018F7DBE
:1048200003C080912001877F80932001089508951F
:104830000E948D79EF92FF921F93CF93DF931F9287
:10484000CDB7DEB7F82E162F9091BB09692F66956C
:104850008091B9099091BA0979830E945B3980915E
:10486000B9099091BA09DC01ED91FC910190F081B8
:10487000E02D6F2D09958091B9099091BA090E9498
:1048800048328091BB09682F669541E08091B90953
:104890009091BA090E94D461E12E7981F72E80911E
:1048A000B9099091BA09DC01ED91FC910084F18580
:1048B000E02D0995892B79F08091B9099091BA0979
:1048C000DC01ED91FC910284F385E02D0995F7015F
:1048D00081937F01E4CF81E090E00F90DF91CF9151
:1048E0001F91FF90EF9008951F93CF93DF931F9236
:1048F000CDB7DEB7182FBE016F5F7F4F80E60E94F5
:104900001A24009771F069816C7F612B698380E6BE
:104910000E94A56131E020E0892B09F430E0832F6B
:10492000922F0F90DF91CF911F9108951F93CF93F6
:10493000DF931F92CDB7DEB7182FAE014F5F5F4FE9
:1049400060E281EB99E00E94FB3A009781F0498197
:104950004F70412B498360E281EB99E00E94C13A9C
:1049600031E020E0892B09F430E0832F922F0F9063
:10497000DF91CF911F9108950F931F93CF93DF93F2
:1049800000D0CDB7DEB7009721F00197A1F527E061
:1049900001C026E0142F062F8091FE099091FF0997
:1049A000DC01ED91FC910480F581E02DAE014F5FBB
:1049B0005F4F622F2A8309952A8181111FC0898147
:1049C000982F9170901304C0829581708117A9F07F
:1049D000498100FB40F910FB44F949838091FE09AD
:1049E0009091FF09DC01ED91FC910680F781E02DAB
:1049F000622F099503C081EE01C080E00F900F90F7
:104A0000DF91CF911F910F910895CF92DF92EF9296
:104A1000FF920F931F93CF93DF9300D01F92CDB7D8
:104A2000DEB76C018B017A018091FE099091FF093C
:104A3000DC01ED91FC910480F581E02DAE014F5F2A
:104A40005F4F68E02B8309952B81C114D104D1F00D
:104A5000CA94CD2809F064C0B0E12B9F90011124C5
:104A600049814F70422B49838091FE099091FF0943
:104A7000DC01ED91FC910680F781E02D68E009955D
:104A800077E012C02F704981407F422B498380918B
:104A9000FE099091FF09DC01ED91FC910680F78100
:104AA000E02D68E0099576E08091FE099091FF097C
:104AB000DC01ED91FC910480F581E02DAE014E5FAB
:104AC0005F4F672F7B8309957B8181112CC08A8181
:104AD000282F2695277030E02017310739F482956A
:104AE0008695877090E08E159F05E1F00770802F06
:104AF000880F0A810171E294EE0C90EEE922082BF6
:104B0000402F4E294A838091FE099091FF09DC01D4
:104B1000ED91FC910680F781E02D672F099503C088
:104B200081EE01C080E00F900F900F90DF91CF9148
:104B30001F910F91FF90EF90DF90CF9008954F92CB
:104B40005F926F927F928F929F92AF92BF92CF921D
:104B5000DF92EF92FF92CF93DF93CDB7DEB72C9722
:104B60000FB6F894DEBF0FBECDBFBE016F5F7F4FA3
:104B70008CE0FB0111928A95E9F781EB99E00E94A4
:104B8000553B892BC9F569817A818B819C814D8048
:104B90005E806F80788489849A84AB84BC849B0116
:104BA000AC010E94E3766B017C01A3019201C30179
:104BB000B2010E94E376C60ED71EE81EF91EA501BB
:104BC0009401C501B4010E94E3766C0D7D1D8E1D1C
:104BD0009F1D0E9449730E948A760E941A76072EB2
:104BE000000C880B990B0E94497320E030E040E8EC
:104BF0005AE30E94A87303C060E070E0CB012C96DA
:104C00000FB6F894DEBF0FBECDBFDF91CF91FF90FE
:104C1000EF90DF90CF90BF90AF909F908F907F905C
:104C20006F905F904F9008957F928F929F92AF9276
:104C3000BF92CF92DF92EF92FF920F931F93CF9389
:104C4000DF9300D000D000D0CDB7DEB74C01FE011D
:104C5000319686E0DF011D928A95E9F78F0188E69B
:104C6000782EB801872D0E941A24892BC9F0B8012B
:104C70006F5F7F4F81E0870D0E941A24892B81F09E
:104C8000739473940E5F1F4FBEE67B12EACFA98028
:104C9000BA80CB80DC80ED80FE8080E090E002C0B6
:104CA00081E090E081309105E9F1B501BB0C880B02
:104CB000990B0E94497320E030E040EC5FE30E94D2
:104CC000A8730E941A76F4016083718382839383B0
:104CD000B601DD0C880B990B0E94497320E030E08F
:104CE00040EC5FE30E94A8730E941A76D4011496E8
:104CF0006D937D938D939C931797B701FF0C880B51
:104D0000990B0E94497320E030E040EC5FE30E9481
:104D1000A8730E941A76F40160877187828793874F
:104D200080E090E026960FB6F894DEBF0FBECDBFB0
:104D3000DF91CF911F910F91FF90EF90DF90CF9077
:104D4000BF90AF909F908F907F900895CF93DF9307
:104D5000282F30E0F901E85EFD4F8491F901E45518
:104D6000FD4FD491F901EE50FD4FC491CC2391F049
:104D700081110E94C323EC2FF0E0EE0FFF1FE25AD7
:104D8000FD4FA591B491EC91ED2381E090E021F4E9
:104D900080E002C080E090E0DF91CF9108951F9302
:104DA000CF93DF93282F30E0F901E85EFD4F849127
:104DB000F901E455FD4FD491F901EE50FD4FC49136
:104DC000CC23C9F0162F81110E94C323EC2FF0E0F1
:104DD000EE0FFF1FEE56FD4FA591B4918FB7F894DB
:104DE000111105C09C91ED2FE095E92302C0EC91D3
:104DF000ED2BEC938FBFDF91CF911F910895CF934F
:104E0000DF9390E0FC01E455FD4F2491FC01EE504E
:104E1000FD4F8491882361F190E0880F991FFC0178
:104E2000E858FD4FC591D491FC01EE56FD4FA59178
:104E3000B491611109C09FB7F894888120958223AD
:104E40008883EC912E230BC0623061F49FB7F894F5
:104E50003881822F809583238883EC912E2B2C938D
:104E60009FBF06C08FB7F894E8812E2B28838FBF91
:104E7000DF91CF9108951F93CF93DF93182FEB010C
:104E800061E00E94FF26209711F460E004C0CF3F4C
:104E9000D10539F461E0812FDF91CF911F910C94FE
:104EA000CF26E12FF0E0E85EFD4FE4914E2F50E079
:104EB000FA013197E231F10508F09BC0EF54FF4F42
:104EC0000C94277784B5806884BDC7BD97C084B52E
:104ED000806284BDC8BD92C080918000806880934C
:104EE0008000D0938900C093880088C080918000A2
:104EF000806280938000D0938B00C0938A007EC034
:104F000080918000886080938000D0938D00C09352
:104F10008C0074C08091B00080688093B000C09312
:104F2000B3006CC08091B00080628093B000C093E9
:104F3000B40064C080919000806880939000D0930A
:104F40009900C09398005AC080919000806280932D
:104F50009000D0939B00C0939A0050C08091900025
:104F6000886080939000D0939D00C0939C0046C0C1
:104F70008091A00080688093A0008091A0008F7B2A
:104F80008093A000D093A900C093A80037C080915F
:104F9000A00080628093A000D093AB00C093AA00D1
:104FA0002DC08091A00088608093A000D093AD00B8
:104FB000C093AC0023C080912001806880932001C1
:104FC000D0932901C093280119C0809120018062EB
:104FD00080932001D0932B01C0932A010FC08091B0
:104FE0002001886080932001D0932D01C0932C0173
:104FF00005C0C038D1050CF04DCF47CFDF91CF9120
:105000001F910895863308F0865390917B00282FD6
:105010002870977F922B90937B0087708064809399
:105020007C0080917A00806480937A0080917A007D
:1050300086FDFCCF809178002091790090E0922B42
:1050400008958230910538F0880F991F880F991FB5
:1050500005970197F1F708953FB7F89480915E04A2
:1050600090915F04A0916004B091610426B5A89B63
:1050700005C02F3F19F00196A11DB11D3FBFBA2FEA
:10508000A92F982F8827820F911DA11DB11DBC014A
:10509000CD0142E0660F771F881F991F4A95D1F70F
:1050A00008958F929F92AF92BF92CF92DF92EF922C
:1050B000FF926B017C010E942C284B015C01C11402
:1050C000D104E104F104F1F00E942C28DC01CB01B1
:1050D00088199909AA09BB09883E9340A105B10521
:1050E00070F321E0C21AD108E108F10888EE880EB9
:1050F00083E0981EA11CB11CC114D104E104F10489
:1051000019F7DDCFFF90EF90DF90CF90BF90AF9079
:105110009F908F9008952FB7F89460915A047091E2
:105120005B0480915C0490915D042FBF08951F92F1
:105130000F920FB60F9211242F933F938F939F934B
:10514000AF93BF9380915A0490915B04A0915C044B
:10515000B0915D043091590423E0230F2D3720F4E2
:105160000196A11DB11D05C026E8230F0296A11DC1
:10517000B11D2093590480935A0490935B04A0932B
:105180005C04B0935D0480915E0490915F04A091F3
:105190006004B09161040196A11DB11D80935E046D
:1051A00090935F04A0936004B0936104BF91AF91AA
:1051B0009F918F913F912F910F900FBE0F901F9055
:1051C00018951F920F920FB60F9211240BB60F92E3
:1051D0002F933F934F935F936F937F938F939F93FF
:1051E000AF93BF93EF93FF93E0910F02F091100202
:1051F0000995FF91EF91BF91AF919F918F917F9111
:105200006F915F914F913F912F910F900BBE0F9037
:105210000FBE0F901F9018951F920F920FB60F920E
:1052200011240BB60F922F933F934F935F936F937D
:105230007F938F939F93AF93BF93EF93FF93E091EF
:105240000D02F0910E020995FF91EF91BF91AF9180
:105250009F918F917F916F915F914F913F912F918E
:105260000F900BBE0F900FBE0F901F9018951F92BE
:105270000F920FB60F9211240BB60F922F933F93FC
:105280004F935F936F937F938F939F93AF93BF934E
:10529000EF93FF93E0910302F09104020995FF91CF
:1052A000EF91BF91AF919F918F917F916F915F919E
:1052B0004F913F912F910F900BBE0F900FBE0F900B
:1052C0001F9018951F920F920FB60F9211240BB6D4
:1052D0000F922F933F934F935F936F937F938F938F
:1052E0009F93AF93BF93EF93FF93E0910102F091EF
:1052F00002020995FF91EF91BF91AF919F918F911C
:105300007F916F915F914F913F912F910F900BBEC5
:105310000F900FBE0F901F9018951F920F920FB60F
:105320000F9211240BB60F922F933F934F935F93DD
:105330006F937F938F939F93AF93BF93EF93FF935D
:10534000E0910B02F0910C020995FF91EF91BF9152
:10535000AF919F918F917F916F915F914F913F910D
:105360002F910F900BBE0F900FBE0F901F901895AE
:105370001F920F920FB60F9211240BB60F922F931C
:105380003F934F935F936F937F938F939F93AF93CD
:10539000BF93EF93FF93E0910902F0910A02099500
:1053A000FF91EF91BF91AF919F918F917F916F91FD
:1053B0005F914F913F912F910F900BBE0F900FBEB9
:1053C0000F901F9018951F920F920FB60F921124F5
:1053D0000BB60F922F933F934F935F936F937F93EF
:1053E0008F939F93AF93BF93EF93FF93E091070247
:1053F000F09108020995FF91EF91BF91AF919F91B4
:105400008F917F916F915F914F913F912F910F906D
:105410000BBE0F900FBE0F901F9018951F920F920A
:105420000FB60F9211240BB60F922F933F934F9309
:105430005F936F937F938F939F93AF93BF93EF93FC
:10544000FF93E0910502F09106020995FF91EF911B
:10545000BF91AF919F918F917F916F915F914F918C
:105460003F912F910F900BBE0F900FBE0F901F908A
:105470001895883020F5482F50E0FA013197E73031
:10548000F10560F4ED53FF4F0C942777E8980DC0B9
:10549000E9980BC0EA9809C0EB9807C0EC9805C0E2
:1054A000ED9803C0EE9801C0EF98E82FF0E0EE0F02
:1054B000FF1FEF5FFD4F87E194E2918380830895A2
:1054C0001F920F920FB60F9211240BB60F922F93CB
:1054D0003F934F935F936F937F938F939F93AF937C
:1054E000BF93EF93FF938091510490915204A09148
:1054F0005304B0915404892B8A2B8B2B51F180914A
:105500005004E0914E04F0914F04908189278083EC
:105510008091510490915204A0915304B09154048D
:10552000181619061A061B06C4F4809151049091AE
:105530005204A0915304B09154040197A109B109F8
:105540008093510490935204A0935304B093540455
:1055500004C0809100020E948D46FF91EF91BF919F
:10556000AF919F918F917F916F915F914F913F91FB
:105570002F910F900BBE0F900FBE0F901F9018959C
:105580002F923F924F925F926F927F928F929F9253
:10559000AF92BF92CF92DF92EF92FF920F931F9341
:1055A000CF93DF93CDB7DEB762970FB6F894DEBF27
:1055B0000FBECDBF8C017B01242EDC0117968D918F
:1055C0009C911897009769F0A12CB12C97FD13C1FD
:1055D00003970CF010C1CC24C394D12CB5E09B2EC2
:1055E000CBC04801CC24C394D12CA12CB12C66246F
:1055F0006394712CF7E03F2EFE0131962F01C60116
:105600000197930102C0220F331F8A95E2F7C90167
:105610008E219F21892B09F48CC0D40119968D917C
:105620009C911A97892B09F484C0F8018581968191
:10563000D201E32D1D92EA95E9F7FFEFF9833A8253
:1056400022E12C833DEE3F83DC0112964C911297B0
:105650004B83CD8250E060E070E0475E5F4F6F4F5C
:105660007F4F4C0D511D611D711D41505F4F6F4F9C
:105670007F4F4E83ED91FC910284F385E02D47E04E
:10568000B20109959E01285F3F4FAE01415F5F4F18
:10569000BE016F5E7F4FF801858196810E94314D7A
:1056A0008111A9C029892A8BD80112968C912813BF
:1056B00035C02F853889C9010197A301082E02C082
:1056C000440F551F0A94E2F7B70164237523672B33
:1056D00029F1880F991FF801E80FF91FA185B285FC
:1056E0009C9188859817D1F021153105B9F02930A2
:1056F0003105A4F4FE013896832D01900D928A9510
:10570000E1F7CA0180959095E822F922A42AB52AEA
:105710002C153D0519F4222009F46DC0F801828191
:105720002A892813AFCF8F8598898C159D0509F09C
:10573000A9CF3FEFC31AD30A82E0880E911C99E0EB
:10574000C916D10409F05BCF56C09E01285F3F4FB8
:10575000AE01415F5F4FBE016F5E7F4FD80115966E
:105760008D919C9116970E94314D811144C0998969
:10577000F8018281981721F0E114F10431F73BC060
:105780002F853889F9013197C6010E2E02C0880F86
:10579000991F0A94E2F7A70148235923452B61F387
:1057A0002115310549F32930310534F7EE0FFF1F7C
:1057B000E00FF11FA185B2851097F1F229851196AE
:1057C0002C93A185B28528852C932985222351F01D
:1057D000A185B285FE013A961296292D01900D926F
:1057E0002A95E1F79C0120953095E222F322A82A20
:1057F000B92A2110C1CFC50162960FB6F894DEBF59
:105800000FBECDBFDF91CF911F910F91FF90EF9011
:10581000DF90CF90BF90AF909F908F907F906F90D0
:105820005F904F903F902F9008950F931F93CF93C9
:10583000DF93EC018CE193E0998388838D819E81D5
:10584000009739F0DC01ED91FC910280F381E02DAD
:1058500009958E01005F1F4F89859A85892B31F04C
:1058600087E090E00E9460789A8789872296C01727
:10587000D10791F7DF91CF911F910F9108957F92FA
:105880008F929F92AF92BF92CF92DF92EF92FF9250
:105890000F931F93CF93DF931F92CDB7DEB76C01A9
:1058A0005B01742E8C01E12CF12C88248394912CC3
:1058B000C4010E2C02C0880F991F0A94E2F78A21B6
:1058C0009B21892B09F453C0D60115968D919C918B
:1058D0001697DC01ED91FC910680F781E02D41E007
:1058E0004E0D60E2099581115DC0F60185819681BA
:1058F000DC01ED91FC910480F581E02DAE014F5F5C
:105900005F4F61E2099581114DC04981842F8170FB
:10591000871581F070FA40F94983F60185819681F7
:10592000DC01ED91FC910680F781E02D61E20995A3
:10593000811138C0772039F1D80119968D919C9149
:105940001A97892B61F487E090E00E946078F80153
:1059500092878187DC0111961C9211971C92898194
:1059600086958695837090E0F60190878783FFEF98
:10597000EF1AFF0A0E5F1F4F88E0E816F10409F0E6
:1059800097CF80E00FC0F80181859285892B39F38C
:1059900087E090E00E946078D8011A969C938E93DD
:1059A0001997DDCF0F90DF91CF911F910F91FF904D
:1059B000EF90DF90CF90BF90AF909F908F907F90AF
:1059C0000895CF93DF93EC010E94152CCE01DF9157
:1059D000CF910C94F5782F923F924F925F926F92F5
:1059E0007F928F929F92AF92BF92CF92DF92EF926F
:1059F000FF920F931F93CF93DF93CDB7DEB72E9710
:105A00000FB6F894DEBF0FBECDBF7C014B01DC01A9
:105A100013968D919C911497009709F4FAC0019701
:105A200009F0F7C0F70185819681DC01ED91FC91C9
:105A30000480F581E02DAE014F5F5F4F6FE1099566
:105A40008111E3C0F986E886A12CB12C612C712C60
:105A500041E04A0DE1E0F0E00A2C02C0EE0FFF1F2A
:105A60000A94E2F7FD87EC87CF0188219921892BE1
:105A700009F4BDC0A885B9851996ED91FC911A97D6
:105A8000309709F4B4C099818081981709F4AFC0A8
:105A900061E0C7014E870E94F94DF701058116812B
:105AA000D801ED91FC910284F385E02D4E8560E2F2
:105AB000C80109956111ABC0D801ED91FC9100843A
:105AC000F185E02DAE014E5F5F4F64E3C80109959B
:105AD00061119DC08A81882309F476C0D801ED91B7
