:100000000C9415020C946D5A0C94425A0C94175A85
:100010000C94EC590C94C1590C9496590C946B594E
:100020000C9440590C94F0230C94F0230C94F0237E
:100030000C943F020C94035B0C943F020C94C43369
:100040000C943F020C94F8240C943F020C943F0251
:100050000C943F020C943F020C943F020C94F6580F
:100060000C943F020C94EF5F0C94C55F0C943F021C
:100070000C943F020C943F020C943F020C943F02FC
:100080000C94CA240C943F020C943F020C943F023F
:100090000C949B5F0C94715F0C943F020C9441454F
:1000A0000C943F020C943F020C949C240C943F024D
:1000B0000C943F020C943F020C943F020C946E246B
:1000C0000C943F020C943F020C943F020C94475F47
:1000D0000C941D5F0C943F020C94F35E0C94C95E6B
:1000E0000C943F0274029F04F6072709ED09000CE7
:1000F000890C6C0D370E6C0E311331133113311323
:10010000311331131E120E082C0876089708E908DF
:10011000EF081009010A420AB40ADB0A090B3A0B7C
:100120006B0B980BAE0BCD0BFF10071114112711A1
:100130003A114D116011721184118C119411F3292F
:10014000CB29D329DB29E329FB29032A974C9A4C95
:10015000894C8D4C934CD14C9E4CA24CA84CAC4C31
:10016000B04CB64CBA4CBE4CD14CC44CC84CCC4C28
:10017000C54FCA4FCF4FD94FE34F5C50ED4FF54FAE
:10018000FD4F075011501B502A5034505C503E50C8
:1001900048505250AF5AA55AA75AA95AAB5AB15A09
:1001A000B35AB160BD60BA60C060B460B760BD6092
:1001B000BA60C06038627E62AF62F6626D63F461FD
:1001C0001C6463658365B165C6655B686168676863
:1001D0007B6881688E68C168E56848695C69716997
:1001E0009869CA69F9690C6A084AD73B3BCE016E27
:1001F00084BCBFFDC12F3D6C74319ABD56833DDA7E
:100200003D00C77F11BED9E4BB4C3E916BAAAABE8C
:10021000000000803F00051B3E2F2342262443168A
:1002200018412008250700000A0B02090C0D0E08D2
:1002300007030401000000000000000000000000AF
:1002400000000000000000000000000000000000AE
:10025000000012111000000000000000000000006B
:10026000000000000000000000000000020000206C
:10027000002300260029002C002F0032000001007E
:100280000003010601090100002100240027002AC3
:10029000002D003000330001010000040107010AB5
:1002A0000100002200250028002B002E0031003420
:1002B0000002010000050108010B010102102020CD
:1002C00008081020401020408002010201080402AA
:1002D0000101020408102040808040201008040220
:1002E0000180040201804020100804020108040279
:1002F000010102040810204080010204081020407F
:100300008005050505070508080808020202020A1B
:100310000A080804040404010101010101010103A8
:1003200003030303030303040707070C0C0C0C0C63
:100330000C0C0C0202020206060606060606060B56
:100340000B0B0B0B0B0B0B0C3911100B3A033B1562
:1003500014023C13120D3D0F0EC4000800C4000827
:1003600000DC001000C400100006011000F700209F
:1003700000C4000800C4000800DC001000C4001025
:10038000002601100006012000C4000800C4000877
:1003900000880110004A01100006011000F700104B
:1003A00000DC0010005D0108005D0108004A01103A
:1003B000000601100026011000060120004A010875
:1003C000004A0108004A0110004A0108004A0108D9
:1003D000004A0110004A0108008801080006010CCB
:1003E00000260104004A0120005D0108005D0108AB
:1003F000005D010C005D0104005D0108004A010878
:10040000004A0108004A0104004A0104004A0108A8
:100410000026010800260108000601080026011038
:100420000088011000000A6FCA6E11241FBECFEFB2
:10043000D1E2DEBFCDBF14E0A0E0B2E0E8EAF2EF27
:1004400000E00BBF02C007900D92AA3BB107D9F79D
:100450002AE0AAEBB4E001C01D92AA34B207E1F78A
:1004600012E0C4E1D2E004C02197FE010E94CC76E4
:10047000C331D107C9F70E94F06D0C9447790C94F1
:1004800000002F923F924F925F926F927F928F92D5
:100490009F92AF92BF92CF92DF92EF92FF920F9313
:1004A0001F93CF93DF93CDB7DEB7AD970FB6F89418
:1004B000DEBF0FBECDBF1C019C0120593F4F3A8FBC
:1004C000298FD9012D913C91D901EC918E2F90E08B
:1004D000FC01E057F109E131F10510F00C94311302
:1004E000EE58FF4F0C94CC764101B2E78B0E911C75
:1004F000D401ED91FC918081803109F4DEC160F579
:10050000813011F00C943113910128583F4F3E8FE8
:100510002D8FD9011D921C9287E4C82E83E0D82E1E
:10052000E12CF12C2C5F3F4F3C8F2B8F98EE492E06
:1005300093E0592E612C712C89E09AE03BE0380F52
:1005400039A3A10143575F4F5BA34AA391012457ED
:100550003F4F3DA32CA319C081010B571F4F813181
:1005600009F4C6C1803211F00C943113D101A558A1
:10057000BF4F81E08C9313971D921C92D8011C925F
:100580004081F90160810C942D13C1010E94C16A60
:10059000182F8983C1010E94C16A8A83103A09F029
:1005A000FBC0833081F1863009F4E4C0823009F069
:1005B00022C136E0E316F10419F48EEE96E00DC088
:1005C00041E0E416F10419F481E596E006C058E034
:1005D000E516F10421F484EB95E00E94A86EF60183
:1005E000649170E084E099E00E944D4184E099E0DC
:1005F0000E948E4284E099E00E94503784E099E0A6
:100600000E948B41F8C0F6E0EF16F10459F028E0A3
:10061000E216F10451F031E0E316F10459F481E5FA
:1006200096E005C08EEE96E002C084EB95E00E9455
:10063000D24CE1C0AB8DBC8D8D919C91892B09F082
:10064000DAC0F60131960491F60114918FE190E041
:100650000E9405785C01DC0113961C921E92129791
:10066000FC0144825582668277822FE132E0318339
:100670002083178A168A118E108E138E128E158E75
:10068000148E668D6E7F6D7F668F6695617081E0DA
:100690006827802F0E94324F61E0802F0E94624FB6
:1006A000202F30E0F901E554FD4FE491D50150963B
:1006B000EC93F901EF5FFC4FE491F0E0EE0FFF1FC8
:1006C000EF55FD4F85919491F501928B818B60E000
:1006D000812F0E94624FD5015E968C9181FD04C0EE
:1006E00061E0812F0E94324FF5011487812F90E045
:1006F000FC01E554FD4FE491D5011D96EC93FC01FE
:10070000EF5FFC4FE491F0E0EE0FFF1FE359FD4F68
:1007100025913491F50137872687C5010E94266D02
:100720008091870590918805AB8DBC8DA816B90680
:1007300091F00D911C910115110509F45CC02FE198
:1007400032E0F80131832083C8010E94F86CC801AF
:100750000E949A7850C08D919C919093070A809343
:10076000060A0E94266DE9E0FAE0119229A12E13F3
:10077000FCCF41C033E0E316F10429F481E0ACA1E1
:10078000BDA18C9338C0B5E0EB16F104A1F581E072
:10079000EAA1FBA180832FC09E012F5F3F4F59012B
:1007A000A701440F551F58A34F8F00E010E0D5015B
:1007B0009D915D01EF8DF8A1E00FF11FE95BFC4F0A
:1007C0008491933069F028F4913041F0923069F4CB
:1007D00009C0943039F0963041F404C062E003C09F
:1007E00060E001C061E00E94624F0130110519F024
:1007F00001E010E0DCCFBFEFEB1AFB0AE2E0CE0E27
:10080000D11CF9E0EF16F10409F0BFCE04ED18E0B9
:10081000C1010E94C16AF82EC1010E94C16A20EA8A
:10082000F2120BC0843049F461E0C8010E94E23941
:100830006AE570E0C8010E94BC3A045F1F4F39E0CE
:100840000430130729F7C1010E94C16A182FC101A2
:100850000E94C16A103A59F4853049F4F101E45715
:10086000FF4F408161E080E399E00E943948C10177
:100870000E94C16A182FC1010E94C16A103A59F43E
:10088000853049F4F101E357FF4F408160E087E58F
:1008900099E00E9439486FEF8AE199E00E94593748
:1008A0008AE199E00E9450378AE199E00E948B41E9
:1008B000AD8DBE8D1D921C9214C0F101E858FF4F02
:1008C0001182108263E0C1010E943668F101EC5789
:1008D000FF4F6081C1010E94366861E0C1010E9442
:1008E0003668F101EB57FF4F1082F4010C9424138A
:1008F0007101B8E7EB0EF11CF70111821082C10102
:100900000E94C16AC82EC1010E94C16AD82EC101CD
:100910000E94C16AF3E0CF1209C0F101EC57FF4F0A
:100920002081D21203C061E0813009F060E0D7017C
:100930001D921C92C1010E943668F801D5CF910129
:100940002E583F4F3C8F2B8FD901ED91FC91808128
:10095000843009F40DC148F4823009F482C008F0F3
:10096000CCC0813069F00C943113813A09F4ABC1E9
:10097000823A09F428C3853011F00C94311313C165
:100980005101B8E7AB0EB11CF50111821082C10113
:100990000E94C16A082FC1010E94C16A182FC101BB
:1009A0000E94C16A982EC1010E94C16A882EF1017D
:1009B000EC58FF4F0190F081E02D8081813049F0AB
:1009C000823029F4A4E0EA2EA9E0FA2E06C0D5016F
:1009D00070C0FAE1EF2EF9E0FF2E011111C0F7010E
:1009E0007280C12CD12CC714A8F4082D292D412FB9
:1009F000B601C7010E94FC40FFEFCF1ADF0AF3CF18
:100A0000602F70E061507109082D292D412FC70119
:100A10000E94FC4060E0C1010E948161C7010E9408
:100A20008B410E942752D7011F960D911D912D9148
:100A30003C915297DC01CB01801B910BA20BB30BB5
:100A40008C329140A105B10560F364E070E080E074
:100A500090E00E944C5261E0C1010E948161D50189
:100A60002FC17101B8E7EB0EF11CF7011182108262
:100A7000C1010E94C16AD82EC1010E94C16A182F0B
:100A8000C1010E94C16A282FC10129A70E94C16A21
:100A9000082FF101EC58FF4F0190F081E02D80818B
:100AA00029A5813049F0823019F484E099E006C02C
:100AB000D7011D921C9285C28AE199E0DD2041F0A8
:100AC0006D2D70E061507109412F0E94FC4010C0F3
:100AD000422F50E060E070E0762F652F542F4427BE
:100AE000612B402B00E010E020E030E00E949A37BC
:100AF000F7011182108280E073C2F101EC58FF4FC0
:100B00000190F081E02D8081813049F0823019F42C
:100B100004E019E006C0F101E858FF4F3BC00AE1CC
:100B200019E060E0C1010E948161C8010E948B410F
:100B30000E942752F801C784D088E188F288DC013E
:100B4000CB018C199D09AE09BF098C329140A105DA
:100B5000B10570F364E070E080E090E00E944C52D8
:100B600061E0C1010E948161F101E858FF4FC1CFEE
:100B7000F101EC58FF4F0190F081E02D808181015F
:100B800008581F4F813049F0823019F484E099E011
:100B900006C0F8011182108214C28AE199E00E9415
:100BA0005037D8018DC0F101E858FF4FFE8FED8F0F
:100BB0001182108234970190F081E02D8081813084
:100BC00041F0823009F0FDC154E0E52E59E0F52EE8
:100BD00004C04AE1E42E49E0F42EC1010E94C16A3A
:100BE000A82E10E028E0422E512C612C712CCC2430
:100BF000CA94D12C1A15E9F1C1010E94C16AB82E1C
:100C0000C1010E94C16A082FC1010E94C16A982EC9
:100C1000093038F00E94DA72A30192010E940B742D
:100C2000062F602F70E0FB01EE0FFF1FE60FF71F8E
:100C3000E35DFD4F828121813081899DC0011124B6
:100C4000B6010E94B876062F299DC0011124B60175
:100C50000E94B876262F399DC0011124B6010E944A
:100C6000B876462F6B2D70E0C7010E94FC401F5FD5
:100C7000C1CF60E0C1010E948161C7010E948B4128
:100C80000E942752D7011F960D911D912D913C91E5
:100C90005297DC01CB01801B910BA20BB30B8C3262
:100CA0009140A105B10560F364E070E080E090E060
:100CB0000E944C5261E0C1010E948161AD8DBE8DE8
:100CC0001D921C9218CFF101E858FF4FFE8FED8F57
:100CD00011821082C1010E94C16AB82EC1010E9416
:100CE000C16AF82EC1010E94C16AE82E4101F4E7F1
:100CF0008F0E911CD401ED91FC918081813041F0E7
:100D0000823009F05EC184E0C82E89E0D82E04C08C
:100D10000AE1C02E09E0D02EB8E0BF1548F40E94C9
:100D2000DA7228E030E040E050E00E940B74F62ECA
:100D30008F2D90E0B11037C0FC01EE0FFF1F8E0F1A
:100D40009F1FFC01E35DFD4FA280318180818E9D5C
:100D5000C0011124EFEFF0E0BF010E94B876262F0A
:100D60003E9DC0011124BF010E94B876462F50E07D
:100D700060E070E0762F652F542F4427DB01CA0115
:100D8000A22B8C019D01AE9CC0011124BF010E94C9
:100D9000B876D901C801862BAC01BD0100E010E096
:100DA00020E030E04BC0D6011296ED91FC911397F4
:100DB000DC01AA0FBB1F8A0F9B1FDC01A35DBD4F87
:100DC0001296AC90129711964C9111978C918F01BD
:100DD000169507956B2D70E061507109E69F9001A3
:100DE000E79F300DF69F300D1124369527958E9D87
:100DF000C0011124EFEFF0E0BF010E94B876762E1B
:100E00004E9DC0011124BF010E94B876462F50E0CC
:100E100060E070E0762F652F542F4427DB01CA0174
:100E2000A7292C013D01AE9CC0011124BF010E94E5
:100E3000B876D301C201862BAC01BD01C6010E9468
:100E40009A3760E0C1010E948161C6010E948B4116
:100E50000E942752D6011F960D911D912D913C9114
:100E60005297DC01CB01801B910BA20BB30B8C3290
:100E70009140A105B10560F364E070E080E090E08E
:100E80000E944C5261E0C1010E948161D401ED9148
:100E9000FC918081823009F091C0B1E0BB1609F469
:100EA00060C0BB1650F1E2E0BE1288C06F2D70E04A
:100EB000FB01EE0FFF1FE60FF71FE35DFD4F808183
:100EC000810107571F4F8E9DC00111242FEF30E085
:100ED000B9010E94B876D8016C9381810F5F1F4FD2
:100EE0008E9DC0011124B9010E94B876D8016C937F
:100EF0008281F101E557FF4F5AC06F2D70E0FB0171
:100F0000EE0FFF1FE60FF71FE35DFD4F80818E9D03
:100F1000C00111242FEF30E0B9010E94B876462FAE
:100F2000D101AA57BF4F6C9381818E9DC0011124BE
:100F3000B9010E94B876162FD101A957BF4F6C9303
:100F400082818E9DC0011124B9010E94B876F10101
:100F5000E857FF4F60833196408331961083319676
:100F60002CC06F2D70E0FB01EE0FFF1FE60FF71F87
:100F7000E35DFD4F808181010A571F4F8E9DC001A7
:100F800011242FEF30E0B9010E94B876D8016C939C
:100F900081810F5F1F4F8E9DC0011124B9010E94F6
:100FA000B876D8016C938281F101E857FF4F8E9D8E
:100FB000C0011124B9010E94B8766083ED8DFE8DC9
:100FC00098CD88EE0DC0F101E858FF4F11821082D4
:100FD000C1010E94C16A62E0680FC1010E94946170
:100FE000F101EB57FF4F80830C9420137101B2E79E
:100FF000EB0EF11CD701ED91FC91E0818E2F90E07A
:10100000FC013197E730F10510F00C943113ED57E6
:10101000FF4F810108581F4F0C94CC76F8011182C4
:101020001082C1010E941868F101EC58FF4F019035
:10103000F081E02D208130E0215031099CE0929F29
:10104000F001939FF00D1124EC52F74F082E000C85
:10105000990B96838583E0C0F80111821082C1014B
:101060000E94C16A482FC1014EA30E94C16A682F25
:101070006101F4E7CF0ED11CD601ED91FC912081E6
:1010800030E0215031095CE0529FC001539F900D28
:1010900011248C52974F68A70E94E8394EA168A589
:1010A000423031F0433049F0413009F079C00BC093
:1010B000680F653B40F064EB06C0681718F4861BA8
:1010C000682F01C060E070E0D601ED91FC912081B5
:1010D00030E0215031094CE0429FC001439F900D08
:1010E00011248C52974F0E94BC3A71C0F101EC5808
:1010F000FF4F0190F081E02D208130E02150310937
:101100004CE0429FC001439F900D11248C52974F99
:101110000E94E839F80111821082682FC1010E94F3
:101120003668F101EB57FF4F10820C941C12F80146
:1011300011821082C1010E94C16A582FC1015FA3B0
:101140000E94C16A682FC10168A70E94C16AB82EB7
:101150006101F4E7CF0ED11CD601ED91FC91208105
:1011600030E0215031094CE0429FC001439F900D77
:1011700011248C52974F0E94E8395FA168A5523024
:1011800029F0533041F0513059F40DC0680F653BE0
:1011900050F064EB08C0681728F4861B682F03C062
:1011A000F80180C660E04B2D50E070E0D601ED9173
:1011B000FC91208130E021503109ECE0E29FC00138
:1011C000E39F900D11248C52974F0E945F3AF801D3
:1011D00063C60E94CD2AF80111821082A2CFF801C5
:1011E00011821082C1010E94C16AA82E74EDC72E1F
:1011F00078E0D72EB12CBA1479F0C1010E94C16AEF
:10120000853B28F4682F70E0C6010E94BC3AB39475
:10121000FCE0CF0ED11CEFCFD8011D921C9281CFE4
:10122000F8011182108264E0C1010E94366804ED69
:1012300018E0C8010E94E839682FC1010E94366891
:10124000045F1F4FF9E004301F0799F76ACF81014F
:101250000E581F4FD801ED91FC918081F101EB57A1
:10126000FF4F7F018230A9F120F4813051F00C94BE
:101270003113833009F44BC0843009F494C00C94CA
:1012800031136101F8E7CF0ED11CD6011D921C92DB
:10129000C1010E941868682FF101EC58FF4F0190BE
:1012A000F081E02D8081813041F0823071F4062E92
:1012B000000C770B87E599E005C0062E000C770B34
:1012C00080E399E00E947147D5C3F6011182108234
:1012D000D6C3F101EC58FF4F0190F081E02D8081E1
:1012E000F101E858FF4F6F01813011F0823061F455
:1012F00080E399E00E94A23FF60111821082682FDC
:10130000C1010E940668DDC311821082DFC3610142
:10131000B8E7CB0ED11CF60111821082C1010E94E8
:10132000C16A282FC10129A70E94C16AF101EC58A6
:10133000FF4F0190F081E02D908129A5913041F07F
:10134000923009F09CC367E5862E69E0962E04C0B2
:1013500050E3852E59E0952EA82EB12CC40129A763
:101360000E94D03F29A52230A9F040F4222379F031
:10137000213009F084C3A80EB91E10C0233071F0CB
:10138000243009F07CC3B194A194B10807C0A12C0A
:10139000B12C04C09C012A193B095901B501C401B3
:1013A0000E94174767C3F101EC58FF4F0190F0818D
:1013B000E02D8081813019F0823009F060C380E334
:1013C00099E00E94D03FF101E858FF4F118210824E
:1013D000BC01C1010E94E06750C381010E581F4F3C
:1013E000D801ED91FC91E0818E2F90E0FC013197C6
:1013F000EA30F10510F00C943113E657FF4F0C94CE
:10140000CC767101B8E7EB0EF11CF7011182108266
:10141000C1010E94C16AF101EC58FF4F0190F081B7
:10142000E02D9081913051F524E630E0A901481B70
:101430005109CA01A0918409B0918509E0918609FA
:10144000F0918709181619065CF49A0135952795CD
:1014500094E6921B1A969C938C59821B8287E0C259
:101460009195819591099C013595279594E6920F68
:101470001A969C93281B2C592287D2C2F7011182FD
:101480001082D3C26101B8E7CB0ED11CF6011182E4
:101490001082C1010E94C16A382FC10138A70E9481
:1014A000C16AA82EB12CC1010E94C16A282FC101B6
:1014B00029A70E94C16AE82EF12C8091840990919D
:1014C00085090E94A23F38A529A53230A9F040F431
:1014D000332379F0313009F0A8C2A80EB91E10C02C
:1014E000333071F0343009F0A0C2B194A194B10846
:1014F00007C0A12CB12C04C0AC014A195B095A01E8
:10150000809184099091850929A70E94A23F29A56D
:101510002230A9F040F4222379F0213009F085C26D
:10152000E80EF91E10C0233071F0243009F07DC29E
:10153000F194E194F10807C0E12CF12C04C0DC0126
:10154000AE19BF097D01F101EC58FF4F0190F08108
:10155000E02D8081813031F4B701C5010E94A029BE
:10156000F601F9C0D60129C2F101EC58FF4F0190F4
:10157000F081E02D8081813009F057C2809184098B
:10158000909185090E94A23F682F809186099091D1
:10159000870968A70E94A23FF82EF101E858FF4F83
:1015A0001182108268A5C1010E9406686F2DC101D9
:1015B0000E94066838C27101B8E7EB0EF11CF70112
:1015C00011821082C1010E94B2676C01C1010E94A8
:1015D000C16AF101EC58FF4F0190F081E02D90813C
:1015E000913009F022C2A60160E070E090E00E9414
:1015F000286180E090E00E941661892B11F40C9420
:101600004F1381E090E00E941661892B91F70C94B2
:101610004F137101B8E7EB0EF11CF7011182108234
:10162000C1010E94B2676C01C1010E94C16AF1014F
:10163000EC58FF4F0190F081E02D9081913009F03E
:10164000F4C1A60160E070E090E091958195910968
:101650000E94286180E090E00E941661892B11F4BD
:101660000C94571381E090E00E941661892B91F74A
:101670000C9457137101B8E7EB0EF11CF7011182BE
:101680001082C1010E94B2676C01C1010E94C16A4F
:10169000F101EC58FF4F0190F081E02D90819130E5
:1016A00009F0C3C1282F30E088279927821B930BAC
:1016B00029F0A60160E070E00E94C56080E090E043
:1016C0000E941661892BD1F781E090E00E9416619B
:1016D000892BA1F7E4C77101B8E7EB0EF11CF70104
:1016E00011821082C1010E94B2676C01C1010E9487
:1016F000C16AF101EC58FF4F0190F081E02D90811B
:10170000913009F092C190E0009729F0A60160E0C5
:1017100070E00E94C56080E090E00E941661892B15
:10172000D1F781E090E00E941661892BA1F7BFC735
:10173000F101EC58FF4F0190F081E02D8081813064
:1017400009F073C160E070E080E090E00E9480608A
:10175000F101E858FF4F1182108265C17101B8E7AD
:10176000EB0EF11CF70111821082C1010E94C16AC7
:10177000F101EC58FF4F0190F081E02D9081913004
:1017800009F053C1E0918409F09185098387E091C4
:101790008609F0918709838743C17101B8E7EB0E91
:1017A000F11CF70111821082C1010E94C16AF1018E
:1017B000EC58FF4F0190F081E02D9081913009F0BD
:1017C00034C1682F70E080E090E00E94EE722091BA
:1017D00088093091890940918A0950918B090E94AA
:1017E0004D7320E030E048EC52E40E944D75609368
:1017F00088097093890980938A0990938B0910C195
:1018000081010E581F4FD801ED91FC918081F101AB
:10181000EB57FF4F7F01823009F454C0833009F445
:1018200068C0813009F01DC76101F8E7CF0ED11CF7
:10183000D6011D921C92C1010E94C16AA82EC1014D
:101840000E94C16AB82EF101EC58FF4F0190F0815F
:10185000E02D8081813009F039C1AA2071F0EA2D94
:10186000F0E0EE0FFF1FE35BFD4F6081718120E030
:1018700030E0A90184E00E94635BEB2DF0E0EB5BBC
:10188000FD4F208130E0A0E6BAEE0E945F74E4E0F4
:101890009695879577956795EA95D1F7F101E25787
:1018A000FF4F2081318140E050E00E943D74CA0129
:1018B000B9010E944C5284E00E94BF5AF601118285
:1018C0001082FFC06101B8E7CB0ED11CF601118276
:1018D0001082C1010E94B267D6011D921C92482F4E
:1018E00050E060E070E0C1010E944868F701808329
:1018F000F0C06101B8E7CB0ED11CF6011182108255
:10190000C1010E94B267F101E257FF4F91838083CA
:10191000AAC181010E581F4FD801ED91FC91808121
:10192000823009F44DC0A8F4813009F09AC67101E3
:10193000F8E7EF0EF11CD7011D921C92FE013D96B7
:10194000AE014F5E5F4FCF016101B6E7CB0ED11CF8
:101950000BC0F101EB57FF4F7F01833009F46AC0E0
:10196000843009F48EC07DC6D6016D917C91D7017B
:101970002D913C915901BFEFAB1ABB0AD701AD9233
:10198000BC92DB01A20FB31F8C90912CA12CB12C27
:1019900089829A82AB82BC828192E417F50721F793
:1019A000F101EC58FF4F0190F081E02D20812130B2
:1019B00019F40E94F72C79C6D7011D921C9235C0EC
:1019C0007101B8E7EB0EF11CF70111821082C10121
:1019D0000E94C16AF101EC58FF4F0190F081E02DA7
:1019E0009081913011F5813049F030F0823041F032
:1019F0008330D9F48DEA05C08BEA03C08AEA01C0BE
:101A00008CEA8093090A81E00E94492C0E94C82B2D
:101A10008BEA8093090A81E00E94492C0E94C82B1E
:101A2000D7011D921C9280E001C088EEF101EB57B6
:101A3000FF4F5DCF6101B8E7CB0ED11CF6011182DB
:101A40001082C1010E94C16AF101EC58FF4F019060
:101A5000F081E02D9081913091F49EEA9093090AF3
:101A6000803208F08FE180930A0A82E00E94492CBC
:101A70000E94C82BD6011D921C9280E037CF88EEC1
:101A800035CF6101B8E7CB0ED11CF601118210826F
:101A9000C1010E94C16AF101EC58FF4F0190F08131
:101AA000E02D9081913079F49FEA9093090A809318
:101AB0000A0A82E00E94492C0E94C82BD6011D927E
:101AC0001C9280E004C0F6011182108288EED701DA
:101AD0008C938111C6C5FEC081010E581F4FD801DD
:101AE000ED91FC918081F101EB57FF4F7F01823036
:101AF00009F469C018F4813059F1B3C5833009F491
:101B000090C0843009F0ADC56101B8E7CB0ED11C9F
:101B1000F60111821082C1010E94C16AF101EC58E4
:101B2000FF4F0190F081E02DE081F0E03197EE0F62
:101B3000FF1FE80FF11DE95BFC4F84910E94655087
:101B4000D6011D921C92BC01C1010E948C6767C026
:101B50006101F8E7CF0ED11CD6011D921C92C10184
:101B60000E94C16A682FC10168A70E94C16AB82E8D
:101B700068A5623078F4F101EC58FF4F0190F081D4
:101B8000E02DE081F0E0EE0FFF1FEB5BFC4F849156
:101B90000E94324FB1E0BB1580F0F101EC58FF4FCD
:101BA0000190F081E02DE081F0E0EE0FFF1FEA5B95
:101BB000FC4F84916B2D0E94324FF60111821082EE
:101BC000D7011C9287C06101B4E7CB0ED11CD601AE
:101BD000ED91FC91E081F0E0EE0FFF1FEB5BFC4F1D
:101BE00084910E94094F682FD601ED91FC91E0810C
:101BF000F0E0EE0FFF1FEA5BFC4F849168A70E94A4
:101C0000094FD82EF101E858FF4F1182108268A5C4
:101C1000C1010E9436686D2DC1010E943668F7012E
:101C200058C06101B8E7CB0ED11CF60111821082B9
:101C3000C1010E94C16AB82EC1010E94B267BC01F5
:101C4000F101EC58FF4F0190F081E02DE081F0E0D0
:101C50003197EE0FFF1FEB0DF11DE95BFC4F8491F7
:101C600077270E949E4FD6011D921C92D8CF8101EA
:101C70000E581F4FD801ED91FC918081813009F001
:101C8000F0C47101B8E7EB0EF11CF701118210826C
:101C900034970190F081E02D8081813019F08230FD
:101CA00041F002C08FE306C08FE30E94094F892BE9
:101CB00031F484E40E94094F61E0892B09F060E06F
:101CC000D7011D921C92C1010E943668F101EB57A9
:101CD000FF4F1082F801B8C47101B2E7EB0EF11C9E
:101CE000D701ED91FC918081833009F4EBC130F490
:101CF000813089F0823009F4D8C0B3C4F101EB57C8
:101D0000FF4F6F01853009F466C208F421C28630A6
:101D100009F423C3A6C4F101EC58FF4F0190F081F0
:101D2000E02D8081813009F0BAC00E9486524B01BB
:101D30005C019E012F5F3F4F69018CE0D9011D922C
:101D40008A95E9F7B2E04B2E512C612C712CC6011B
:101D50000E949551892B09F09CC000EE19E0E8EF34
:101D6000F9E0FE8FED8FDC8ECB8EEB8DFC8D8081CC
:101D70009181A281B381F801448155816681778187
:101D8000481759076A077B0744F484839583A68321
:101D9000B7830E9486524B015C01EB8DFC8D8191D3
:101DA0009191A191B191FC8FEB8FF801408151810C
:101DB0006281738184179507A607B70744F480836F
:101DC0009183A283B3830E9486524B015C01D801A8
:101DD0002D913D914D915C91139714968D919D910C
:101DE0000D90BC91A02D280F391F4A1F5B1FCA01FF
:101DF000B901A30192010E940B74ED8DFE8D219318
:101E0000319341935193FE8FED8F0E948652DC01F6
:101E1000CB0188199909AA09BB09893B9B40A105F7
:101E2000B10578F18091F8099091F909A091FA092A
:101E3000B091FB09B095A095909581959F4FAF4FBC
:101E4000BF4F8093F8099093F909A093FA09B093D2
:101E5000FB098091000A9091010AA091020AB091B9
:101E6000030AB095A095909581959F4FAF4FBF4FB6
:101E70008093000A9093010AA093020AB093030A88
:101E800008C0085F1F4F29E0083F120709F06DCF17
:101E90005ECFF101E858FF4F1182108254C1F10169
:101EA000E858FF4F1182108246C1810108581F4F28
:101EB000F8011182108234970190F081E02D808129
:101EC000813009F038C1BE01635F7F4F8CE0DB01D8
:101ED0001D928A95E9F785ED99E00E946A38892B71
:101EE00009F0E7C049895A896B897C898D849E8471
:101EF000AF84B888DB01CA0177FF07C0882799271C
:101F0000DC01841B950BA60BB70B4D885E886F8890
:101F1000788C77FE08C07094609450944094411C73
:101F2000511C611C711C84159505A605B70514F498
:101F3000D301C20124013501B7FE07C04424552452
:101F40003201481859086A087B0884159505A605CA
:101F5000B70514F4D301C20188159905AA05BB057C
:101F600059F0C12CD12C84179507A607B70739F073
:101F700088248394912C06C0CC24C394D12CE2E015
:101F80008E2E912CFE0131965F018CE0DF011D92B7
:101F90008A95E9F7CF010E949551892B09F089C0F4
:101FA00089819A81AB81BC81B095A09590958195EE
:101FB0009F4FAF4FBF4F89839A83AB83BC83898583
:101FC0009A85AB85BC85B095A095909581959F4FDE
:101FD000AF4FBF4F89879A87AB87BC87D401AA0FC1
:101FE000BB1FAA0FBB1FAA0DBB1DF401EE0FFF1FE5
:101FF000EE0FFF1FE850F64F8D919D910D90BC9113
:10200000A02D4080518062807380BC01CD01641995
:102010007509860997090E94EE729B01AC01C60101
:10202000880F991F880F991FD501A80FB91FF601B6
:102030007B96EE0FFF1FEE0FFF1FE457F64F8D91BB
:102040009D910D90BC91A02D80809180A280B38045
:10205000BC01CD01681979098A099B0929A738A70C
:102060004EA35FA30E94EE7229A538A54EA15FA1E1
:102070000E94EE7421EE3EE245E652E40E944D736A
:1020800020E030E040E05FE30E946F740E94BF7583
:1020900077FF11C0072E000C880B990B0E94EE727F
:1020A00020E030E044EB53E40E946F740E94BF755F
:1020B00002C06FEF7FEFF80111821082C1010E9410
:1020C0008C6741C0810108581F4FF80111821082AE
:1020D000C1010E94C16AD82EF101EC58FF4F019056
:1020E000F081E02D8081813019F58FEF8D0D8330E7
:1020F000A0F4BE016F5F7F4F85ED99E00E946A38C2
:10210000E1E0F0E0EC0FFD1F24E0D29EE00DF11DB8
:10211000112434976081718110C00E945A4E20E0D2
:1021200030E040E854E40E944D730E94BF7505C042
:10213000D8011D921C9288EE07C0F801118210820E
:10214000C1010E94E06780E0F101EB57FF4F41C001
:10215000810108581F4FF8011182108234970190B5
:10216000F081E02D8081813091F5AE014F5F5F4FAE
:102170006CE085ED99E00E941038AE014E5F5F4F34
:102180006DE085ED99E00E9410386A8170E0762F4D
:1021900066278981682BD8011D921C92072E000C9E
:1021A000880B990B0E94EE7220E030E040E85BE380
:1021B0000E944D7320E030E048EC51E40E946F74BF
:1021C0000E94BF75C1010E94E06780E001C088EEF7
:1021D000F60180832FC15101B8E7AB0EB11CF501A8
:1021E00011821082C1010E94C16A90E08B3091057A
:1021F00008F0A7C0FC01EC56FF4F0C94CC760E946F
:102200005A4E11E020E030E040EC5FE394C00E94C1
:102210005A4E2DEC3CEC4CEC5DE30E94E772182F1B
:10222000111F1127111F91C0BE016F5F7F4F85EDF8
:1022300099E00E946A3811E089819A81AB81BC8162
:102240008D3B9240A105B1050CF07FC078C0BE0166
:102250006F5F7F4F85ED99E00E946A3811E08981B8
:102260009A81AB81BC8184349D4FAF4FBF4F0CF43A
:102270006CC065C0BE016F5F7F4F85ED99E00E9425
:102280006A3811E08D819E81AF81B8858D3B924087
:10229000A105B1050CF059C052C0BE016F5F7F4F60
:1022A00085ED99E00E946A3811E08D819E81AF81B1
:1022B000B88584349D4FAF4FBF4F0CF446C03FC02C
:1022C000BE016F5F7F4F85ED99E00E946A3811E093
:1022D00089859A85AB85BC858D3B9240A105B1056A
:1022E000A4F52DC0BE016F5F7F4F85ED99E00E9480
:1022F0006A3811E089859A85AB85BC8584349D4F09
:10230000AF4FBF4F14F11BC00E945A4E11E020E0A6
:1023100030E040E450E40FC00E945A4E11E020E04B
:1023200030E040EC50E407C00E945A4E11E020E03B
:1023300030E040E051E40E941C76181634F010E0C2
:1023400004C0D5011D921C9272C0F5011182108249
:10235000612FC1010E94366865C0810108581F4F76
:10236000F80111821082C1010E94C16A782EF1E049
:10237000F81708F459C0BE016F5F7F4F8CE0DB0196
:102380001D928A95E9F785ED99E00E946A38892BBC
:1023900009F040C089859A85AB85BC859C01AD015B
:1023A00066277727CB01621B730B840B950B0E946A
:1023B000EE724B015C0189819A81AB81BC819C01E9
:1023C000AD0166277727CB01621B730B840B950B3E
:1023D0000E94EE72A50194010E94EE7431E0731226
:1023E0000AC06D817E818F8198850E94EE72A50161
:1023F00094010E94EE7421EE3EE245E652E40E9412
:102400004D7320E030E040E05FE30E946F740E9473
:10241000BF7502C06FEF7FEFD8011D921C92C10102
:102420000E94E06780E004C0F8011182108288EE0B
:10243000D6018C93811115C1F70106C1F101EE5847
:10244000FF4FFC8FEB8F0190F081E02D8081910197
:102450002B573F4F3E8F2D8F813019F0833031F055
:1024600000C188EEAD8DBE8D8C93FBC06101B8E7D5
:10247000CB0ED11CF60111821082C1010E94B267FD
:102480008C01C1010E94B267F101EC58FF4F01902D
:10249000F081E02D2081213009F0CBC09C018536F0
:1024A000910510F024E630E0A8010936114010F043
:1024B00048E651E02A01612C712C4901A12CB12C74
:1024C0004A355105E0F44FEF429FC001439F900D04
:1024D000112464E670E00E94B8768B01A2E0BEEFA2
:1024E000A30192010E9438742AE530E040E050E0F8
:1024F0000E940B7421503F4F4F4F5F4F47C0443BEA
:10250000510508F541E0429FC001439F900D921B89
:10251000112464E670E00E94B8767B01A301920169
:102520002A55310941095109A2E0BEEF0E943874D1
:102530002AE530E040E050E00E940B7421503F4F0C
:102540004F4F5F4F4EC04E30514060F541E0429FCB
:10255000C001439F900D921B112464E670E00E941D
:10256000B8768B01A3019201245B3109410951091D
:10257000AEEFB1E00E942A742AE530E040E050E07E
:102580000E940B742F5F310941095109C501B40143
:102590000E94887624E630E040E050E00E940B7410
:1025A00079012AC04FEF429FC001439F900D112433
:1025B00064E670E00E94B8767B01A30192012E5080
:1025C000314041095109AEEFB1E00E942A742AE579
:1025D00030E040E050E00E940B742F5F3109410968
:1025E0005109C501B4010E94887624E630E040E03C
:1025F00050E00E940B748901B701C8010E948060FD
:1026000081E0F101EE57FF4F80830E948652F10175
:10261000E258FF4FDC01CB018856954CAF4FBF4FBE
:1026200080839183A283B383D6011D921C9280E0A4
:1026300004C0F6011182108288EEAD8DBE8D8C93A0
:1026400081110FC0EB8DFC8DA081B181E98DFA8DD8
:10265000808191814C91DC016C91C1010E942167C4
:102660002DC0F101EB57FF4F80813B97908199235B
:1026700029F1B101605C7F4F21E030E0FB01318343
:102680002083BA960190F081E02D8083D101ED91F5
:10269000FC910680F781E02DC10109950FC064E629
:1026A00070E080E090E00E944C52F70154C864E66C
:1026B00070E080E090E00E944C52B2C9AD960FB637
:1026C000F894DEBF0FBECDBFDF91CF911F910F9168
:1026D000FF90EF90DF90CF90BF90AF909F908F9042
:1026E0007F906F905F904F903F902F900895DC0106
:1026F000ED91FC910190F081E02D09942F923F9291
:102700004F925F926F927F928F929F92AF92BF9201
:10271000CF92DF92EF92FF920F931F93CF93DF93AD
:10272000CDB7DEB7C256D1400FB6F894DEBF0FBEAC
:10273000CDBF4AE664EB75E0CE0101960E94B63645
:1027400084EB95E021969FAF8EAF219783E694E0CE
:102750009A8389838FE694E09EAF8DAFAE014D5B87
:102760005F4FAD965FAF4EAFAD979E012C5B3F4F75
:10277000AF963FAF2EAFAF97CE018B5B9F4FE196E9
:102780009FAF8EAFE197E3965FAF4EAFE397E596CD
:102790003FAF2EAFE597E7969FAF8EAFE7970196D5
:1027A000E9969FAF8EAFE997EB961FAE1EAEEB9703
:1027B00081E0EC968FAFEC9722242394312CB4EF78
:1027C0004B2E55245394612C712C80EE90E08C0F8D
:1027D0009D1F4696C35ADE4F99838883CD55D140BD
:1027E0001AEE01E08091BA04811117C00093BA0477
:1027F000EC968FADEC97882381F023963FAE2EAEFA
:102800002397AD96EEADFFADAD971083BE016F5B24
:102810007F4FCE0101960E94546A8FE390E00E94A0
:102820007346811153C084E490E00E94734688236C
:10283000D1F02CE231E040E050E068EE73E084E05B
:102840000E94635B20E030E240E050E061E070E035
:102850008AE199E00E9490408AE199E00E948B41D0
:10286000F2E0FF2E34C7CE0101960E945567892BF6
:1028700009F0B8CFE396EEADFFADE39780818037E6
:1028800009F062C0E596EEADFFADE597F080B0E1EE
:10289000FB125AC0EB961FAE1EAEEB97CE0101960F
:1028A0000E94C16AE82ECE0101960E94C16AA3E08F
:1028B000EA124AC0823011F40C94C51D08F4DCC63B
:1028C000833011F40C94ED1D8031F1F52CE231E0F0
:1028D00040E050E064EF71E084E00E94635B20E23E
:1028E00030E240E050E060E070E08AE199E00E9470
:1028F00090408AE199E00E948B416CE271E080E0B7
:1029000090E00E944C528AE199E00E9450378AE19F
:1029100099E00E948B41FE01E052FF4F8AE2DF0105
:102920001D928A95E9F783E090E09183808381E0AE
:10293000828391EB93838483BF01CE0101960E9431
:10294000546A60E2F62EC3C6E396EEADFFADE397A0
:102950008081803709F046CFE596EEADFFADE59773
:102960008081823109F03ECFEB961FAE1EAEEB9711
:10297000CE0101960E94C16A823009F453C48330AB
:1029800009F45EC5813009F02DCF28EC30E040E03D
:1029900050E064EF71E084E00E94635B00E010E0CF
:1029A00020E030E040E250E0BA018AE199E00E9484
:1029B0009A378AE199E00E948B416CE271E080E0F5
:1029C00090E00E944C528AE199E00E9450378AE1DF
:1029D00099E00E948B41CE0180529F4F24E932E062
:1029E000FC0121933193CF010E946E2580EE90E08F
:1029F0008C0F9D1F0C960E946E2580EE90E08C0F30
:102A00009D1F46960E946E2588EF98E0C050DF4FCC
:102A100099838883C050D14084ED98E0CE5FDE4F2B
:102A200099838883C250D1408CEE98E0CC5FDE4F12
:102A300099838883C450D140E3E5F3E0E491F0E06A
:102A4000CA5FDE4FF983E883C650D140ECE4F3E07F
:102A5000E491F0E0C85FDE4FF983E883C850D140CD
:102A60008AE590E0C65FDE4F99838883CA50D140E3
:102A7000C45FDE4F99838883CC50D140C25FDE4F64
:102A800099838883CE50D1408AE093E0C05FDE4FC7
:102A900099838883C051D140CE5EDE4F188219825F
:102AA0001A821B82C251D14040E664EB75E080EE91
:102AB00090E08C0F9D1FC6960E94B63684EB95E081
:102AC000CC5ADE4F99838883C455D14084EE92E07E
:102AD000C05FDE4F99838883C051D14080EF92E080
:102AE000CA5EDE4F99838883C651D1408CEF92E055
:102AF000CE5ADE4F99838883C255D14080E690E05C
:102B0000A0E0B0E0CE5EDE4F88839983AA83BB83CA
:102B1000C251D14086E30E946550BC01990F880BD9
:102B2000990B611571058105910511F00E94DE7206
:102B30008AE199E00E948E4284EB95E00E94232A6C
:102B400081E596E00E94D24C84E099E00E948E429A
:102B500081E00E940B2A20E030E045E053E46091E0
:102B600088097091890980918A0990918B090E9446
:102B70004D7320E030E048EC52E40E944D756093C4
:102B800088097093890980938A0990938B09E09151
:102B90008409F091850988E78387E0918609F0919F
:102BA0008709838780E197E2A0E0B0E0CE51DF4F54
:102BB00088839983AA83BB83C25ED040C651DF4F0E
:102BC00039822882CA5ED0400E948652CE51DF4FA1
:102BD000088119812A813B81C25ED040DC01CB0192
:102BE000800F911FA21FB31FCA51DF4F88839983A3
:102BF000AA83BB83C65ED04080ED97E0A0E0B0E042
:102C0000C451DF4F88839983AA83BB83CC5ED040B5
:102C1000CC50DF4F39822882C45FD0400E94865258
:102C2000C451DF4F088119812A813B81CC5ED0409D
:102C3000DC01CB01800F911FA21FB31FC051DF4FDA
:102C400088839983AA83BB83C05FD04088EB9BE0D5
:102C5000A0E0B0E0CA50DF4F88839983AA83BB838A
:102C6000C65FD040C250DF4F39822882CE5FD0404D
:102C70000E948652CA50DF4F088119812A813B8108
:102C8000C65FD040DC01CB01800F911FA21FB31F94
:102C9000C650DF4F88839983AA83BB83CA5FD04025
:102CA00060E0CA5FDE4F8881C650D1400E94624F0B
:102CB00060E0C85FDE4F8881C850D1400E94624FFB
:102CC00040E063E070E0C050DF4F88819981C050E0
:102CD000D1400E94783B41E060E070E0CE5FDE4F83
:102CE00088819981C250D1400E94783B41E062E0E6
:102CF00070E0CC5FDE4F88819981C450D1400E9442
:102D0000783B84E099E00E94503784E099E00E948B
:102D10008B4160E170E08DE19AE00E944C3643E027
:102D200050E060E170E08DE19AE00E94AF356AE525
:102D300070E0CE5FDE4F88819981C250D1400E9401
:102D4000BC3A6AE570E0C050DF4F88819981C0507D
:102D5000D1400E94BC3A6EE670E0CC5FDE4F8881C5
:102D60009981C450D1400E94BC3AC12CD12C76012B
:102D700080EE90E08C0F9D1FC096C15ADE4F998364
:102D80008883CF55D140A0EEB0E0AC0FBD1F1296A6
:102D9000C75ADE4FB983A883C955D14053E0852E69
:102DA000912CA12CB12CE0EEF0E0EC0FFD1F3C9635
:102DB000C55ADE4FF983E883CB55D140FFEFCF1AD8
:102DC000DF0AEF0AFF0AC701B601A30192010E94C0
:102DD0003D74672B682B692B09F017C240E060E156
:102DE00070E08DE19AE00E94743484FF0EC280E0AE
:102DF00090E09101082E01C0220F0A94EAF724FF07
:102E00000EC0880F991FFC01E35EF54F8185928506
:102E1000C95ADE4F99838883C755D1400AC00196AD
:102E20008830910531F7C95ADE4F19821882C7558B
:102E3000D140C95ADE4FA881B981C755D1401196FA
:102E40008C91882309F4FFC0C55ADE4F888199818F
:102E5000CB55D1400E942625C95ADE4FE881F98121
:102E6000C755D14082818D3228F464E670E08CE948
:102E70009FEF06C0883338F06CE97FEF84E690E07E
:102E80000E948060A0C060E070E080E090E00E945E
:102E90008060C75ADE4F88819981C955D1400E9410
:102EA0004725882309F48FC0C75ADE4F888199814E
:102EB000C955D1400E9426250E94DA72A5019401CD
:102EC0000E940B74613071058105910561F06230DB
:102ED00071058105910579F0672B682B692B39F411
:102EE0008EE994E002C083EA94E00E94F72C04ED9E
:102EF00018E0980103C088EA94E0F7CF60E0C901C8
:102F0000CF59DE4F2883C156D140CE59DE4F38838A
:102F1000C256D1400E94E239CF59DE4F2881C156B6
:102F2000D140CE59DE4F3881C256D140245F3F4F49
:102F3000F9E024303F0711F70E94DA72A5019401ED
:102F40000E940B746130710581059105B9F0623002
:102F500071058105910501F1672B682B692B49F5F6
:102F60004FE060E370E380E090E00E940E2D22E0ED
:102F700040E360E380E00E94712D1BC04EE160E001
:102F800070E0CB010E94022F4EE160E370E380E02D
:102F900090E00E94022F0DC060E384E099E00E945F
:102FA000593781E00E94372F6FEF84E099E00E944B
:102FB000593761E0C8010E94E239045F1F4F89E080
:102FC00004301807B1F7CC5FDE4F88819981C45077
:102FD000D1400E94E839C95ADE4FA881B981C7554E
:102FE000D14013962C912D3278F4823891050CF053
:102FF0005EC062E370E0621B710975956795759517
:103000006795680F791F16C0283308F450C08B35B8
:1030100091050CF44CC030E0A9014253510957FF0F
:1030200002C04D5F5F4F5595479555954795BC013B
:10303000641B750BCC5FDE4F88819981C450D140F1
:103040000E94BC3A34C0C55ADE4F88819981CB5565
:10305000D1400E944725882321F180E090E00E9422
:103060001661892B21F56EE670E0CC5FDE4F88811A
:103070009981C450D1400E94BC3A41E050E060E1E7
:1030800070E08DE19AE00E949560833328F06CE94E
:103090007FEF84E690E009C064E670E08CE99FEF82
:1030A00004C060E070E080E090E00E948060C35A5D
:1030B000DE4F88819981CD55D1400E9447258823D4
:1030C00009F4A3C0AE014A5A5E4F60E5C15ADE4F13
:1030D00088819981CF55D1400E940932CA5ADE4F6A
:1030E0008881C655D1408B3008F48FC0C35ADE4F5B
:1030F00088819981CD55D1400E942625C75ADE4F3F
:1031000088819981C955D1400E94262560E070E0F0
:1031100080E090E00E9480600E94DA72A501940134
:103120000E940B74613071058105910561F0623078
:1031300071058105910551F0672B682B692B51F4BE
:103140008EE994E005C083EA94E002C088EA94E046
:103150000E94F72CC050DF4F88819981C050D14028
:103160000E94E8398C0160EA70E0C050DF4F88812E
:103170009981C050D1400E94BC3A6CE271E080E07D
:1031800090E00E944C5225E030E066E970E0C050CB
:10319000DF4F88819981C050D140CF59DE4F2883BD
:1031A000C156D140CE59DE4F3883C256D1400E941D
:1031B000BC3A64E670E080E090E00E944C5260EA25
:1031C00070E0C050DF4F88819981C050D1400E948B
:1031D000BC3A64E670E080E090E00E944C52CF5927
:1031E000DE4F2881C156D140CE59DE4F3881C256BC
:1031F000D1402150310949F6B801C050DF4F8881D4
:103200009981C050D1400E94BC3ACE0101960E94E3
:103210005567892B09F0D2CDCE0180529F4F0E9475
:103220005220DECA28EC30E040E050E068EE73E067
:1032300084E00E94635B00E010E020E030E040E2C8
:1032400050E260E070E08AE199E00E949A378AE1FA
:1032500099E00E948B416CE271E080E090E00E9476
:103260004C528AE199E00E9450378AE199E00E942D
:103270008B4108EF18E02CEE38E044ED58E06DE1AA
:103280007AE0CE0180529F4F0E9490258CE992E017
:10329000C052DF4F99838883C05ED04084ED98E0B0
:1032A000C35DDE4F99838883CD52D1408CEE98E088
:1032B000C15DDE4F99838883CF52D140CF5CDE4F12
:1032C00019830883C153D140CD5CDE4F1982188227
:1032D000C353D1408AE2C951DF4F8883C75ED040D3
:1032E00080E290E0CE51DF4F99838883C25ED04068
:1032F00040E060E070E084ED98E00E94783B41E0BF
:1033000062E070E0C15DDE4F88819981CF52D1408B
:103310000E94783B41E063E070E0CF5CDE4F888143
:103320009981C153D1400E94783B80E00E940B2AD2
:1033300084EB95E00E94232AC651DF4F8881998152
:10334000CA5ED0400E949A2B812C912C540102E03D
:1033500010E083E0E82EF12CBFEF8B1A9B0AAB0A3A
:10336000BB0AC501B401A30192010E943D74672B01
:10337000682B692B09F057C0CD5CDE4F888199819D
:10338000C353D14081309105C1F01CF4892B39F031
:103390004AC08230910511F1039771F144C0CE010A
:1033A00080529F4F0E94EF4B8823E9F1CD5CDE4FA6
:1033B00039822882C353D14036C0CE0180529F4FFC
:1033C0000E94A24A009719F0029739F12CC0CD5CF7
:1033D000DE4F19830883C353D14025C0CE018052EC
:1033E0009F4F0E940A4A8823F1F0CD5CDE4FF9829C
:1033F000E882C353D14017C0CE0180529F4F0E9434
:10340000D348009751F08230910569F4CD5CDE4FCE
:1034100099838883C353D14006C0CD5CDE4F1982A7
:103420001882C353D140CE0101960E945567892B63
:1034300009F092CFCE0180529F4F0E948123D0C9C4
:1034400028EC30E040E050E06CED75E084E00E9454
:10345000635B00E010E020E030E040E050E260E23A
:1034600070E08AE199E00E949A378AE199E00E942F
:103470008B416CE271E080E090E00E944C528AE166
:1034800099E00E9450378AE199E00E948B4182E3E3
:10349000CE51DF4F8883C25ED04084E690E0CD51AC
:1034A000DF4F99838883C35ED04082E390E0CB51A5
:1034B000DF4F99838883C55ED0408DE19AE0C95182
:1034C000DF4F99838883C75ED04084E0C751DF4FC8
:1034D0008883C95ED04084EA92E0C052DF4F99836E
:1034E0008883C05ED04084ED98E0C651DF4F998359
:1034F0008883CA5ED040E3E5F3E0E491C451DF4F36
:10350000E883CC5ED040E4E5F3E0E491C351DF4FC3
:10351000E883CD5ED040EBE4F3E0E491C251DF4FAD
:10352000E883CE5ED040ECE4F3E0E491C151DF4F9C
:10353000E883CF5ED04084E099E00E948E4284EB25
:1035400095E00E94232A81E00E940B2A8AE199E0FB
:103550000E948E4262E0C451DF4F8881CC5ED04031
:103560000E94624F62E0C351DF4F8881CD5ED04040
:103570000E94624F62E0C251DF4F8881CE5ED04030
:103580000E94624F62E0C151DF4F8881CF5ED04020
:103590000E94624FCE0180529F4F0E94083FC12C73
:1035A000D12C7601EFEFCE1ADE0AEE0AFE0AC70131
:1035B000B601A30192010E943D74672B682B692B11
:1035C00009F04DC0C451DF4F8881CC5ED0400E94CD
:1035D000094F892B49F0C351DF4F8881CD5ED04020
:1035E0000E94094F892B91F480E090E00E941661BF
:1035F0008C0181E090E00E9416615C0101151105CB
:1036000009F015C3A114B10409F011C3C251DF4F71
:103610008881CE5ED0400E94094F892B49F0C1516C
:10362000DF4F8881CF5ED0400E94094F892B91F4F3
:1036300080E090E00E9416618C0181E090E00E94A1
:1036400016615C010115110509F014C3A114B10440
:1036500009F010C3CE0180529F4F0E94523CCE0110
:1036600001960E945567892B09F09CCFCE018052AC
:103670009F4F0E944120B4C8813009F065C928ECF1
:1036800030E040E050E064EF71E084E00E94635B72
:1036900000E010E020E030E040E250E0BA018AE1D2
:1036A00099E00E949A378AE199E00E948B416CE28E
:1036B00071E080E090E00E944C528AE199E00E9423
:1036C00050378AE199E00E948B41E2E1FE2ECE0163
:1036D00001960E940167F1E1FF1609F4AFC0FF15E2
:1036E00008F43EC082E0F81609F469C090E1F912CE
:1036F000E4C200E02AE630E040E050E064EB75E030
:10370000CE0101960E9440558FE893E09A83898309
:1037100081EA93E09EAF8DAF08EF18E02CEE38E021
:1037200044ED58E06DE17AE0CE018F569F4F0E9444
:103730009025C252DF4F19821882CE5DD04082E0C0
:10374000CB57DF4F8883C558D04084EB95E00E946B
:10375000232A8EEE96E00E94D24C04ED18E03FC082
:10376000A2E1FA1609F419C1B0E2FB12A6C201E007
:103770002AE630E040E050E064EB75E0CE010196CF
:103780000E944055CE0101960E949452ED968FAD55
:10379000ED978823B9F3CE0101960E94B2528DC2F3
:1037A00084EB95E00E945758892B49F084EB95E013
:1037B0000E943558BC018BE897E00E9477138BE894
:1037C00097E00E945758892B59F38BE897E00E94A5
:1037D0003558BC0184EB95E00E947713E1CF61E09E
:1037E000C8010E94E239045F1F4FE9E004301E0760
:1037F000B1F788EF98E00E94E44C8CEE98E00E94CC
:10380000E44C81E00E940B2A61E084E00E94624F58
:1038100061E08DE10E94624F60E08DE10E94324FD5
:10382000CE0101960E949452ED968FADED978823BC
:10383000B9F3CE0101960E94D2523FC200E02AE6BF
:1038400030E040E050E064EB75E0CE0101960E946C
:10385000405584E792E09A83898386E892E09EAFA0
:103860008DAF82E293E0CF56DF4F99838883C159B1
:10387000D04082E3CD56DF4F8883C359D04084E6E1
:1038800090E0CC56DF4F99838883C459D04082E3BF
:1038900090E0CA56DF4F99838883C659D0408DE1A6
:1038A0009AE0C856DF4F99838883C859D04084E096
:1038B000C656DF4F8883CA59D040E3E5F3E0E49170
:1038C000C556DF4FE883CB59D040E4E5F3E0E491FF
:1038D000C456DF4FE883CC59D040EBE4F3E0E491E9
:1038E000C356DF4FE883CD59D040ECE4F3E0E491D8
:1038F000C256DF4FE883CE59D040C156DF4F188201
:10390000CF59D04083E0CB57DF4F8883C558D04094
:1039100084EB95E00E94232A04ED18E061E0C801E1
:103920000E94E239045F1F4FF9E004301F07B1F72E
:103930008CEE98E00E94E44C62E0C556DF4F88812F
:10394000CB59D0400E94624F62E0C456DF4F88815D
:10395000CC59D0400E94624F62E0C356DF4F88814D
:10396000CD59D0400E94624F62E0C256DF4F88813D
:10397000CE59D0400E94624F81E00E940B2ACE01B6
:1039800001960E949452ED968FADED978823B9F37E
:10399000CE0101960E94B92290C100E02AE630E0F3
:1039A00040E050E064EB75E0CE0101960E94405586
:1039B00082E894E09A83898384E994E09EAF8DAF96
:1039C00080E2CF56DF4F8883C159D0408CEA92E025
:1039D000CE56DF4F99838883C259D0408DE19AE05B
:1039E000CC56DF4F99838883C459D0408CEE98E041
:1039F000CA56DF4F99838883C659D04088EF98E034
:103A0000C856DF4F99838883C859D04084ED98E029
:103A1000C656DF4F99838883CA59D04012E0CB57EE
:103A2000DF4F1883C558D04084EB95E00E94232ACD
:103A3000E7E4F3E0649170E084E099E00E944D4196
:103A40006CE070E084E099E00E94564220911209F7
:103A500090910F0981E08093120980930F091092D1
:103A60001009109311098093040940910D09509198
:103A70000E09452B51F0291741F06091060970910C
:103A8000070984E099E00E94564284E099E00E9490
:103A90008E42C957DF4F1882C758D040CF56DF4FEC
:103AA0008881C159D040C857DF4F8883C858D0405B
:103AB000C757DF4F8883C958D040C957DF4F888127
:103AC0009981AA81C758D040C657DF4F8883998310
:103AD000AA83CA58D040E12CF12C8091060990911C
:103AE0000709E816F906C0F4C757DF4F0881C9581F
:103AF000D040C857DF4F2881C858D040C957DF4F42
:103B00004881C758D040B70184E099E00E94FC404A
:103B10008FEFE81AF80AE1CF84E099E00E948B4128
:103B200081E596E00E94D24C04ED18E061E0C80106
:103B30000E94E239045F1F4F99E004301907B1F782
:103B400084ED98E00E94E44C8CEE98E00E94E44CF6
:103B500081E00E940B2A61E084E00E94624F61E0F4
:103B60008DE10E94624F60E08DE10E94324FCE01F4
:103B700001960E949452ED968FADED978823B9F38C
:103B8000CE0101960E94496A98C028EC30E040E0DE
:103B900050E068EE73E084E00E94635B00E010E0B8
:103BA00020E030E040E250E260E070E08AE199E03D
:103BB0000E949A378AE199E00E948B416CE271E0A1
:103BC00080E090E00E944C528AE199E00E945037D8
:103BD0008AE199E00E948B417ACD28EC30E040E008
:103BE00050E06CED75E084E00E94635B00E010E063
:103BF00020E030E040E050E260E270E08AE199E0ED
:103C00000E949A378AE199E00E948B416CE271E050
:103C100080E090E00E944C528AE199E00E94503787
:103C20008AE199E00E948B4171E1F72E50CD60EB63
:103C30007FEF80E590E00E94806068EE73E080E0B6
:103C400090E00E944C52C451DF4F8881CC5ED0403E
:103C50000E94094F892B89F3C351DF4F8881CD5EC4
:103C6000D0400E94094F892B41F3B501C8010E9441
:103C70008060CCCC60E570E080EB9FEF0E948060BC
:103C800068EE73E080E090E00E944C52C251DF4F3A
:103C90008881CE5ED0400E94094F892B89F3C151A3
:103CA000DF4F8881CF5ED0400E94094F892B41F3BE
:103CB000B501C8010E948060CDCCCE59DE4F0FB651
:103CC000F894DEBF0FBECDBFDF91CF911F910F9152
:103CD000FF90EF90DF90CF90BF90AF909F908F902C
:103CE0007F906F905F904F903F902F900895089530
:103CF000089520918705309188052817390771F4B8
:103D00009091850580918605981741F0E091850591
:103D1000F0E0E154FB4F808190E008958FEF9FEF3A
:103D2000089508951F93CF93DF93DC015C962D9146
:103D30003C915D972115310539F481E090E01396AF
:103D40009C938E9312973DC05196ED91FC915297A2
:103D500050969C915097892F80951FB75E964C91F5
:103D60005E9741FB772770F941FD6095F89440819B
:103D7000772311F0492B01C048234083E9012197A3
:103D8000F1F748E0508160FF02C0592B01C0582371
:103D90005083E9012197F1F76695415099F7772310
:103DA00021F090818923808303C08081982B9083A8
:103DB0001FBF5C968D919C915D970197F1F721E073
:103DC00030E0C901DF91CF911F91089520918705BF
:103DD000309188052817390771F480918605209164
:103DE000850590E0805C9F4F821B910960E470E044
:103DF0000E94B876089580E090E0089520918705AC
:103E00003091880528173907B9F49091850580917C
:103E10008605981789F0E0918505F0E0E154FB4FA5
:103E200080812091850530E02F5F3F4F2F7333272E
:103E30002093850590E008958FEF9FEF08950895F2
:103E400080E090E008950C949A780C949A78CF933F
:103E5000DF93EC0188859985892B19F40E942752FC
:103E600002C00E9486526C837D838E839F83DF9184
:103E7000CF910895CF93DF93EC0183E494E099838D
:103E8000888340E06FE1CE01875B9F4F0E94D63769
:103E900081E394E09B838A8319A2EE89FF89908154
:103EA000888980958923808389A1882331F0EA89D4
:103EB000FB8990818889892B8083E88DF98D908199
:103EC000898980958923808389A1882331F0EC89B1
:103ED000FD8990818989892B8083DF91CF91089515
:103EE000CF93DF93EC010E943A1FCE01DF91CF9177
:103EF0000C949A78CF92DF92EF92FF920F931F93D8
:103F0000CF93DF936C018B017A01EC01C554DB4F39
:103F1000888187FF04C0FB011182108224C08CE0DD
:103F20008C9D90018D9D300D11248881A901480F31
:103F3000511D87FD5A958091B80890E048175907A0
:103F400094F48881A901480F511D87FD5A95CA0133
:103F5000FA01EE0FFF1F8E0F9F1FFC01E85DF74F68
:103F6000808186FD19C088818F5F88838CE08C9D5D
:103F700090018D9D300D11248881A901480F511D9C
:103F800087FD5A958091B80890E048175907BCF40E
:103F900088818C3044F113C08881280F311D87FD42
:103FA0003A95F901EE0FFF1F2E0F3F1FF901E85D53
:103FB000F74F808160E08F730E94324FD4CFF801B9
:103FC00080819181049680349C4918F480E49CE9B6
:103FD00004C0F801808191810496F7019183808368
:103FE0008FEF888345C0F801408151818881B901F4
:103FF000680F711D87FD7A95CB01FB01EE0FFF1F46
:104000008E0F9F1FFC01E85DF74F81819281840F25
:10401000951FF701918380838881A901480F511D65
:1040200087FD5A95CA01FA01EE0FFF1F8E0F9F1FE1
:10403000FC01E85DF74F808186FF1AC08881280F58
:10404000311D87FD3A95F901EE0FFF1F2E0F3F1F1F
:10405000F901E85DF74F808161E08F73DF91CF91C7
:104060001F910F91FF90EF90DF90CF900C94324F03
:10407000DF91CF911F910F91FF90EF90DF90CF9044
:10408000089524EA32E0FC01318320830C94F13E50
:10409000CF93DF93EC010E944120CE01DF91CF91BD
:1040A0000C949A78CF93DF93EC0184E992E09983A2
:1040B000888360E170E08DE19AE00E9449368AA130
:1040C0009BA10E944D3B88A199A10E944D3B8CA1D0
:1040D0009DA10E944D3B60E070E080E090E00E9476
:1040E0008060CE01C096DF91CF910C94A432CF9323
:1040F000DF93EC010E945220CE01DF91CF910C940E
:104100009A78AF92BF92CF92DF92EF92FF920F9385
:104110001F93CF93DF93EC01FC01ED57FF4F80819C
:10412000813049F0833009F06DC0CE0180579F4F38
:104130000E94523C67C08E0100571F4F40E064E070
:1041400070E0D80117968D919C9118970E94743455
:1041500082FF58C0D8011796ED91FC91189780E026
:1041600090E021E030E0A901082E01C0440F0A943C
:10417000EAF742FF08C0880F991FE80FF91F018472
:10418000F285E02D06C001968830910561F7E0E0E8
:10419000F0E08181882389F14481228130E0F801B7
:1041A00036832583828190E0BC016A50710926170D
:1041B00037073CF483819481BC01919581959109E5
:1041C00019C00A96821793073CF48381948166276D
:1041D0007727681B790B0EC04E3120F4F8018381DC
:1041E000948107C0453248F08381948191958195EF
:1041F0009109BC010E94806005C060E070E080E031
:1042000090E0F8CFFE01E256FF4F8081882311F144
:104210006E01BAE9CB0ED11CF60180810E94094FD4
:10422000892B41F0FE01E556FF4F80810E94094F26
:10423000892BD1F580E090E00E9416618C0181E02D
:1042400090E00E9416617C010115110581F4E114D2
:10425000F10469F4CE01DF91CF911F910F91FF908E
:10426000EF90DF90CF90BF90AF900C944B6160EBDC
:104270007FEF80E590E00E9480605E01FBE9AF0E79
:10428000B11C68EE73E080E090E00E944C52D601D1
:104290008C910E94094F892BA1F3F50180810E9426
:1042A000094F892B71F33FC06E01FCE9CF0ED11C81
:1042B000D6018C910E94094F892B41F0FE01E356F3
:1042C000FF4F80810E94094F892B21F680E090E00A
:1042D0000E9416618C0181E090E00E9416617C01D1
:1042E0000115110521F4E114F10409F4B3CF60E5DF
:1042F00070E080EB9FEF0E9480605E01FDE9AF0EF1
:10430000B11C68EE73E080E090E00E944C52D60150
:104310008C910E94094F892BA1F3F50180810E94A5
:10432000094F892B71F3B701C8010E94806092CFB9
:104330008F929F92AF92BF92CF92DF92EF92FF92B5
:104340000F931F93CF93DF9300D000D01F92CDB770
:10435000DEB78C017C0180E7E80EF11CD701ED91FE
:10436000FC918081803809F0F0C06801B2E7CB0E83
:10437000D11CD601ED91FC918081813009F0E5C01E
:104380005801B8E7AB0EB11CF50111821082C801CB
:104390000E94C16AD5011D921C92F801EC58FF4F92
:1043A0000190F081E02D6081603C68F4603B08F092
:1043B00071C0623809F444C0633809F44FC06138F1
:1043C00009F09DC009C0623C09F487C008F47CC0B4
:1043D000603D08F484C093C0813079F0823009F0E8
:1043E0008EC0F801ED57FF4F108264E070E03D96FB
:1043F000878190850E9449361FC0F801ED57FF4F15
:1044000080834801B0E98B0E911CF401878190856F
:104410000E949A2B64E070E0D40117968D919C91D4
:1044200018970E944C3643E050E064E070E0F401DD
:10443000878190850E94AF35D5011D921C9261C085
:10444000813041F0823009F05CC0F801E256FF4F44
:10445000108257C0F801E256FF4F1AC0813069F050
:10446000823009F04EC0F801ED57FF4F1082C801AD
:1044700080579F4F0E94F13E44C0C80180579F4F14
:104480000E94083F892BE9F583E0F801ED57FF4FC3
:10449000808337C08230A9F185E0EBE6F2E0DE01EF
:1044A000119601900D928A95E1F76F70E1E0F0E0CE
:1044B000EC0FFD1FE60FF11D408150E060E070E061
:1044C000C8010E9448681EC08230A1F48AE199E0C8
:1044D0000E9450378AE199E00AC062E00CC0823045
:1044E00049F484E099E00E94503784E099E00E940A
:1044F0008B4107C06F70C8010E94946103C088EEB1
:1045000001C080E0F801EB57FF4F808381111DC08F
:10451000F601A081B181F701808191814C91DC018C
:104520006C91C8010F900F900F900F900F90DF913A
:10453000CF911F910F91FF90EF90DF90CF90BF90A0
:10454000AF909F908F900C942167C8010F900F90AF
:104550000F900F900F90DF91CF911F910F91FF90CF
:10456000EF90DF90CF90BF90AF909F908F900C9482
:10457000410224E732E0FC013183208326E832E067
:1045800035AF24AF0C94B252CC970C94F466EF92F2
:10459000FF920F931F93CF93DF93EC018B0140E0C9
:1045A0008A859B850E94743480239123892BC1F1D5
:1045B0000032110501F120F40430110541F032C040
:1045C00000341105C1F00038110561F514C00A85E9
:1045D0001B8540E050E064E070E0C8010E949560F7
:1045E000882301F141E050E064E070E0C8010E94DE
:1045F0002736EF9612C0EA84FB8440E050E0B80111
:10460000C7010E949560882369F041E050E0B8013D
:10461000C7010E942736CF5BDF4F9983888302C092
:1046200080E001C081E0DF91CF911F910F91FF9059
:10463000EF9008950F931F93CF93DF93EB01FC014D
:1046400066A577A56C177D0709F43FC08C018285AC
:1046500093850E944936F801D7A7C6A7C032D10575
:10466000D9F0A0F4249789F561E070E0F801828523
:1046700093850E943B3464E070E0F8018285938565
:10468000DF91CF911F910F910C944C36C034D1051E
:1046900019F0C038D105C9F463E070E0F8018285F3
:1046A00093850E943B34BE01F801828593850E9468
:1046B0004C3642E050E0BE01F80182859385DF91DF
:1046C000CF911F910F910C94AF35DF91CF911F9136
:1046D0000F910895CF93DF93EC0142960E94271F1C
:1046E000CE014C960E94271F60E070E080E090E0D1
:1046F0000E94806060E070E0CE01DF91CF910C9469
:104700001A23CF93DF93EC018CE992E0998388839D
:10471000FE01E35BFF4F808191810E944D3BFE01D2
:10472000E15BFF4F808191810E944D3BFE01EF5A7A
:10473000FF4F808191810E944D3BCE01DF91CF914F
:104740000C946A23CF93DF93EC010E948123CE0166
:10475000DF91CF910C949A78AF92BF92CF92DF9273
:10476000EF92FF920F931F93CF93DF937B016A0128
:10477000EC0100E010E00E151F0539F1FE01659116
:104780007491FE013296A590B4906115710531F0D7
:1047900020E030E0A90184E00E94635BAC9CB001A2
:1047A000AD9C700DBC9C700D112484E076956795CE
:1047B0008A95E1F780E090E00E944C5284E00E94EC
:1047C000BF5A0F5F1F4F2496D6CFDF91CF911F9115
:1047D0000F91FF90EF90DF90CF90BF90AF90089532
:1047E0001F920F920FB60F9211240BB60F922F93B8
:1047F0003F934F935F936F937F938F939F93AF9369
:10480000BF93EF93FF93E0918705F0918805309770
:1048100009F451C0968DA685B785858591FF04C0A2
:104820009C91892329F447C09C91892309F043C0B6
:10483000A389B4899C918589809589238C938689E5
:1048400097890197F1F7608D718DA685B78555859C
:1048500038E020E0CB010197F1F7822F90E09595A9
:104860008795282F4C91452309F02068315091F706
:10487000868D81FD20958091860590E001968F734D
:10488000992730918505381749F0A0918605B0E049
:10489000A154BB4F2C938093860503C0868D816005
:1048A000868F828D938D0197F1F7A389B4899C91AE
:1048B0008589892B8C93FF91EF91BF91AF919F9147
:1048C0008F917F916F915F914F913F912F910F90B9
:1048D0000BBE0F900FBE0F901F9018951F920F9256
:1048E0000FB60F9211240BB60F922F933F934F9355
:1048F0005F936F937F938F939F93AF93BF93EF9348
:10490000FF9348E251E064E271E080E090E00E94B1
:104910007A1FFF91EF91BF91AF919F918F917F91FE
:104920006F915F914F913F912F910F900BBE0F9020
:104930000FBE0F901F9018951F920F920FB60F92F7
:1049400011240BB60F922F933F934F935F936F9366
:104950007F938F939F93AF93BF93EF93FF9348EA17
:1049600050E064EA70E083E090E00E947A1FFF91DB
:10497000EF91BF91AF919F918F917F916F915F91D7
:104980004F913F912F910F900BBE0F900FBE0F9044
:104990001F9018951F920F920FB60F9211240BB60D
:1049A0000F922F933F934F935F936F937F938F93C8
:1049B0009F93AF93BF93EF93FF9348E950E064E96F
:1049C00070E082E090E00E947A1FFF91EF91BF912A
:1049D000AF919F918F917F916F915F914F913F9197
:1049E0002F910F900BBE0F900FBE0F901F90189538
:1049F0001F920F920FB60F9211240BB60F922F93A6
:104A00003F934F935F936F937F938F939F93AF9356
:104A1000BF93EF93FF9348E850E064E870E081E0D3
:104A200090E00E947A1FFF91EF91BF91AF919F910B
:104A30008F917F916F915F914F913F912F910F9047
:104A40000BBE0F900FBE0F901F9018950F931F93E2
:104A5000CF93DF93EC0188859985892B19F40E9407
:104A6000275202C00E948652088119812A813B8107
:104A7000DC01CB01800F911FA21FB31F8C839D838C
:104A8000AE83BF83DF91CF911F910F9108950F9354
:104A90001F93CF93DF93EC0188859985892B19F4B7
:104AA0000E94275202C00E9486520C811D812E81D5
:104AB0003F81DC01CB01801B910BA20BB30B8095D6
:104AC0009095A095B0958827B7FD83959927AA273B
:104AD000BB27DF91CF911F910F9108950F931F93E3
:104AE000CF93DF93EC01188219821A821B8281E036
:104AF00090E0998788870E948652088119812A81CF
:104B00003B81DC01CB01800F911FA21FB31F8C835F
:104B10009D83AE83BF83DF91CF911F910F91089545
:104B20008F929F92AF92BF92CF92DF92EF92FF92BD
:104B30000F931F93CF93DF93EC0184EB92E0998363
:104B4000888380E290E09B838A8382E38C8398E26F
:104B50009D8396E49E838F838DE2888780E3898797
:104B60007B876A875D874C873F872E87198B088BE9
:104B70007E0182E1E80EF11CC7010E946E258E01C4
:104B8000045E1F4FC8010E946E2588E893E1A0E0F3
:104B9000B0E08EA39FA3A8A7B9A78AA79BA7ACA79D
:104BA000BDA71FA61EA618AA88E789AB94E19AABF9
:104BB0008BAB94E69CAB8AE58DAB9EAB8FAB87E36A
:104BC00088AF84E690E09AAF89AF20E530E03CAF53
:104BD0002BAF9EAF8DAFFE01FF9682E390E09183F5
:104BE000808332969183808332961182108232962E
:104BF00011821082329610821182128213823496B0
:104C000081E090E09183808380E00E946550BC0148
:104C1000990F880B990B611571058105910511F0AC
:104C20000E94DE728EA19FA1A8A5B9A58A8B9B8B3D
:104C3000AC8BBD8BCC24C394D12CDB8ECA8E0E944E
:104C400086528A889B88AC88BD88DC01CB01880DA0
:104C5000991DAA1DBB1D8E8B9F8BA88FB98FC70175
:104C60000E94271F8AA59BA5ACA5BDA58C8F9D8FF3
:104C7000AE8FBF8FDDA2CCA20E948652CC8CDD8C81
:104C8000EE8CFF8CDC01CB018C0D9D1DAE1DBF1D7C
:104C900088A399A3AAA3BBA3C801DF91CF911F91B9
:104CA0000F91FF90EF90DF90CF90BF90AF909F90CB
:104CB0008F900C94271F8091040A9091050A892BEC
:104CC00001F58091060A9091070ADC01ED91FC91B3
:104CD0000084F185E02D0995892B91F08091060AD9
:104CE0009091070ADC01ED91FC910284F385E02D9F
:104CF000099561E070E080E090E00E944C52E1CFC5
:104D000008958091040A9091050ADC01ED91FC91CF
:104D10000084F185E02D0995892B91F08091040A9A
:104D20009091050ADC01ED91FC910284F385E02D60
:104D3000099561E070E080E090E00E944C52E1CF84
:104D400008958F929F92AF92BF92EF92FF920F932E
:104D50001F93CF93DF93CDB7DEB764970FB6F89468
:104D6000DEBF0FBECDBF49E15BE260E070E049838A
:104D70005A836B837C8302E317E520E030E00D83E8
:104D80001E832F833887E4E68E2EEFEA9E2EA12C19
:104D9000B12C89869A86AB86BC860D871E872F87A5
:104DA000388B498B5A8B6B8B7C8B8130910509F446
:104DB000B5C054F4892B09F0B2C27E018BE0E81A29
:104DC000F10800E010E08CC08230910509F447C181
:104DD000039709F0A4C27E0183E1E81AF10800E01C
:104DE00010E07FC2C8010197059728F5F70180847C
:104DF0009184A284B384A501940162E070E084E010
:104E000099E00E949040A501940164E070E084E084
:104E100099E00E949040A501940168E070E084E070
:104E200099E00E949040A50194016AE070E084E05E
:104E300099E00E949040C8010297059728F5F70174
:104E400084809580A680B780A501940161E070E020
:104E500084E099E00E949040A501940165E070E033
:104E600084E099E00E949040A501940167E070E021
:104E700084E099E00E949040A50194016BE070E00D
:104E800084E099E00E949040C80103970597A8F438
:104E9000F70180809180A280B380A501940160E039
:104EA00070E084E099E00E949040A501940166E0E2
:104EB00070E084E099E00E94904084E099E00E94D4
:104EC0008B4162E370E080E090E00E944C520F5F03
:104ED0001F4FF4E0EF0EF11C0930110509F41FC259
:104EE00084E099E00E945037053011050CF07ACF2C
:104EF000F70184849584A684B784A501940163E0B6
:104F000070E084E099E00E949040A501940169E07E
:104F100070E084E099E00E94904064CF7E018BE0D5
:104F2000E81AF10800E010E084E099E00E945037B0
:104F3000C80103970597A8F4F70180809180A280AB
:104F4000B380A501940163E070E084E099E00E94E1
:104F50009040A501940169E070E084E099E00E942E
:104F60009040C8010297059728F5F7018480958045
:104F7000A680B780A501940162E070E084E099E02A
:104F80000E949040A501940164E070E084E099E003
:104F90000E949040A501940168E070E084E099E0EF
:104FA0000E949040A50194016AE070E084E099E0DD
:104FB0000E949040C8010197059728F5F701808469
:104FC0009184A284B384A501940161E070E084E03F
:104FD00099E00E949040A501940165E070E084E0B2
:104FE00099E00E949040A501940167E070E084E0A0
:104FF00099E00E949040A50194016BE070E084E08C
:1050000099E00E94904005301105ACF4F7018484CA
:105010009584A684B784A501940160E070E084E0E3
:1050200099E00E949040A501940166E070E084E060
:1050300099E00E94904084E099E00E948B4162E3F5
:1050400070E080E090E00E944C520F5F1F4FF4E050
:10505000EF0EF11C0930110509F066CF60C17E0129
:1050600083E1E81AF10800E010E084E099E00E9492
:105070005037C80105970597A8F4F7018080918003
:10508000A280B380A50194016AE070E084E099E019
:105090000E949040A50194016BE070E084E099E0EB
:1050A0000E949040C80104970597A8F4F7018480F6
:1050B0009580A680B780A501940166E070E084E049
:1050C00099E00E949040A501940169E070E084E0BD
:1050D00099E00E949040C80103970597A8F4F70152
:1050E00080849184A284B384A501940167E070E078
:1050F00084E099E00E949040A501940168E070E08E
:1051000084E099E00E949040C80102970597A8F4B6
:10511000F70184849584A684B784A501940164E092
:1051200070E084E099E00E949040A501940165E060
:1051300070E084E099E00E949040C80101970597D3
:10514000A8F4F70180889188A288B388A50194010A
:1051500060E070E084E099E00E949040A501940135
:1051600063E070E084E099E00E9490400530110512
:10517000ACF4F70184889588A688B788A5019401C6
:1051800061E070E084E099E00E949040A501940104
:1051900062E070E084E099E00E94904084E099E051
:1051A0000E948B4162E370E080E090E00E944C52EC
:1051B0000F5F1F4FF4E0EF0EF11C0B30110509F0EB
:1051C00054CFADC0C80101970597A8F4F7018088B6
:1051D0009188A288B388A501940166E070E084E01C
:1051E00099E00E949040A501940169E070E084E09C
:1051F00099E00E949040C80102970597A8F4F70132
:1052000084849584A684B784A501940167E070E046
:1052100084E099E00E949040A501940168E070E06C
:1052200084E099E00E949040C80103970597A8F494
:10523000F70180849184A284B384A501940164E081
:1052400070E084E099E00E949040A501940165E03F
:1052500070E084E099E00E949040C80104970597AF
:10526000A8F4F70184809580A680B780A5019401F9
:1052700060E070E084E099E00E949040A501940114
:1052800063E070E084E099E00E949040C8010597D7
:105290000597A8F4F70180809180A280B380A501D2
:1052A000940161E070E084E099E00E949040A501E3
:1052B000940162E070E084E099E00E94904084E014
:1052C00099E00E948B4162E370E080E090E00E94F0
:1052D0004C520F5F1F4FF4E0EF0EF11C0B30110525
:1052E000F1F084E099E00E945037053011050CF090
:1052F00069CFF70184889588A688B788A5019401AD
:105300006AE070E084E099E00E949040A501940179
:105310006BE070E084E099E00E94904053CF649687
:105320000FB6F894DEBF0FBECDBFDF91CF911F91B6
:105330000F91FF90EF90BF90AF909F908F90089546
:105340000F931F93CF93DF938B01CEE7D9E0BC017E
:105350008E819F810E947147B80188859985DF9170
:10536000CF911F910F910C947147883008F052C073
:10537000A82FB0E0AA0FBB1FA050BE4F11967C9380
:105380006E9390E0FC013197E730F10520F5E1568E
:10539000FF4F0C94CC76809169008C7F8260809363
:1053A0006900E89A089580916900837F88608093FE
:1053B0006900E99A0895809169008F7C80628093EA
:1053C0006900EA9A0895809169008F7380688093DC
:1053D0006900EB9A089580916A008C7F82608093C7
:1053E0006A00EC9A089580916A00837F88608093B8
:1053F0006A00ED9A089580916A008F7C80628093A4
:105400006A00EE9A089580916A008F738068809395
:105410006A00EF9A08951F93CF93DF93182FCEE77A
:10542000D9E0482F60E08E819F810E943948412F4A
:1054300061E0888599850E94394880E090E0DF919D
:10544000CF911F910895CF92DF92FF920F931F93F8
:10545000CF93DF9300D0CDB7DEB72091200A3091F3
:10546000210A232B09F48EC06C018091220A9091AD
:10547000230A009759F0DC01ED91FC910280F38141
:10548000E02D09951092230A1092220A1092210A07
:105490001092200A86E490E00E9405788C01F0903A
:1054A0001F0A8AE093E0F8019183808312821382BD
:1054B000148215824F2DB601C80106960E94B63699
:1054C000F801EE5BFF4FD382C28284EE92E0D801F6
:1054D00011969C938E9380EF92E017969C938E93F7
:1054E00016978CEF92E0918380834F2D50E060E01F
:1054F00070E0F80142835383648375831093230A19
:105500000093220A1A8204E010E08091220A90910E
:10551000230ADC01ED91FC910480F581E02DAE01C0
:105520004E5F5F4F61E00995811103C08A8183302E
:1055300029F00150110949F781E125C084E08983F0
:105540008091220A9091230ADC01ED91FC91068062
:10555000F781E02D44E064E00995998192FF13C042
:105560008091220A9091230ADC01ED91FC91048044
:10557000F581E02DAE014F5F5F4F64E00995882310
:1055800061F301C080E00F900F90DF91CF911F91E8
:105590000F91FF90DF90CF9008952F923F924F92FE
:1055A0005F926F927F928F929F92AF92BF92DF92A3
:1055B000EF92FF920F931F93CF93DF930E94865237
:1055C0004B015C0122242394312C412C512C3201BB
:1055D00043948091FF04882309F49AC089EB98E0F2
:1055E0000E94472581110FC00E948652DC01CB0129
:1055F00088199909AA09BB098F3F9F4FAF4FBF4F29
:1056000041F781E085C084E190E0A0E0B0E08093C4
:10561000B9089093BA08A093BB08B093BC08309225
:10562000C2082092C1080E9486520091B9081091C8
:10563000BA082091BB083091BC08DC01CB01800F77
:10564000911FA21FB31F8093BD089093BE08A09323
:10565000BF08B093C00883ECE82E88E0F82E06EC73
:1056600018E0C0E0D0E0D7018D919C91009709F43B
:1056700044C0D090FF042D2D30E00C2E02C0359593
:1056800027950A94E2F720FF38C00E94E839F80114
:105690003197208130E0281B390B121613061CF0BD
:1056A000EFEFFFEF02C0E1E0F0E037FF03C031951C
:1056B00021953109D8014C9150E0421753077CF0F5
:1056C000B301A2010C2E04C0440F551F661F771FA3
:1056D0000A94D2F740954D214093FF04A901E49F1D
:1056E000B001E59F700DF49F700D1124680F791FB4
:1056F000F701808191810E94BC3A2196F4E0EF0E7F
:10570000F11C0C5F1F4FC430D10509F0ACCF6CCF3A
:10571000DF91CF911F910F91FF90EF90DF90BF909D
:10572000AF909F908F907F906F905F904F903F9041
:105730002F9008950F931F93CF93DF931F92CDB7B0
:10574000DEB78C01DC0115968D919C911697DC01DA
:10575000ED91FC910480F581E02DAE014F5F5F4F2C
:1057600060E10995498144FD0DC040614983F8011C
:1057700085819681DC01ED91FC910680F781E02D19
:1057800060E109950F90DF91CF911F910F910895DE
:10579000CF93DF938091040A9091050ACCEF892B77
:1057A000F1F48091060A9091070ADC01ED91FC91D9
:1057B0000084F185E02D0995892B09F561E070E001
:1057C00080E090E00E944C52C15059F716C061E051
:1057D00070E080E090E00E944C52C15071F08091E6
:1057E000040A9091050ADC01ED91FC910084F18599
:1057F000E02D0995892B59F302C08FEF47C08091A6
:10580000040A9091050AD0E0CEEF892B11F5809122
:10581000060A9091070ADC01ED91FC910084F18564
:10582000E02D0995892B89F1DD2311F0DF5FEFCFA2
:105830008091060A9091070ADC01ED91FC910284A7
:10584000F385E02D0995C82FD1E0E1CFDD2379F074
:10585000DF5F8091040A9091050ADC01ED91FC91D3
:105860000084F185E02D0995892B81F70EC0809188
:10587000040A9091050ADC01ED91FC910284F38504
:10588000E02D0995C82FD1E0E4CF8C2FDF91CF9187
:105890000895CF92DF92EF92FF920F931F93CF93D1
:1058A000DF93D82F8091040A9091050AC2E0CD0FB2
:1058B000892B09F052C00E945B268091060A9091C4
:1058C000070ADC01ED91FC910190F081E02D6EE77B
:1058D00009958091060A9091070ADC01ED91FC91EF
:1058E0000190F081E02D6C2F099599E0E92E9AE066
:1058F000F92E87018091060A9091070A202F2E1910
:105900002D1778F46801DC01ED91FC910190F08194
:10591000E02DD8016D918D010995F6018081C80FA8
:10592000E9CFDC01ED91FC910190F081E02D6C2F2D
:1059300009958091060A9091070ADC01ED91FC918E
:105940000190F081E02D6FEEDF91CF911F910F91CB
:10595000FF90EF90DF90CF9009940E945B266EE756
:1059600070E08091040A9091050A0E9477136D2FD0
:1059700070E06E5F7F4F8091040A9091050A0E944B
:10598000771389E0E82E8AE0F82E8701A091040AB7
:10599000B091050A802F8E198D1780F46801ED9162
:1059A000FC91119720813181F80161918F01CD0126
:1059B000F9010995D6018C91C80FE8CFED91FC91C2
:1059C00011970190F081E02D6C2FCD0109956FEEBC
:1059D00070E08091040A9091050ADF91CF911F91A8
:1059E0000F91FF90EF90DF90CF900C947713DC0134
:1059F000E4E0FAE081EA85838C91868311968C91AC
:105A00001197878312968C911297808713968C91A9
:105A1000818785E00E94492C0C94C82B6F927F925D
:105A20008F929F92AF92BF92CF92DF92EF92FF92AE
:105A30000F931F93CF93DF934B015C018AE0682E95
:105A4000712CC42ED12CE12CF12CC0E0D0E000E070
:105A500010E080910609909107090817190760F472
:105A6000B8016C0F7D1FA501940184E099E00E94AC
:105A700090400D5F1F4FEDCF84E099E00E948B4175
:105A8000C701B6010E944C5200E010E08091060967
:105A9000909107090817190768F4B8016C0F7D1F6A
:105AA00020E030E0A90184E099E00E9490400D5F81
:105AB0001F4FECCF2196C330D10549F681E0681A1B
:105AC000710819F6DF91CF911F910F91FF90EF9020
:105AD000DF90CF90BF90AF909F908F907F906F900E
