:100000000C9416020C9427320C94FC310C94D131D0
:100010000C94A6310C947B310C9450310C94253106
:100020000C94FA300C9416570C9416570C941657DF
:100030000C9440020C9479320C9440020C944002CF
:100040000C9440020C941E580C9440020C944002F4
:100050000C9440020C9440020C9440020C94B0307A
:100060000C9440020C94654B0C943B4B0C94400256
:100070000C9440020C9440020C9440020C944002F8
:100080000C94F0570C9440020C9440020C944002E3
:100090000C94114B0C94E74A0C9440020C94783B5E
:1000A0000C9440020C9440020C94C2570C944002F1
:1000B0000C9440020C9440020C9440020C9494570F
:1000C0000C9440020C9440020C9440020C94BD4AE3
:1000D0000C94934A0C9440020C94694A0C943F4A45
:1000E0000C9440027102FF042D093A0B830CF00FAF
:1000F000D0101F1248139113F418F418F418F418C0
:10010000F418F418E81743098109F3092C0AA40A22
:10011000C80A050B960CFD0C910DD80D250E740E1A
:10012000CD0E220F580F9A0F95169D16AA16BD16C2
:10013000D016E316F61608171A1722172A17F52BEA
:10014000F82BE72BEB2BF12B2F2CFC2B002C062C68
:100150000A2C0E2C142C182C1C2C2F2C222C262C68
:100160002A2C7B2F802F852F8F2F992F1230A32F92
:10017000AB2FB32FBD2FC72FD12FE02FEA2F123077
:10018000F42FFE2F083069325F32613263326532FC
:100190006B326D32344140413D41434137413A4138
:1001A00040413D414341225C2A5C025C0A5C125C96
:1001B0001A5C325C3A5C99629F62AC62B262B8626D
:1001C000C562F6621A6381639563AA63D1630164B1
:1001D0003064426418655E658F65D6654D66D4648B
:1001E000FC66436863689168A668084AD73B3BCEC3
:1001F000016E84BCBFFDC12F3D6C74319ABD568326
:100200003DDA3D00C77F11BED9E4BB4C3E916BAADD
:10021000AABE000000803F0000000A0B02090C0D7E
:100220000E080703040100000000000000000000A9
:1002300000000000000000000000000000000000BE
:10024000000000001211100000000000000000007B
:10025000000000000000000000000000000000009E
:1002600020002300260029002C002F00320000016E
:1002700000000301060109010000210024002700FD
:100280002A002D00300033000101000004010701A5
:100290000A0100002200250028002B002E0031005A
:1002A000340002010000050108010B0101021020C9
:1002B000200808102040102040800201020108049C
:1002C0000201010204081020408080402010080430
:1002D0000201800402018040201008040201080489
:1002E00002010102040810204080010204081020CD
:1002F00040800505050507050808080802020202F6
:100300000A0A0808040404040101010101010101B1
:100310000303030303030303040707070C0C0C0C7C
:100320000C0C0C0C02020202060606060606060665
:100330000B0B0B0B0B0B0B0B0220082507051B3EB1
:100340002F2342262443161841C4000800C4000885
:1003500000DC001000C400100006011000F70020AF
:1003600000C4000800C4000800DC001000C4001035
:10037000002601100006012000C4000800C4000887
:1003800000880110004A01100006011000F700105B
:1003900000DC0010005D0108005D0108004A01104A
:1003A000000601100026011000060120004A010885
:1003B000004A0108004A0110004A0108004A0108E9
:1003C000004A0110004A0108008801080006010CDB
:1003D00000260104004A0120005D0108005D0108BB
:1003E000005D010C005D0104005D0108004A010888
:1003F000004A0108004A0104004A0104004A0108B9
:100400000026010800260108000601080026011048
:1004100000880110000C3911100B3A033B1514022F
:100420003C13120D3D0F0E00146FBB7211241FBE42
:10043000CFEFD1E2DEBFCDBF14E0A0E0B2E0E2E753
:10044000F3EF00E00BBF02C007900D92AE34B1078E
:10045000D9F72AE0AEE4B4E001C01D92A831B2079A
:10046000E1F712E0C5E1D2E004C02197FE010E944D
:100470003A77C431D107C9F70E94536E0C94AC7916
:100480000C9400002F923F924F925F926F927F9256
:100490008F929F92AF92BF92CF92DF92EF92FF9294
:1004A0000F931F93CF93DF93CDB7DEB7AB970FB604
:1004B000F894DEBF0FBECDBF7C01DC01DA96ED9172
:1004C000FC91DB97E0818E2F90E0FC01E057F10971
:1004D000E131F10510F00C94F418EE58FF4F0C9434
:1004E0003A77D701DC96ED91FC91DD9780818031E0
:1004F00009F4F7C180F5813011F00C94F4189701DC
:100500002E5B3F4F3C8F2B8FD9011D921C9255E1E2
:10051000A52E54E0B52EC12CD12C2C5F3F4F3A8F25
:10052000298F68EE462E63E0562E612C712C7FE1F8
:10053000872E72E0972E87EE99E03BE0380F3F8FD1
:10054000A7014E5A5F4F59A348A397012F5A3F4F17
:100550003BA32AA315C08701065B1F4F813109F415
:10056000F1C1803211F00C94F41881E0F701EB5BDB
:10057000FF4F8083339711821082F801108224C2CA
:10058000C7010E944A19182F8983C7010E944A197E
:100590008A83103A09F0F7C0833081F1863009F47C
:1005A000E0C0823009F01EC136E0C316D10419F450
:1005B0008FEA95E00DC041E0C416D10419F482E140
:1005C00095E006C058E0C516D10421F488ED97E007
:1005D0000E948372F501649170E08AEE98E00E94B7
:1005E00070298AEE98E00E94B12A8AEE98E00E9473
:1005F00032288AEE98E00E94AE29F4C0F6E0CF16C9
:10060000D10459F028E0C216D10451F031E0C316EC
:10061000D10459F482E195E005C08FEA95E002C06B
:1006200088ED97E00E949A61DDC0A98DBA8D8D9109
:100630009C91892B09F0D6C0F50131962490F501E3
:1006400034908FE190E00E9473788C01DC01139666
:100650001C921E921297FC01448255826682778218
:1006600091828082178A168A118E108E138E128EB6
:10067000158E148E668D6E7F6D7F668F66956170A8
:1006800081E06827822D0E94E82E61E0822D0E9481
:10069000182F822D90E0FC01E455FD4FE491D80124
:1006A0005096EC93FC01EE50FD4FE491F0E0EE0F1C
:1006B000FF1FEE56FD4F25913491F801328B218BAF
:1006C00060E0832D0E94182FD8015E968C9181FDE9
:1006D00004C061E0832D0E94E82EF8013486832D4A
:1006E00090E0FC01E455FD4FE491D8011D96EC9398
:1006F000FC01EE50FD4FE491F0E0EE0FFF1FE25AD7
:10070000FD4F25913491F80137872687C8010E9453
:10071000A96D8091570490915804A98DBA8D08173E
:10072000190781F00D911C910115110509F45AC0AA
:10073000F80191828082C8010E94A572C8010E94BE
:10074000087950C08D919C919093E5098093E409BC
:100750000E94A96DE7EEF9E011922F8C2E12FCCFCA
:1007600041C023E0C216D10429F481E0AAA1BBA1B3
:100770008C9338C0B5E0CB16D104A1F581E0E8A197
:10078000F9A180832FC09E012F5F3F4F1901A60161
:10079000440F551F5E8F4D8F00E010E0D1019D91F9
:1007A0001D01ED8DFE8DE00FF11FEB5EFB4F84917F
:1007B000933069F028F4913041F0923069F409C027
:1007C000943039F0963041F404C062E003C060E038
:1007D00001C061E00E94182F0130110519F001E0FD
:1007E00010E0DCCFBFEFCB1ADB0AE2E0AE0EB11CAB
:1007F000F9E0CF16D10409F0C3CE0AEB18E0C70127
:100800000E944A19D82EC7010E944A1990EA292E3F
:10081000D2100BC0843049F461E0C8010E94C63E8A
:100820006AE570E0C8010E94A03F045F1F4F28E006
:100830000A3E120721F7C7010E944A19182FC70163
:100840000E944A19103A59F4853049F4F701EF5AD9
:10085000FF4F408161E086E199E00E94AB53C70100
:100860000E944A19182FC7010E944A19103A59F4D8
:10087000853049F4F701EE5AFF4F408160E089E38B
:1008800099E00E94AB536FEF80E099E00E943B2813
:1008900080E099E00E94322880E099E00E94AE2931
:1008A000AB8DBC8D1D921C92F701E65BFF4F108251
:1008B000F70186819781DC01ED91FC910084F1853F
:1008C000E02D0995F701892B11F40C94E918868124
:1008D0009781DC01ED91FC910284F385E02D09956F
:1008E000E7CFF701EE5BFF4F1182108263E0C70193
:1008F0000E94595BF701E75BFF4F6081C7010E94CF
:10090000595B61E0C7010E94595BF701E65BFF4F4D
:100910001082F70186819781DC01ED91FC910084C2
:10092000F185E02D0995F701892B11F40C94E91854
:1009300086819781DC01ED91FC910284F385E02DA5
:100940000995E7CF6701B2E4CB0ED11CF601118205
:100950001082C7010E944A19A82EC7010E944A1995
:10096000B82EC7010E944A19F3E0AF1209C0F7017F
:10097000E75BFF4F2081B21203C061E0813009F0D4
:1009800060E0D6011D921C92C7010E94595BF801DC
:100990001082F70186819781DC01ED91FC91008442
:1009A000F185E02D0995892B11F40C94C315D7011D
:1009B00016968D919C911797DC01ED91FC91028424
:1009C000F385E02D0995E5CFF70186819781DC015C
:1009D000ED91FC910084F185E02D0995892B11F4AE
:1009E0000C94C315D70116968D919C911797DC0135
:1009F000ED91FC910284F385E02D0995E5CFD701B7
:100A0000DC96ED91FC91DD978081843009F477C10B
:100A100048F4823009F4A5C008F010C1813069F0B3
:100A20000C94F418813A09F458C2823A09F4E8C3E4
:100A3000853011F00C94F4189FC15701B2E4AB0E4D
:100A4000B11CF50111821082C7010E944A19182FAA
:100A5000C7010E944A19782EC7010E944A19682EC0
:100A6000C7010E944A19582ED701DE96ED91FC91DC
:100A7000DF978081813061F0823029F40AEEC02E48
:100A800008E0D02E09C0F5011182108288EE49C01D
:100A9000B0E0CB2EB9E0DB2E111112C0D6011296B8
:100AA0001C91812C912C8116A8F4052D262D472D03
:100AB000B401C6010E941F29BFEF8B1A9B0AF3CF16
:100AC000612F70E061507109052D262D472DC6015B
:100AD0000E941F2960E0C7010E946164C6010E9454
:100AE000AE290E944530F601078510892189328997
:100AF000DC01CB01801B910BA20BB30B8C3291401C
:100B0000A105B10570F364E070E080E090E00E9420
:100B10006A3061E0C7010E946164D5011D921C9298
:100B200080E0F701E65BFF4F808381110C94F4189D
:100B3000F70186819781DC01ED91FC910084F185BC
:100B4000E02D0995F701892B11F40C94E9188681A1
:100B50009781DC01ED91FC910284F385E02D0995EC
:100B6000E7CF6701B2E4CB0ED11CF60111821082EF
:100B7000C7010E944A19B82EC7010E944A19182FAE
:100B8000C7010E944A19282FC7012FA30E944A19A2
:100B9000D701DE96ED91FC91DF9790812FA19130E6
:100BA00051F0923019F4EAEEF8E007C0F601118234
:100BB000108288EE23C0E0E0F9E0BB2051F06B2DFD
:100BC00070E061507109082F412FCF010E941F2949
:100BD00011C0422F50E060E070E0762F652F542F57
:100BE0004427612B482B00E010E020E030E0CF01EB
:100BF0000E94E828D6011D921C9280E0F701E65B76
:100C0000FF4F808381110C94F418F701868197813E
:100C1000DC01ED91FC910084F185E02D0995F7014F
:100C2000892B11F40C94E91886819781DC01ED91F0
:100C3000FC910284F385E02D0995E7CFD701DE967C
:100C4000ED91FC91DF978081813061F0823019F461
:100C50000AEE18E009C0F701EE5BFF4F1182108227
:100C600088EE2BC000E019E060E0C7010E946164DB
:100C7000C8010E94AE290E944530F80187849088FF
:100C8000A188B288DC01CB0188199909AA09BB099E
:100C90008C329140A105B10570F364E070E080E012
:100CA00090E00E946A3061E0C7010E946164F70130
:100CB000EE5BFF4F1182108280E0F701E65BFF4F91
:100CC000808381110C94F418F70186819781DC01EF
:100CD000ED91FC910084F185E02D0995892B11F4AB
:100CE0000C94C315D70116968D919C911797DC0132
:100CF000ED91FC910284F385E02D0995E5CFD701B4
:100D0000DE96ED91FC91DF97808187010E5B1F4F8E
:100D1000813051F0823019F48AEE98E007C0F80172
:100D20001182108288EE08C080E099E00E9432288B
:100D3000D8011D921C9280E0F701E65BFF4F808393
:100D400081110C94F418F70186819781DC01ED91F3
:100D5000FC910084F185E02D0995F701892B11F4B0
:100D60000C94E91886819781DC01ED91FC91028455
:100D7000F385E02D0995E7CF3701B2E46B0E711CC6
:100D8000F30111821082D701DE96ED91FC91DF977D
:100D90008081813041F0823009F07EC07AEEC72E2A
:100DA00078E0D72E04C060E0C62E69E0D62EC701D9
:100DB0000E944A19882E10E048E0242E312C412C44
:100DC000512CAA24AA94B12C1815F1F1C7010E9444
:100DD0004A19982EC7010E944A19682FC7016EA3AD
:100DE0000E944A19082F6EA1693030F00E944873A2
:100DF000A20191010E94797470E0FB01EE0FFF1FC8
:100E0000E60FF71FE35DFD4F828121814081809FC6
:100E1000C0011124B5010E942677362F209FC00102
:100E20001124B5010E942677262F409FC00111246E
:100E3000B5010E942677462F692D70E0032FC60169
:100E40000E941F291F5FC0CF60E0C7010E9461643C
:100E5000C6010E94AE290E944530F601078510891F
:100E600021893289DC01CB01801B910BA20BB30BD2
:100E70008C329140A105B10570F364E070E080E030
:100E800090E00E946A3061E0C7010E946164D30172
:100E90001D921C9280E001C088EEF701E65BFF4FD7
:100EA000808381110C94F418F70186819781DC010D
:100EB000ED91FC910084F185E02D0995F701892BD6
:100EC00011F40C94E91886819781DC01ED91FC9175
:100ED0000284F385E02D0995E7CF1701B2E42B0ECC
:100EE000311CF10111821082C7010E944A19A82EFB
:100EF000C7010E944A19182FC7010E944A19B82E2B
:100F0000D701DE96ED91FC91DF978081813041F031
:100F1000823009F052C12AEE822E28E0922E04C0BF
:100F200090E0892E99E0992E193048F00E9448737C
:100F300028E030E040E050E00E947974162FC12E86
:100F4000D12CA11032C0F601EE0FFF1FEC0DFD1DDC
:100F5000E35DFD4F7280218180818B9DC001112452
:100F6000EFEFF0E0BF010E942677662E2B9DC001B7
:100F70001124BF010E942677062F10E020E030E008
:100F8000322F212F102F002726297B9CC0011124EE
:100F9000BF010E942677D901C801862BAC01BD0193
:100FA00000E010E020E030E047C0F401A281B3810E
:100FB000F601EE0FFF1FEC0DFD1DE35DFD4F4280BE
:100FC000498E418180818D01169507956A2D70E0CB
:100FD00061507109A69FF001A79FF00DB69FF00D1B
:100FE0001124F695E7958B9DC00111242FEF30E079
:100FF000B9010E942677762E4B9DC0011124B901BC
:101000000E942677462F50E060E070E0762F652F33
:10101000542F4427DB01CA01A7292C013D01498D2A
:101020004B9DC0011124B9010E942677D301C20152
:10103000862BAC01BD019F01C4010E94E82860E03D
:10104000C7010E946164C4010E94AE290E9445301C
:10105000D4011F960D911D912D913C915297DC0169
:10106000CB01801B910BA20BB30B8C329140A105DD
:10107000B10560F364E070E080E090E00E946A30C7
:1010800061E0C7010E946164D701DE96ED91FC9199
:10109000DF978081823009F08BC0B1E0AB1609F494
:1010A0005CC0AB1640F1E2E0AE1282C0F601EE0F7A
:1010B000FF1FEC0DFD1DE35DFD4F80818701025B8D
:1010C0001F4F8B9DC00111242FEF30E0B9010E940A
:1010D0002677D8016C9381810F5F1F4F8B9DC001D4
:1010E0001124B9010E942677D8016C938281F701FF
:1010F000E05BFF4F56C0F601EE0FFF1FEC0DFD1D2C
:10110000E35DFD4F80818B9DC00111242FEF30E006
:10111000B9010E942677162FD701A55BBF4F6C93AC
:1011200081818B9DC0011124B9010E942677462F31
:10113000D701A45BBF4F6C9382818B9DC0011124AA
:10114000B9010E942677F701E35BFF4F6083319678
:1011500010833196408331962AC0F601EE0FFF1FAF
:10116000EC0DFD1DE35DFD4F80818701055B1F4F89
:101170008B9DC00111242FEF30E0B9010E9426772A
:10118000D8016C9381810F5F1F4F8B9DC00111248B
:10119000B9010E942677D8016C938281F701E35B45
:1011A000FF4F8B9DC0011124B9010E9426776083F7
:1011B000F1011182108280E001C088EEF701E65B48
:1011C000FF4F808381110C94F418F7018681978179
:1011D000DC01ED91FC910084F185E02D0995892BCE
:1011E00011F40C94C315D70116968D919C91179705
:1011F000DC01ED91FC910284F385E02D0995E5CFAA
:10120000F701EE5BFF4F11821082C7010E944A195D
:1012100062E0680FC7010E947464F701E65BFF4F4C
:10122000808381110C94F418F70186819781DC0189
:10123000ED91FC910084F185E02D0995F701892B52
:1012400011F40C94E91886819781DC01ED91FC91F1
:101250000284F385E02D0995E7CFD701DC96ED9167
:10126000FC91DD97E0818E2F90E0FC013197E73013
:10127000F10510F00C94F418ED57FF4F87010E5B49
:101280001F4F0C943A77F80111821082C7010E9417
:101290003B5BD701DE96ED91FC91DF97208130E03A
:1012A000215031099CE0929FF001939FF00D112491
:1012B000E654F74F082E000C990B96838583F801AE
:1012C00011821082F701E65BFF4F1082F7018681E1
:1012D0009781DC01ED91FC910084F185E02D099569
:1012E000892B11F40C94C315D70116968D919C91FE
:1012F0001797DC01ED91FC910284F385E02D0995AF
:10130000E5CFF80111821082C7010E944A19482FC7
:10131000C7014CA30E944A19682FD701DE96ED91B0
:10132000FC91DF97208130E0215031095CE0529F31
:10133000C001539F900D11248654974F6EA30E94B5
:10134000CC3E4CA16EA1423049F0433061F04130B7
:1013500081F0F8011182108288EE23C0680F653B8E
:1013600040F064EB06C0681718F4861B682F01C0B4
:1013700060E070E0D701DE96ED91FC91DF9720816F
:1013800030E0215031094CE0429FC001439F900D55
:1013900011248654974F0E94A03FF80111821082B9
:1013A00080E0F701E65BFF4F808381110C94F41815
:1013B000F70186819781DC01ED91FC910084F18534
:1013C000E02D0995892B11F40C94C315D7011696BD
:1013D0008D919C911797DC01ED91FC910284F3852E
:1013E000E02D0995E5CFD701DE96ED91FC91DF97D1
:1013F000208130E0215031094CE0429FC001439FE1
:10140000900D11248654974F0E94CC3EF801118212
:101410001082682FC7010E94595BF701E65BFF4FFE
:101420001082F70186819781DC01ED91FC910084A7
:10143000F185E02D0995892B11F40C94C315D70182
:1014400016968D919C911797DC01ED91FC91028489
:10145000F385E02D0995E5CFF80111821082C701CF
:101460000E944A19582FC7015DA30E944A19682F8C
:10147000C7016EA30E944A19D82ED701DE96ED91BE
:10148000FC91DF97208130E0215031094CE0429FF0
:10149000C001439F900D11248654974F0E94CC3E6B
:1014A0005DA16EA1523049F0533061F0513081F0AE
:1014B000F8011182108288EE25C0680F653B40F06C
:1014C00064EB06C0681718F4861B682F01C060E043
:1014D0004D2D50E070E0D701DE96ED91FC91DF9745
:1014E000208130E021503109ECE0E29FC001E39F10
:1014F000900D11248654974F0E94433FF8011182AA
:10150000108280E0F701E65BFF4F808381110C942D
:10151000F418F70186819781DC01ED91FC9100843C
:10152000F185E02D0995892B11F40C94C315D70191
:1015300016968D919C911797DC01ED91FC91028498
:10154000F385E02D0995E5CF0E94BE5CF80111827C
:101550001082F701E65BFF4F1082F70186819781C9
:10156000DC01ED91FC910084F185E02D0995892B3A
:1015700011F40C94C315D70116968D919C91179771
:10158000DC01ED91FC910284F385E02D0995E5CF16
:10159000F80111821082C7010E944A19C82E5AEB25
:1015A000A52E58E0B52ED12CDC1479F0C7010E948D
:1015B0004A19853B28F4682F70E0C5010E94A03FBE
:1015C000D394FCE0AF0EB11CEFCFD8011D921C925A
:1015D000F701E65BFF4F1082F70186819781DC01FE
:1015E000ED91FC910084F185E02D0995F701892B9F
:1015F00011F40C94E91886819781DC01ED91FC913E
:101600000284F385E02D0995E7CFF801118210825D
:1016100064E0C7010E94595B0AEB18E0C8010E9410
:10162000CC3E682FC7010E94595B045F1F4FF8E052
:101630000A3E1F0799F7F701E65BFF4F1082F7019B
:1016400086819781DC01ED91FC910084F185E02D8C
:101650000995892B11F40C94C315D70116968D9119
:101660009C911797DC01ED91FC910284F385E02DAC
:101670000995E5CFD701DC96ED91FC91DD9780814E
:10168000F701E65BFF4F6F01823009F457C020F489
:10169000813051F00C94F418833009F48DC08430FB
:1016A00009F4F7C00C94F41887010E5B1F4FD801A2
:1016B0001D921C92C7010E943B5B682FD701DE96EA
:1016C000ED91FC91DF978081813041F0823091F47F
:1016D000062E000C770B89E399E005C0062E000C5E
:1016E000770B86E199E00E94E452D8011D921C928A
:1016F00080E004C0F8011182108288EEF601808338
:1017000081110C94F418F70186819781DC01ED9129
:10171000FC910084F185E02D0995892B11F40C943E
:10172000C315D70116968D919C911797DC01ED9109
:10173000FC910284F385E02D0995E5CFD701DE9673
:10174000ED91FC91DF97808187010E5B1F4F813007
:1017500011F0823069F486E199E00E94EE51D801DF
:101760001D921C92682FC7010E94295B80E004C073
:10177000F8011182108288EEF601808381110C94A9
:10178000F418F70186819781DC01ED91FC910084CA
:10179000F185E02D0995892B11F40C94C315D7011F
:1017A00016968D919C911797DC01ED91FC91028426
:1017B000F385E02D0995E5CF5701B2E4AB0EB11CDE
:1017C000F50111821082C7010E944A19282FC70112
:1017D0002FA30E944A19082FD701DE96ED91FC91A4
:1017E000DF9780812FA1813039F0823089F549E37C
:1017F000842E49E0942E04C036E1832E39E0932EE6
:1018000010E0C4012FA30E941C522FA1223099F096
:1018100038F4222369F02130D9F4080F191F0FC0C2
:10182000233069F02430A1F411950195110907C006
:1018300000E010E004C0FC01E01BF10B8F01B801D7
:10184000C4010E944252D5011D921C9280E001C049
:1018500088EEF601808381110C94F418F7018681DB
:101860009781DC01ED91FC910084F185E02D0995D3
:10187000892B11F40C94C315D70116968D919C9168
:101880001797DC01ED91FC910284F385E02D099519
:10189000E5CFD701DE96ED91FC91DF978081813015
:1018A00011F0823079F486E199E00E941C52F70130
:1018B000EE5BFF4F11821082BC01C7010E94035BE7
:1018C00080E001C088EEF601808381110C94F41849
:1018D000F70186819781DC01ED91FC910084F1850F
:1018E000E02D0995892B11F40C94C315D701169698
:1018F0008D919C911797DC01ED91FC910284F38509
:10190000E02D0995E5CFD701DC96ED91FC91DD97AF
:10191000E0818E2F90E0FC013197EA30F10510F064
:101920000C94F418E657FF4F0C943A7787010E5B3E
:101930001F4FF80111821082C7010E944A19D70176
:10194000DE96ED91FC91DF979081913081F524E650
:1019500030E0F901E81BF109CF01E0916209F09153
:1019600063091816190674F49C013595279594E6B9
:10197000921B9683E0916409F09165098C59821B52
:10198000868310C09195819591099C013595279585
:1019900094E6920F9683E0916409F0916509281B03
:1019A0002C592683D8011D921C9280E004C0F801B6
:1019B0001182108288EEF701E65BFF4F8083811170
:1019C0000C94F418F70186819781DC01ED91FC916C
:1019D0000084F185E02D0995892B11F40C94C31531
:1019E000D70116968D919C911797DC01ED91FC9192
:1019F0000284F385E02D0995E5CF5701B2E4AB0EE3
:101A0000B11CF50111821082C7010E944A19382FBA
:101A1000C7013EA30E944A19082F10E0C7010E9487
:101A20004A19282FC7012FA30E944A19C82ED12C6A
:101A300080916209909163090E94EE513EA12FA10D
:101A40003230A9F040F4332379F0313009F048C046
:101A5000080F191F10C0333071F0343009F040C046
:101A600011950195110907C000E010E004C01C01A8
:101A7000201A310A810180916209909163092FA394
:101A80000E94EE512FA1223099F038F4222369F000
:101A9000213031F5C80ED91E0FC0233069F0243033
:101AA000F9F4D194C194D10807C0C12CD12C04C041
:101AB0002C014C185D086201D701DE96ED91FC9176
:101AC000DF978081813049F4B601C8010E94B15B83
:101AD000F5011182108280E004C0D5011D921C9294
:101AE00088EEF701E65BFF4F808381110C94F418B8
:101AF000F70186819781DC01ED91FC910084F185ED
:101B0000E02D0995F701892B11F40C94E9188681D1
:101B10009781DC01ED91FC910284F385E02D09951C
:101B2000E7CFD701DE96ED91FC91DF978081813080
:101B3000F1F480916209909163090E94EE51682F3F
:101B400080916409909165096EA30E94EE51182F4F
:101B5000F701EE5BFF4F118210826EA1C7010E9458
:101B6000295B612FC7010E94295B80E001C088EEDC
:101B7000F701E65BFF4F808381110C94F418F701A5
:101B800086819781DC01ED91FC910084F185E02D47
:101B90000995F701892B11F40C94E9188681978136
:101BA000DC01ED91FC910284F385E02D0995E7CFEE
:101BB0006701B2E4CB0ED11CF60111821082C7017D
:101BC0000E94D55A8C01C7010E944A19D701DE969E
:101BD000ED91FC91DF9790819130B1F4A80160E024
:101BE00070E090E00E94AB4180E090E00E9499415B
:101BF000892B11F40C94001981E090E00E94994126
:101C0000892B91F70C94001988EEF701E65BFF4FE2
:101C1000808381110C94F418F70186819781DC018F
:101C2000ED91FC910084F185E02D0995F701892B58
:101C300011F40C94E91886819781DC01ED91FC91F7
:101C40000284F385E02D0995E7CF87010E5B1F4FD6
:101C5000F80111821082C7010E94D55A6C01C70198
:101C60000E944A19D701DE96ED91FC91DF97908191
:101C70009130C9F4A60160E070E090E09195819503
:101C800091090E94AB4180E090E00E949941892B2C
:101C900011F40C940C1981E090E00E949941892B79
:101CA00091F70C940C1988EEF701E65BFF4F8083E7
:101CB00081110C94F418F70186819781DC01ED9174
:101CC000FC910084F185E02D0995F701892B11F431
:101CD0000C94E91886819781DC01ED91FC910284D6
:101CE000F385E02D0995E7CF87010E5B1F4FF801C3
:101CF00011821082C7010E94D55A6C01C7010E944F
:101D00004A19282FD701DE96ED91FC91DF9780814B
:101D1000813011F530E088279927821B930B29F039
:101D2000A60160E070E00E94484180E090E00E94DF
:101D30009941892BD1F781E090E00E949941892B4C
:101D4000A1F764E670E080E090E00E946A30F8015C
:101D50001182108280E001C088EEF701E65BFF4F40
:101D6000808381110C94F418F70186819781DC013E
:101D7000ED91FC910084F185E02D0995F701892B07
:101D800011F40C94E91886819781DC01ED91FC91A6
:101D90000284F385E02D0995E7CF87010E5B1F4F85
:101DA000F80111821082C7010E94D55A6C01C70147
:101DB0000E944A19D701DE96ED91FC91DF97908140
:101DC0009130F9F490E0009729F0A60160E070E00E
:101DD0000E94484180E090E00E949941892BD1F710
:101DE00081E090E00E949941892BA1F764E670E0C0
:101DF00080E090E00E946A30D8011D921C9280E041
:101E000001C088EEF701E65BFF4F808381110C94DF
:101E1000F418F70186819781DC01ED91FC91008433
:101E2000F185E02D0995F701892B11F40C94E9183F
:101E300086819781DC01ED91FC910284F385E02D90
:101E40000995E7CFD701DE96ED91FC91DF97808170
:101E5000813069F460E070E080E090E00E94C3406F
:101E6000F701EE5BFF4F1182108280E001C088EE27
:101E7000F701E65BFF4F808381110C94F418F701A2
:101E800086819781DC01ED91FC910084F185E02D44
:101E90000995F701892B11F40C94E9188681978133
:101EA000DC01ED91FC910284F385E02D0995E7CFEB
:101EB00087010E5B1F4FF80111821082C7010E943B
:101EC0004A19D701DE96ED91FC91DF979081913010
:101ED00079F4E0916209F09163098783E0916409E4
:101EE000F09165098783F8011182108280E001C0BA
:101EF00088EEF701E65BFF4F808381110C94F418A4
:101F0000F70186819781DC01ED91FC910084F185D8
:101F1000E02D0995892B09F436C6D70116968D91C7
:101F20009C911797DC01ED91FC910284F385E02DE3
:101F30000995E6CF87010E5B1F4FF80111821082D1
:101F4000C7010E944A19D701DE96ED91FC91DF97F7
:101F50009081913019F5682F70E080E090E00E9448
:101F60005C7320916609309167094091680950912E
:101F700069090E94BB7320E030E048EC52E40E9403
:101F8000BB756093660970936709809368099093A5
:101F90006909F8011182108280E001C088EEF70122
:101FA000E65BFF4F808381110C94F418F701868162
:101FB0009781DC01ED91FC910084F185E02D09957C
:101FC000892B09F4E0C5D70116968D919C9117973E
:101FD000DC01ED91FC910284F385E02D0995E6CFBB
:101FE000D701DC96ED91FC91DD9780818701065B3E
:101FF0001F4F823009F473C0833009F4A3C08130CD
:1020000011F00C94F4186701B2E4CB0ED11CF60168
:1020100011821082C7010E944A19B82EC7010E947E
:102020004A19A82ED701DE96ED91FC91DF978081A9
:102030008130B1F5BB2071F0EB2DF0E0EE0FFF1F0A
:10204000E35BFD4F6081718120E030E0A90184E015
:102050000E94D946EA2DF0E0EB5BFD4F208130E095
:10206000A0E6BAEE0E94CD74E4E096958795779548
:102070006795EA95D1F7F701ED5AFF4F208131813D
:1020800040E050E00E94AB74CA01B9010E946A307E
:1020900084E00E949546F6011182108280E001C022
:1020A00088EED8018C9381110C94F418F701868185
:1020B0009781DC01ED91FC910084F185E02D09957B
:1020C000F701892B11F40C94E91886819781DC01C2
:1020D000ED91FC910284F385E02D0995E7CF67012E
:1020E000B2E4CB0ED11CF60111821082C7010E940E
:1020F000D55AD6011D921C92482F50E060E070E046
:10210000C7010E948662F801808381110C94F41843
:10211000F70186819781DC01ED91FC910084F185C6
:10212000E02D0995892B09F42EC5D70116968D91BE
:102130009C911797DC01ED91FC910284F385E02DD1
:102140000995E6CF6701B2E4CB0ED11CF6011182EE
:102150001082C7010E94D55AF701ED5AFF4F9183B3
:102160008083D6011D921C92F8011082F7018681AE
:102170009781DC01ED91FC910084F185E02D0995BA
:10218000892B09F400C5D70116968D919C9117975C
:10219000DC01ED91FC910284F385E02D0995E6CFF9
:1021A000D701DC96ED91FC91DD978081823009F4B6
:1021B0006EC0B0F4813011F00C94F41887010E5BFE
:1021C0001F4FF80111821082FE013D965E0121E150
:1021D000A20EB11CCF01670130E4C30ED11C0BC0AD
:1021E0008701065B1F4F833009F4A5C0843009F4D2
:1021F000E3C00C94F418D6014D915C91D8012D9157
:102200003C911197B9016F5F7F4F6D937C93240FC1
:10221000351FD9014C9150E060E070E049835A834A
:102220006B837C834193EA15FB0529F7D701DE9682
:10223000ED91FC91DF972081213039F40E94E85E16
:10224000F8011182108280E004C0D8011D921C9216
:1022500088EEF701E65BFF4F80838111C5C7F70168
:1022600086819781DC01ED91FC910084F185E02D60
:102270000995F701892B09F4ACC786819781DC01A8
:10228000ED91FC910284F385E02D0995E8CF87015B
:102290000E5B1F4FF80111821082C7010E944A197C
:1022A000D701DE96ED91FC91DF979081913011F589
:1022B000813049F030F0823041F08330D9F48DEA3A
:1022C00005C08BEA03C08AEA01C08CEA8093E70963
:1022D00081E00E943A5E0E94B95D8BEA8093E70933
:1022E00081E00E943A5E0E94B95DF801118210827D
:1022F00080E001C088EEF701E65BFF4F808381112B
:1023000073C7F70186819781DC01ED91FC91008410
:10231000F185E02D0995892B09F435C4D70116966E
:102320008D919C911797DC01ED91FC910284F385CE
:10233000E02D0995E6CF6701B2E4CB0ED11CF60182
:1023400011821082C7010E944A19D701DE96ED91D1
:10235000FC91DF979081913091F49EEA9093E70988
:10236000803208F08FE18093E80982E00E943A5EB3
:102370000E94B95DF6011182108280E001C088EEF2
:10238000D8018C93811130C7F70186819781DC01D8
:10239000ED91FC910084F185E02D0995F701892BE1
:1023A00009F417C786819781DC01ED91FC910284C5
:1023B000F385E02D0995E8CF6701B2E4CB0ED11C7F
:1023C000F60111821082C7010E944A19D701DE96D8
:1023D000ED91FC91DF979081913079F49FEA909391
:1023E000E7098093E80982E00E943A5E0E94B95DA5
:1023F000F6011182108280E004C0D6011D921C9269
:1024000088EEF80180838111EFC6F70186819781FC
:10241000DC01ED91FC910084F185E02D0995892B7B
:1024200009F4B1C3D70116968D919C911797DC01E1
:10243000ED91FC910284F385E02D0995E6CFD7015B
:10244000DC96ED91FC91DD9780818701065B1F4F43
:10245000823009F47FC018F4813061F1C5C6833041
:1024600009F4C0C0843009F0BFC66701B2E4CB0EE6
:10247000D11CF60111821082C7010E944A19D701AE
:10248000DE96ED91FC91DF97E081F0E03197EE0F61
:10249000FF1FE80FF11DEB5EFB4F84910E941B3084
:1024A000F60111821082BC01C7010E94AF5AD80107
:1024B0001C92D6C06701B2E4CB0ED11CF60111828A
:1024C0001082C7010E944A19682FC7016EA30E949B
:1024D0004A19B82E6EA1623070F4D701DE96ED91E4
:1024E000FC91DF97E081F0E0EE0FFF1FED5EFB4F08
:1024F00084910E94E82EB1E0BB1578F0D701DE96FA
:10250000ED91FC91DF97E081F0E0EE0FFF1FEC5EB4
:10251000FB4F84916B2D0E94E82EF60111821082F0
:10252000D8011C92F70186819781DC01ED91FC9125
:102530000084F185E02D0995F701892B09F449C63E
:1025400086819781DC01ED91FC910284F385E02D79
:102550000995E8CFD701DE96ED91FC91DF97E081F8
:10256000F0E0EE0FFF1FED5EFB4F84910E94BF2E47
:10257000682FD701DE96ED91FC91DF97E081F0E0C6
:10258000EE0FFF1FEC5EFB4F84916EA30E94BF2EE7
:10259000D82EF701EE5BFF4F118210826EA1C701AA
:1025A0000E94595B6D2DC7010E94595BF801108292
:1025B000F70186819781DC01ED91FC910084F18522
:1025C000E02D0995892B09F4DEC2D70116968D916D
:1025D0009C911797DC01ED91FC910284F385E02D2D
:1025E0000995E6CF6701B2E4CB0ED11CF60111824A
:1025F0001082C7010E944A19B82EC7010E94D55AFD
:10260000BC01D701DE96ED91FC91DF97E081F0E00F
:102610003197EE0FFF1FEB0DF11DEB5EFB4F849129
:1026200077270E94542FF60111821082D8011C9244
:10263000F70186819781DC01ED91FC910084F185A1
:10264000E02D0995F701892B09F4C3C5868197818F
:10265000DC01ED91FC910284F385E02D0995E8CF32
:10266000F70186819781DC01ED91FC910084F18571
:10267000E02D0995F701892B09F4ABC58681978177
:10268000DC01ED91FC910284F385E02D0995E8CF02
:10269000D701DC96ED91FC91DD978081813009F0C6
:1026A000A3C587010E5B1F4FF80111821082DE96D1
:1026B000ED91FC91DF978081813019F0823041F0FB
:1026C00002C08FE306C08FE30E94BF2E892B31F436
:1026D00084E40E94BF2E61E0892B09F060E0D801FC
:1026E0001D921C92C7010E94595BF701E65BFF4FE8
:1026F0001082F70186819781DC01ED91FC910084C5
:10270000F185E02D0995F701892B09F462C58681D1
:102710009781DC01ED91FC910284F385E02D099510
:10272000E8CFD701DC96ED91FC91DD978081833075
:1027300009F42BC230F4813089F0823009F4F3C0FF
:1027400053C5F701E65BFF4F6F01853009F4D9C22D
:1027500008F47AC2863009F4B3C346C5D701DE96C1
:10276000ED91FC91DF978081813009F0B6C00E9425
:10277000A4304B015C01FE0131966F018CE0DF015A
:102780001D928A95E9F7B2E04B2E512C612C712CE9
:10279000C6010E942D2E892B09F098C00EEB19E07E
:1027A000E6EDF9E0FA8FE98F1601F1018081918160
:1027B000A281B381F80144815581668177814817F0
:1027C00059076A077B0744F484839583A683B783FC
:1027D0000E94A4304B015C01F10181919191A19182
:1027E000B1911F01F8014081518162817381841789
:1027F0009507A607B70744F480839183A283B38328
:102800000E94A4304B015C01D8012D913D914D9166
:102810005C91139714968D919D910D90BC91A02D74
:10282000280F391F4A1F5B1FCA01B901A30192017A
:102830000E947974E98DFA8D2193319341935193DC
:10284000FA8FE98F0E94A430DC01CB018819990925
:10285000AA09BB09893B9B40A105B10578F180918C
:10286000D6099091D709A091D809B091D909B0950E
:10287000A095909581959F4FAF4FBF4F8093D609FC
:102880009093D709A093D809B093D9098091DE0914
:102890009091DF09A091E009B091E109B095A09570
:1028A000909581959F4FAF4FBF4F8093DE099093D6
:1028B000DF09A093E009B093E10908C0085F1F4F4A
:1028C00029E0063D120709F070CF62CFF701EE5BF9
:1028D000FF4F1182108280E006C0F701EE5BFF4FD0
:1028E0001182108288EEF701E65BFF4F8083811131
:1028F0007BC4F70186819781DC01ED91FC91008416
:10290000F185E02D0995892B09F43DC1D701169673
:102910008D919C911797DC01ED91FC910284F385D8
:10292000E02D0995E6CF87010E5B1F4FF80111825C
:102930001082D701DE96ED91FC91DF978081813086
:1029400009F001C1BE01635F7F4F8CE0FB01119272
:102950008A95E9F783EB99E00E944E3D892B09F0B7
:10296000E8C049895A896B897C898D849E84AF84AB
:10297000B888DB01CA0177FF07C088279927DC01E7
:10298000841B950BA60BB70B4D885E886F88788CDF
:1029900077FE08C07094609450944094411C511C80
:1029A000611C711C84159505A605B70514F4D301A7
:1029B000C20124013501B7FE07C044245524320169
:1029C000481859086A087B0884159505A605B705B7
:1029D00014F4D301C20188159905AA05BB0559F065
:1029E000C12CD12C84179507A607B70739F0882486
:1029F0008394912C06C0CC24C394D12CE2E08E2E7B
:102A0000912C9E012F5F3F4F59018CE0D9011D92FF
:102A10008A95E9F7C9010E942D2E892B09F089C0FA
:102A200089819A81AB81BC81B095A0959095819563
:102A30009F4FAF4FBF4F89839A83AB83BC838985F8
:102A40009A85AB85BC85B095A095909581959F4F53
:102A5000AF4FBF4F89879A87AB87BC87D401AA0F36
:102A6000BB1FAA0FBB1FAA0DBB1DF401EE0FFF1F5A
:102A7000EE0FFF1FEA52F64F8D919D910D90BC9184
:102A8000A02D4080518062807380BC01CD0164190B
:102A90007509860997090E945C739B01AC01C60108
:102AA000880F991F880F991FD501A80FB91FF6012C
:102AB0007B96EE0FFF1FEE0FFF1FE659F64F8D912D
:102AC0009D910D90BC91A02D80809180A280B380BB
:102AD000BC01CD01681979098A099B092FA33EA37E
:102AE0004CA35DA30E945C732FA13EA14CA15DA1EC
:102AF0000E945C7521EE3EE245E652E40E94BB7303
:102B000020E030E040E05FE30E94DD740E942D761B
:102B100077FF11C0072E000C880B990B0E945C7385
:102B200020E030E044EB53E40E94DD740E942D76F7
:102B300002C06FEF7FEFF80111821082C7010E947F
:102B4000AF5A80E001C088EEF701E65BFF4F80835B
:102B500081114AC3F70186819781DC01ED91FC91D7
:102B60000084F185E02D0995892B69F0D70116962F
:102B70008D919C911797DC01ED91FC910284F38576
:102B8000E02D0995E7CFF70124C387010E5B1F4FA6
:102B9000F80111821082C7010E944A19D82ED7016C
:102BA000DE96ED91FC91DF978081813019F58FEFF2
:102BB0008D0D8330A0F4BE016F5F7F4F83EB99E0F2
:102BC0000E944E3DE1E0F0E0EC0FFD1FB4E0DB9E23
:102BD000E00DF11D112434976081718110C00E94B5
:102BE000B82D20E030E040E854E40E94BB730E941E
:102BF0002D7605C0F8011182108288EE07C0D80139
:102C00001D921C92C7010E94035B80E0F701E65B06
:102C1000FF4F80838111E8C2F70186819781DC0133
:102C2000ED91FC910084F185E02D0995F701892B48
:102C300009F4CFC286819781DC01ED91FC91028479
:102C4000F385E02D0995E8CF87010E5B1F4FF80152
:102C500011821082D701DE96ED91FC91DF97808181
:102C6000813091F5AE014F5F5F4F6CE083EB99E0EF
:102C70000E94F43CAE014E5F5F4F6DE083EB99E044
:102C80000E94F43C6A8170E0762F66278981682B68
:102C9000F80111821082072E000C880B990B0E94FC
:102CA0005C7320E030E040E85BE30E94BB7320E00F
:102CB00030E048EC51E40E94DD740E942D76C7019B
:102CC0000E94035B80E001C088EED6018C938111E5
:102CD0008BC2F70186819781DC01ED91FC91008424
:102CE000F185E02D0995F701892B09F472C28681DF
:102CF0009781DC01ED91FC910284F385E02D09952B
:102D0000E8CF5701B2E4AB0EB11CF501118210827D
:102D1000C7010E944A1990E08B30910508F0A7C0C6
:102D2000FC01EC56FF4F0C943A770E94B82D11E04D
:102D300020E030E040EC5FE394C00E94B82D2DEC21
:102D40003CEC4CEC5DE30E945573182F111F1127CA
:102D5000111F92C0BE016F5F7F4F83EB99E00E940D
:102D60004E3D11E089819A81AB81BC818D3B9240BF
:102D7000A105B1050CF080C078C0BE016F5F7F4F28
:102D800083EB99E00E944E3D11E089819A81AB81ED
:102D9000BC8184349D4FAF4FBF4F0CF46DC065C0F4
:102DA000BE016F5F7F4F83EB99E00E944E3D11E0C3
:102DB0008D819E81AF81B8858D3B9240A105B10583
:102DC0000CF05AC052C0BE016F5F7F4F83EB99E099
:102DD0000E944E3D11E08D819E81AF81B885843483
:102DE0009D4FAF4FBF4F0CF447C03FC0BE016F5F58
:102DF0007F4F83EB99E00E944E3D11E089859A85D3
:102E0000AB85BC858D3B9240A105B105ACF52DC0CD
:102E1000BE016F5F7F4F83EB99E00E944E3D11E052
:102E200089859A85AB85BC8584349D4FAF4FBF4F54
:102E30001CF11BC00E94B82D11E020E030E040E4FE
:102E400050E40FC00E94B82D11E020E030E040ECCB
:102E500050E407C00E94B82D11E020E030E040E0CF
:102E600051E40E948A7618163CF010E005C0D501A6
:102E70001D921C9288EE08C0F50111821082612F0C
:102E8000C7010E94595B80E0D6018C938111ACC1CF
:102E9000F70186819781DC01ED91FC910084F18539
:102EA000E02D0995F701892B09F493C1868197815B
:102EB000DC01ED91FC910284F385E02D0995E8CFCA
:102EC00087010E5B1F4FF80111821082C7010E941B
:102ED0004A19782EF1E0F81708F45AC0BE016F5F66
:102EE0007F4F8CE0DB011D928A95E9F783EB99E037
:102EF0000E944E3D892B09F041C089859A85AB859A
:102F0000BC851C012D0166277727CB016219730947
:102F1000840995090E945C734B015C0149815A81C7
:102F20006B817C811A012B0166277727CB016219FF
:102F30007309840995090E945C73A50194010E949C
:102F40005C753324339473100AC06D817E818F8148
:102F500098850E945C73A50194010E945C7521EE26
:102F60003EE245E652E40E94BB7320E030E040E0E0
:102F70005FE30E94DD740E942D7602C06FEF7FEF49
:102F8000D8011D921C92C7010E94035B80E004C01F
:102F9000F8011182108288EED6018C93811124C130
:102FA000F70186819781DC01ED91FC910084F18528
:102FB000E02D0995F701892B09F40BC186819781D2
:102FC000DC01ED91FC910284F385E02D0995E8CFB9
:102FD000D701DC96ED91FC91DD978081F701E65BEE
:102FE000FF4F1F01813019F0833021F0FDC088EEC2
:102FF0008083FAC0F701EE5BFF4FFA8FE98F1182F1
:103000001082C7010E94D55A8C01C7010E94D55A6F
:10301000D701DE96ED91FC91DF972081213009F0F8
:10302000B8C09C018536910510F024E630E0A80177
:103030000936114010F048E651E02A01612C712C4C
:103040004901A12CB12C4A355105E0F44FEF429FC4
:10305000C001439F900D112464E670E00E94267722
:103060008B01A2E0BEEFA30192010E94A6742AE5A3
:1030700030E040E050E00E94797421503F4F4F4FC4
:103080005F4F47C0443B510508F541E0429FC001F6
:10309000439F900D921B112464E670E00E942677F6
:1030A0006B01A30192012A55310941095109A2E09E
:1030B000BEEF0E94A6742AE530E040E050E00E9496
:1030C000797421503F4F4F4F5F4F4EC04E305140AB
:1030D00060F541E0429FC001439F900D921B112477
:1030E00064E670E00E9426778B01A3019201245BC5
:1030F000310941095109AEEFB1E00E9498742AE507
:1031000030E040E050E00E9479742F5F31094109BE
:103110005109C501B4010E94F67624E630E040E092
:1031200050E00E94797469012AC04FEF429FC001AC
:10313000439F900D112464E670E00E9426776B0196
:10314000A30192012E50314041095109AEEFB1E087
:103150000E9498742AE530E040E050E00E947974C3
:103160002F5F310941095109C501B4010E94F6766A
:1031700024E630E040E050E00E9479748901B60115
:10318000C8010E94C340A98DBA8D1D921C9280E097
:1031900005C0E98DFA8D1182108288EED1018C93E1
:1031A000811122C0F70186819781DC01ED91FC91AC
:1031B0000084F185E02D0995F701892B51F0868176
:1031C0009781DC01ED91FC910284F385E02D099556
:1031D000E9CFA4ADB5AD82AD93AD4C91DC016C915E
:1031E000C7010E94F05824C0F701E65BFF4F6081E1
:1031F000369780818823E1F0C7010E94B65818C035
:1032000064E670E080E090E00E946A30F60111828E
:10321000108280E00C94050E64E670E080E090E09F
:103220000E946A30D8011D921C9280E00C94540ECA
:10323000AB960FB6F894DEBF0FBECDBFDF91CF9136
:103240001F910F91FF90EF90DF90CF90BF90AF90C4
:103250009F908F907F906F905F904F903F902F90B6
:10326000089508952AE832E0FC01318320830C940C
:10327000516924E732E0FC01318320830C945169C9
:10328000CF93DF93EC010E943919CE01DF91CF91EA
:103290000C940879CF93DF9300D000D0CDB7DEB780
:1032A000FC01E05CFF4F2081318132968081918169
:1032B000AC014F5F5F4F51834083F901E80FF91F65
:1032C00080810F900F900F900F90DF91CF91089514
:1032D0004F925F926F927F928F929F92AF92BF9226
:1032E000CF92DF92EF92FF920F931F93CF93DF93D2
:1032F00000D000D01F92CDB7DEB78C01DC01DA968A
:10330000ED91FC91DB978081803809F0DAC1DC9681
:10331000ED91FC91DD978081813009F0D2C12801C7
:10332000B2E44B0E511CF20111821082C8010E94BE
:103330004A19D2011D921C92D801DE96ED91FC91A2
:10334000DF976081623C60F4603C08F05DC16039E9
:1033500008F477C1603A58F0603B08F03BC171C196
:10336000623C09F45AC1603D08F459C16AC1823017
:1033700009F465C16F70613009F486C020F06230D5
:1033800009F4A8C05EC182E394E00E94E85E23E0F5
:10339000E22EF12C6801B6E5CB0ED11CF60184813A
:1033A00095810E94CC3E5C0180E090E00E949941B2
:1033B0004C018035910559F081E58816910424F07F
:1033C000A1E08A1A910803C0BFEF8B1A9B0A60E044
:1033D00070E0C4010E94C34061E070E080E090E0D2
:1033E0000E946A30E0E58E169104F1F6B501615F46
:1033F0007F4FD60114968D919C9115970E94A03F06
:1034000064E670E080E090E00E946A3080E090E046
:103410000E9499414C018B3CBFEF9B0751F08C3CC3
:103420009F4F24F0F1E08F1A910803C08FEF881AA4
:10343000980A60E070E0C4010E94C34061E070E05F
:1034400080E090E00E946A30ABEC8A16AFEF9A06FB
:10345000E9F6B501F601848195810E94A03F6CE2F6
:1034600071E080E090E00E946A3060E070E080E00F
:1034700090E00E94C340F1E0EF1AF10809F08ECF0E
:10348000D2011D921C92DBC093E0E92EF12C64EC7A
:103490007FEF8CE390E00E94C34064EF71E080E036
:1034A00090E00E946A306CE370E084EC9FEF0E9431
:1034B000C34064EF71E080E090E00E946A3060E019
:1034C00070E080E090E00E94C340B1E0EB1AF108A8
:1034D000F1F6D6CF0E94487323E030E040E050E0A0
:1034E0000E947974613071058105910561F0623047
:1034F00071058105910551F0672B682B692B51F4FB
:1035000087E394E005C08CE394E002C081E494E09A
:103510000E94E85E0E94487323E030E040E050E003
:103520000E9479747B0183E0682E712C6801E6E5C6
:10353000CE0ED11CD60118968D919C9119970E94A0
:10354000CC3E4C01F601868197810E94CC3E5C0105
:10355000F1E0EF16F10459F4B401615F7F4FD60139
:1035600018968D919C9119970E94A03F0BC0BC01A9
:10357000615F7F4FF601868197810E94A03FE11431
:10358000F10451F766E970E080E090E00E946A3053
:10359000F1E0EF16F10449F4B401D60118968D91CB
:1035A0009C9119970E94A03F09C0B501F601868140
:1035B00097810E94A03FE114F10471F766E970E081
:1035C00080E090E00E946A30F1E06F1A710809F023
:1035D000B1CF56CF823099F185E0EBE6F2E0DE0123
:1035E000119601900D928A95E1F76F70E1E0F0E09D
:1035F000EC0FFD1FE60FF11D408150E060E070E030
:10360000C8010E9486621EC08230A1F480E099E069
:103610000E94322880E099E00AC062E00CC082304B
:1036200049F48AEE98E00E9432288AEE98E00E94DF
:10363000AE2905C06F70C8010E94746403C080E0A9
:1036400001C088EEF801E65BFF4F8083811139C02D
:10365000F80186819781DC01ED91FC910084F18570
:10366000E02D0995892B69F0D80116968D919C91D2
:103670001797DC01ED91FC910284F385E02D09950B
:10368000E7CFF801A4ADB5AD82AD93AD4C91DC01AF
:103690006C91C8010F900F900F900F900F90DF91D9
:1036A000CF911F910F91FF90EF90DF90CF90BF903F
:1036B000AF909F908F907F906F905F904F900C9401
:1036C000F058C8010F900F900F900F900F90DF915E
:1036D000CF911F910F91FF90EF90DF90CF90BF900F
:1036E000AF909F908F907F906F905F904F900C94D1
:1036F0004202DC01ED91FC910190F081E02D0994F2
:103700002F923F924F925F926F927F928F929F92F1
:10371000AF92BF92CF92DF92EF92FF920F931F93DF
:10372000CF93DF93CDB7DEB7CE5AD1090FB6F89459
:10373000DEBF0FBECDBF8FE390E00E94AA3C88237E
:1037400009F458C02CE231E040E050E064EF71E051
:1037500084E00E94D94620E230E240E050E060E0A0
:1037600070E080E099E00E947C2880E099E00E946F
:10377000AE296CE271E080E090E00E946A3080E067
:1037800099E00E94322880E099E00E94AE2901E091
:1037900020E630E040E050E068ED77E0CE010196B1
:1037A0000E942B6B80E690E0A0E0B0E0C955DF4FAF
:1037B00088839983AA83BB83C75AD0408EE094E064
:1037C000CB55DF4F99838883C55AD04088ED97E069
:1037D000C555DF4F99838883CB5AD04041E061EBD8
:1037E000CE018B559F4F0E94264CCE0101960E9420
:1037F0005269FBCF84E490E00E94AA3C8823B1F197
:103800002CE231E040E050E068EE73E084E00E949A
:10381000D94620E030E240E050E061E070E080E036
:1038200099E00E947C2880E099E00E94AE298CE417
:1038300096E00E944245892B49F08CE496E00E9474
:103840002045BC0188ED97E00E94791B88ED97E048
:103850000E944245892B59F388ED97E00E9420454C
:10386000BC018CE496E00E94791BE1CF85E798E0EB
:103870000E94765A892B09F06EC7E091AF08F0914B
:10388000B0088081803759F5E091B108F091B20815
:103890008081803121F51092B8081092B70885E731
:1038A00098E00E944A19182F85E798E00E944A196B
:1038B000F82E1330A1F42CE231E040E050E064EF48
:1038C00071E084E00E94D94682E0F81609F407C14D
:1038D000E3E0FE1609F47EC1F1E0FF1689F0E09105
:1038E000AF08F091B0088081803709F034C7E091CB
:1038F000B108F091B2088081823109F02CC711C261
:1039000028EC30E040E050E064EF71E084E00E9499
:10391000D94600E010E020E030E040E250E0BA019B
:1039200080E099E00E94E82880E099E00E94AE29BA
:103930006CE271E080E090E00E946A3080E099E003
:103940000E94322880E099E00E94AE2920E630E013
:1039500040E050E068ED77E0CE0101960E942B6BCD
:1039600084E792E09A83898380E267968FAF6797B6
:1039700080EA92E069969FAF8EAF69978BEF99E0EE
:103980006B969FAF8EAF6B9782ED98E06D969FAF71
:103990008EAF6D978EED98E06F969FAF8EAF6F975D
:1039A0008AEB98E0A1969FAF8EAFA19712E02B967D
:1039B0001FAF2B9788ED97E00E945A5CE5E1F4E099
:1039C000649170E08AEE98E00E9470296CE070E0EB
:1039D0008AEE98E00E94792A9091F8088091F50883
:1039E000F092F808F092F5081092F6081093F70894
:1039F000F092EA082091F3083091F408232B51F05B
:103A0000981741F06091EC087091ED088AEE98E00B
:103A10000E94792A8AEE98E00E94B12A2D961FAE64
:103A20002D9767968FAD67972E968FAF2E972F960F
:103A30008FAF2F972F968DAD9EADAFAD2F9762961E
:103A40008DAF9EAFAFAF6297E12CF12C8091EC0867
:103A50009091ED08E816F90690F42F960FAD2F9788
:103A60002E962FAD2E972D964FAD2D97B7018AEE3E
:103A700098E00E941F298FEFE81AF80AE7CF8AEE34
:103A800098E00E94AE2982E195E00E949A610AEBDB
:103A900018E061E0C8010E94C63E045F1F4FE8E0E5
:103AA0000A3E1E07B1F78AEB98E00E94AC6182EDF6
:103AB00098E00E94AC6181E00E94425C61E084E099
:103AC0000E94182F61E08DE10E94182F60E08DE1C7
:103AD0000E94E82ECE0101960E945269FBCF28EC8D
:103AE00030E040E050E068EE73E084E00E94D946A8
:103AF00000E010E020E030E040E250E260E070E002
:103B000080E099E00E94E82880E099E00E94AE29D8
:103B10006CE271E080E090E00E946A3080E099E021
:103B20000E94322880E099E00E94AE2920E630E031
:103B300040E050E068ED77E0CE0101960E942B6BEB
:103B40008AE892E09A8389830EED18E022ED38E04E
:103B50004AEB58E06BEF79E0CE018A5A9F4F0E9402
:103B60004538CD55DF4F19821882C35AD0402B9665
:103B7000FFAE2B9788ED97E00E945A5C8FEA95E0A4
:103B80000E949A610AEB18E061E0C8010E94C63EFB
:103B9000045F1F4FF8E00A3E1F07B1F78EED98E073
:103BA0000E94AC6182ED98E00E94AC6181E00E94CD
:103BB000425C61E084E00E94182F61E08DE10E9488
:103BC000182F60E08DE10E94E82ECE0101960E9440
:103BD0005269FBCF28EC30E040E050E06CED75E03E
:103BE00084E00E94D94600E010E020E030E040E0B0
:103BF00050E260E270E080E099E00E94E82880E016
:103C000099E00E94AE296CE271E080E090E00E94B1
:103C10006A3080E099E00E94322880E099E00E94BA
:103C2000AE2920E630E040E050E068ED77E0CE01DC
:103C300001960E942B6B89EA93E09A8389838CE931
:103C400093E068969FAF8EAF689782E369968FAFD7
:103C5000699784E690E06B969FAF8EAF6B9782E397
:103C600090E06D969FAF8EAF6D978BEF99E06F965A
:103C70009FAF8EAF6F9784E0A0968FAFA097E1E2E1
:103C8000F4E0E491A196EFAFA197E2E2F4E0E491D1
:103C9000A296EFAFA297E9E1F4E0E491A396EFAF2B
:103CA000A397EAE1F4E0E491A496EFAFA497A59678
:103CB0001FAEA5972B96FFAE2B9788ED97E00E943D
:103CC0005A5C0AEB18E061E0C8010E94C63E045F3E
:103CD0001F4F88E00A3E1807B1F782ED98E00E9476
:103CE000AC6162E0A1968FADA1970E94182F62E0AF
:103CF000A2968FADA2970E94182F62E0A3968FAD77
:103D0000A3970E94182F62E0A4968FADA4970E94FB
:103D1000182F81E00E94425CCE0101960E945269F8
:103D2000FBCF1092B8081092B70885E798E00E9480
:103D30004A19823009F0E9C028EC30E040E050E058
:103D400068EE73E084E00E94D94600E010E020E0D5
:103D500030E040E250E260E070E080E099E00E94F4
:103D6000E82880E099E00E94AE296CE271E080E0F2
:103D700090E00E946A3080E099E00E94322880E062
:103D800099E00E94AE290EED18E022ED38E04AEBF2
:103D900058E06BEF79E0CE0101960E94453887EC40
:103DA00093E09A8389838AEB98E060969FAF8EAF09
:103DB000609782ED98E062969FAF8EAF62976496AF
:103DC0001FAF0EAF649766961FAE1EAE66978AE26F
:103DD000888780E290E09C838B8340E060E070E025
:103DE0008AEB98E00E94244E41E062E070E0629627
:103DF0008EAD9FAD62970E94244E41E063E070E07B
:103E000064968EAD9FAD64970E94244E80E00E9420
:103E1000425C88ED97E00E945A5C8B859C850E94ED
:103E20008B5DC12CD12C760194EF492E55245394EF
:103E3000612C712C02E010E023E0A22EB12C88242A
:103E40008394912C8FEFC81AD80AE80AF80AC701A0
:103E5000B601A30192010E94AB74672B682B692BFA
:103E600009F047C066968EAD9FAD6697813091058B
:103E7000A9F01CF4892B39F03CC082309105E1F0A7
:103E8000039729F136C0CE0101960E949F378823FF
:103E900081F166969FAE8EAE66972BC0CE010196DD
:103EA0000E945236009719F00297F9F022C06696E8
:103EB0001FAF0EAF66971DC0CE0101960E94BA35A6
:103EC0008823B9F06696BFAEAEAE669712C0CE013B
:103ED00001960E948334009741F08230910549F4A5
:103EE00066969FAF8EAF669704C066961FAE1EAEF5
:103EF000669785E798E00E94765A892B09F0A2CF51
:103F0000CE0101960E94515526C4833009F0D2C0DB
:103F100028EC30E040E050E06CED75E084E00E9479
:103F2000D94600E010E020E030E040E050E260E2FE
:103F300070E080E099E00E94E82880E099E00E942B
:103F4000AE296CE271E080E090E00E946A3080E08F
:103F500099E00E94322880E099E00E94AE2982E335
:103F60008B8384E690E09D838C8382E390E09F8343
:103F70008E838BEF99E09987888784E08A878FEC1E
:103F800093E09A8389838AEB98E09C878B87E1E2B0
:103F9000F4E0E491ED87E2E2F4E0E491EE87E9E118
:103FA000F4E0E491EF87EAE1F4E0E491E88B8AEE53
:103FB00098E00E94B12A88ED97E00E945A5C81E067
:103FC0000E94425C80E099E00E94B12A62E08D8507
:103FD0000E94182F62E08E850E94182F62E08F8564
:103FE0000E94182F62E088890E94182FCE01019646
:103FF0000E94C551C12CD12C760184EF482E552446
:104000005394612C712CEFEFCE1ADE0AEE0AFE0AF1
:10401000C701B601A30192010E94AB74672B682B04
:10402000692BE1F58D850E94BF2E892B29F08E85A5
:104030000E94BF2E892B91F480E090E00E9499416C
:104040008C0181E090E00E9499415C01011511050D
:1040500009F04BC3A114B10409F047C38F850E9436
:10406000BF2E892B29F088890E94BF2E892B91F4BD
:1040700080E090E00E9499418C0181E090E00E94F4
:1040800099415C010115110509F04AC3A114B1045D
:1040900009F046C3CE0101960E94FE4E85E798E0E6
:1040A0000E94765A892B09F0AECFCE0101960E946C
:1040B000385551C3813009F04EC328EC30E040E060
:1040C00050E064EF71E084E00E94D94600E010E027
:1040D00020E030E040E250E0BA0180E099E00E9448
:1040E000E82880E099E00E94AE296CE271E080E06F
:1040F00090E00E946A3080E099E00E94322880E0DF
:1041000099E00E94AE298FEB93E09A838983CE01D8
:1041100003960E949458CE010D960E949458CE01A9
:1041200047960E9494588EED98E09AA389A38AEB53
:1041300098E09CA38BA382ED98E09EA38DA3E1E27F
:10414000F4E0E491F0E0F8A7EFA3EAE1F4E0E49111
:10415000F0E0FAA7E9A78AE590E09CA78BA79EA7C5
:104160008DA798AB8FA780E690E0A0E0B0E08BAB86
:104170009CABADABBEAB8EE094E09AAB89AB88ED67
:1041800097E098AF8FAB86E30E941B30BC01990F7C
:10419000880B990B611571058105910511F00E943D
:1041A0004C7380E099E00E94B12A88ED97E00E946C
:1041B0005A5C82E195E00E949A618AEE98E00E9442
:1041C000B12A81E00E94425C20E030E045E053E407
:1041D00060916609709167098091680990916909F9
:1041E0000E94BB7320E030E048EC52E40E94BB75B3
:1041F00060936609709367098093680990936909D1
:10420000E0916209F091630988E78783E09164098E
:10421000F0916509878380E197E2A0E0B0E08B83AD
:104220009C83AD83BE8301E010E01C870B870E9456
:10423000A430CB80DC80ED80FE80DC01CB018C0DD6
:104240009D1DAE1DBF1D8F839887A987BA8780EDFE
:1042500097E0A0E0B0E08D879E87AF87B88B1E8B7C
:104260000D8B0E94A430CD84DE84EF84F888DC01BD
:10427000CB018C0D9D1DAE1DBF1D898B9A8BAB8B09
:10428000BC8B88EB9BE0A0E0B0E08F8B988FA98F70
:10429000BA8F18A30F8F0E94A4300F89188D298D13
:1042A0003A8DDC01CB01800F911FA21FB31F8B8FB2
:1042B0009C8FAD8FBE8F60E08FA10E94182F60E0B1
:1042C00089A50E94182F40E063E070E089A19AA1BF
:1042D0000E94244E41E060E070E08BA19CA10E940E
:1042E000244E41E062E070E08DA19EA10E94244E28
:1042F0008AEE98E00E9432288AEE98E00E94AE2969
:1043000060E170E08BEF99E00E94C82743E050E045
:1043100060E170E08BEF99E00E942B276AE570E086
:104320008BA19CA10E94A03F6AE570E089A19AA19F
:104330000E94A03F6EE670E08DA19EA10E94A03F6A
:10434000C12CD12C7601A4EF8A2E99249394A12C10
:10435000B12CB3E04B2E512C612C712CEFEFCE1A07
:10436000DE0AEE0AFE0AC701B601A50194010E9409
:10437000AB74672B682B692B09F0ABC140E060E19F
:1043800070E08BEF99E00E94F02584FFA2C180E0ED
:1043900090E021E030E0082E01C0220F0A94EAF7F5
:1043A00024FF08C0880F991FFC01E550F64F2184B7
:1043B000328406C001968830910559F7212C312CA2
:1043C000F1018181882309F4E0C0CE010D960E949D
:1043D0004C58F10182818D3228F464E670E08CE95A
:1043E0009FEF06C0883338F06CE97FEF84E690E0F9
:1043F0000E94C34098C060E070E080E090E00E94BE
:10440000C340CE0103960E946D58882309F48BC0E7
:10441000CE0103960E944C580E944873A30192015A
:104420000E947974613071058105910561F06230F7
:1044300071058105910579F0672B682B692B39F49B
:1044400087E394E002C08CE394E00E94E85E0AEB0C
:1044500018E0980103C086E494E0F7CF60E0C9015A
:10446000C355DF4F2883CD5AD040C255DF4F388324
:10447000CE5AD0400E94C63EC355DF4F2881CD5A48
:10448000D040C255DF4F3881CE5AD040245F3F4FD5
:10449000F8E02A3E3F0711F70E944873A3019201FA
:1044A0000E9479746130710581059105B9F062301F
:1044B00071058105910501F1672B682B692B49F581
:1044C0004FE060E370E380E090E00E94FF5E22E056
:1044D00040E360E380E00E94625F1BC04EE160E069
:1044E00070E0CB010E94F3604EE160E370E380E096
:1044F00090E00E94F3600DC060E38AEE98E00E94B5
:104500003B2881E00E9428616FEF8AEE98E00E94CC
:104510003B2861E0C8010E94C63E045F1F4F88E04F
:104520000A3E1807B1F78DA19EA10E94CC3EF10171
:1045300023812D3278F4823891050CF052C062E369
:1045400070E0621B71097595679575956795680FA1
:10455000791F16C0283308F444C08B3591050CF43C
:1045600040C030E0A9014253510957FF02C04D5FDE
:104570005F4F5595479555954795BC01641B750B45
:104580008DA19EA10E94A03F2CC0CE010D960E943D
:104590006D58882301F180E090E00E949941892BB9
:1045A00001F56EE670E08DA19EA10E94A03F41E062
:1045B00050E060E170E08BEF99E00E941841833396
:1045C00028F06CE97FEF84E690E009C064E670E0D3
:1045D0008CE99FEF04C060E070E080E090E00E9412
:1045E000C340CE0147960E946D58882309F471C0DC
:1045F000AE014B555F4F60E5CE01C1960E94B14CB4
:10460000CB55DF4F8881C55AD0408B3008F461C04C
:10461000CE0147960E944C58CE0103960E944C58FA
:1046200060E070E080E090E00E94C3400E94487328
:10463000A30192010E947974613071058105910591
:1046400061F0623071058105910551F0672B682B8F
:10465000692B51F487E394E005C08CE394E002C039
:1046600086E494E00E94E85E89A19AA10E94CC3E73
:104670008C0160EA70E089A19AA10E94A03F6CE2DF
:1046800071E080E090E00E946A3045E0242E312CF9
:1046900066E970E089A19AA10E94A03F64E670E0FB
:1046A00080E090E00E946A3060EA70E089A19AA1FF
:1046B0000E94A03F64E670E080E090E00E946A30D3
:1046C000F1E02F1A310821F7B80189A19AA10E94BF
:1046D000A03F85E798E00E94765A892B09F03ECEEC
:1046E000CE0101960E947C5536C060EB7FEF80E5DD
:1046F00090E00E94C34068EE73E080E090E00E948A
:104700006A308D850E94BF2E892BA9F38E850E9469
:10471000BF2E892B81F3B501C8010E94C3409ECCF6
:1047200060E570E080EB9FEF0E94C34068EE73E0AD
:1047300080E090E00E946A308F850E94BF2E892B16
:10474000A9F388890E94BF2E892B81F3B501C80186
:104750000E94C3409FCCC255DF4F0FB6F894DEBF16
:104760000FBECDBFDF91CF911F910F91FF90EF90C2
:10477000DF90CF90BF90AF909F908F907F906F9081
:104780005F904F903F902F9008952F923F924F92BD
:104790005F926F927F928F929F92AF92BF92CF92D1
:1047A000DF92EF92FF920F931F93CF93DF93CDB7DA
:1047B000DEB762970FB6F894DEBF0FBECDBF8C0197
:1047C0007B01242EDC0117968D919C911897009700
:1047D00069F0A12CB12C97FD13C103970CF010C107
:1047E000CC24C394D12CB5E09B2ECBC04801CC2463
:1047F000C394D12CA12CB12C66246394712CF7E0C6
:104800003F2EFE0131962F01C6010197930102C090
:10481000220F331F8A95E2F7C9018E219F21892B30
:1048200009F48CC0D40119968D919C911A97892B0B
:1048300009F484C0F80185819681D201E32D1D928F
:10484000EA95E9F7FFEFF9833A8222E12C833DEE06
:104850003F83DC0112964C9112974B83CD8250E03E
:1048600060E070E0475E5F4F6F4F7F4F4C0D511D12
:10487000611D711D41505F4F6F4F7F4F4E83ED9112
:10488000FC910284F385E02D47E0B20109959E0179
:10489000285F3F4FAE01415F5F4FBE016F5E7F4FAC
:1048A000F801858196810E94394D8111A9C029891D
:1048B0002A8BD80112968C91281335C02F85388900
:1048C000C9010197A301082E02C0440F551F0A9485
:1048D000E2F7B70164237523672B29F1880F991F2D
:1048E000F801E80FF91FA185B2859C91888598177A
:1048F000D1F021153105B9F029303105A4F4FE01BC
:104900003896832D01900D928A95E1F7CA01809522
:104910009095E822F922A42AB52A2C153D0519F410
:10492000222009F46DC0F80182812A892813AFCFB3
:104930008F8598898C159D0509F0A9CF3FEFC31A83
:10494000D30A82E0880E911C99E0C916D10409F0BF
:104950005BCF56C09E01285F3F4FAE01415F5F4F66
:10496000BE016F5E7F4FD80115968D919C91169771
:104970000E94394D811144C09989F80182819817AC
:1049800021F0E114F10431F73BC02F853889F9019A
:104990003197C6010E2E02C0880F991F0A94E2F7C4
:1049A000A70148235923452B61F32115310549F30C
:1049B0002930310534F7EE0FFF1FE00FF11FA185FD
:1049C000B2851097F1F2298511962C93A185B285B5
:1049D00028852C932985222351F0A185B285FE01DB
:1049E0003A961296292D01900D922A95E1F79C0195
:1049F00020953095E222F322A82AB92A2110C1CFAE
:104A0000C50162960FB6F894DEBF0FBECDBFDF9131
:104A1000CF911F910F91FF90EF90DF90CF90BF90BB
:104A2000AF909F908F907F906F905F904F903F904E
:104A30002F9008950F931F93CF93DF93EC018CE891
:104A400093E0998388838D819E81009739F0DC0102
:104A5000ED91FC910280F381E02D09958E01005FBC
:104A60001F4F89859A85892B31F087E090E00E945D
:104A700073789A8789872296C017D10791F7DF91BB
:104A8000CF911F910F9108957F928F929F92AF9235
:104A9000BF92CF92DF92EF92FF920F931F93CF932B
:104AA000DF931F92CDB7DEB76C015B01742E8C01D2
:104AB000E12CF12C88248394912CC4010E2C02C08B
:104AC000880F991F0A94E2F78A219B21892B09F408
:104AD00053C0D60115968D919C911697DC01ED91EE
:104AE000FC910680F781E02D41E04E0D60E20995D2
:104AF00081115DC0F60185819681DC01ED91FC910B
:104B00000480F581E02DAE014F5F5F4F61E20995B2
:104B100081114DC04981842F8170871581F070FA11
:104B200040F94983F60185819681DC01ED91FC9184
:104B30000680F781E02D61E20995811138C0772068
:104B400039F1D80119968D919C911A97892B61F4AE
:104B500087E090E00E947378F80192878187DC01FA
:104B600011961C9211971C92898186958695837067
:104B700090E0F60190878783FFEFEF1AFF0A0E5F40
:104B80001F4F88E0E816F10409F097CF80E00FC0CE
:104B9000F80181859285892B39F387E090E00E94A6
:104BA0007378D8011A969C938E931997DDCF0F9046
:104BB000DF91CF911F910F91FF90EF90DF90CF90F9
:104BC000BF90AF909F908F907F900895CF93DF9389
:104BD000EC010E941A25CE01DF91CF910C94087947
:104BE0002F923F924F925F926F927F928F929F92FD
:104BF000AF92BF92CF92DF92EF92FF920F931F93EB
:104C0000CF93DF93CDB7DEB72E970FB6F894DEBF04
:104C10000FBECDBF7C014B01DC0113968D919C91A1
:104C20001497009709F4FAC0019709F0F7C0F7014B
:104C300085819681DC01ED91FC910480F581E02D68
:104C4000AE014F5F5F4F6FE109958111E3C0F986B7
:104C5000E886A12CB12C612C712C41E04A0DE1E0D9
:104C6000F0E00A2C02C0EE0FFF1F0A94E2F7FD8766
:104C7000EC87CF0188219921892B09F4BDC0A88533
:104C8000B9851996ED91FC911A97309709F4B4C043
:104C900099818081981709F4AFC061E0C7014E8700
:104CA0000E94014EF70105811681D801ED91FC911A
:104CB0000284F385E02D4E8560E2C80109956111FB
:104CC000ABC0D801ED91FC910084F185E02DAE01DF
:104CD0004E5F5F4F64E3C801099561119DC08A81F1
:104CE000882309F476C0D801ED91FC910084F18508
:104CF000E02DAE014F5F5F4F6FE1C8010995611173
:104D00008BC08A81811181E08A83FE0131966F0117
:104D1000212C312C21018A8190E0A0E0B0E02816FE
:104D200039064A065B0608F054C0D801ED91FC91A3
:104D30000284F385E02D41E0420D65E3C801099549
:104D4000F6013596FB87EA87611166C0D801ED91BF
:104D5000FC91A6014E5F5F4F0084F185E02D60E479
:104D6000C8010995D801ED91FC91A6014D5F5F4FF7
:104D70000084F185E02D61E4C8010995D801ED9129
:104D8000FC91A6014C5F5F4F0084F185E02D62E449
:104D9000C8010995D801ED91FC910084F185E02DC1
:104DA0004A855B8563E4C8010995D801ED91FC91C2
:104DB000A6014A5F5F4F0084F185E02D64E4C801DD
:104DC0000995BFEF2B1A3B0A4B0A5B0ACA84DB84A6
:104DD000A2CF60E0C7010E94014EE885F985A18558
:104DE000B285FE01319687E001900D928A95E1F738
:104DF0008C859D85682A792AEFEFAE1ABE0A8885D0
:104E0000998502969987888798E0A916B10409F0D8
:104E100024CF02C0612C712CC30104C0B401C701AE
:104E20000E94C5232E960FB6F894DEBF0FBECDBFED
:104E3000DF91CF911F910F91FF90EF90DF90CF9076
:104E4000BF90AF909F908F907F906F905F904F90AA
:104E50003F902F9008957F928F929F92AF92BF9232
:104E6000CF92DF92EF92FF920F931F93CF93DF9336
:104E70001F92CDB7DEB77C015B016A0100E010E054
:104E800088248394912C842F8370782E729490EFD1
:104E90007922C401002E02C0880F991F0A94E2F7FC
:104EA0008A219B21892BC9F1D70115968D919C915F
:104EB0001697DC01ED91FC910680F781E02D41E031
:104EC000400F60E2099581112FC0F701858196811D
:104ED000DC01ED91FC910480F581E02DAE014F5F86
:104EE0005F4F61E2099581111FC04981842F82952E
:104EF000837090E08C159D0581F04F7C4729498394
:104F0000F70185819681DC01ED91FC910680F781A6
:104F1000E02D61E20995811107C00F5F1F4F083036
:104F2000110509F0B6CF80E00F90DF91CF911F916E
:104F30000F91FF90EF90DF90CF90BF90AF909F9038
:104F40008F907F900895EF92FF920F931F93CF93CE
:104F5000DF938C01EB017A01452B69F0A701BE01BB
:104F6000C8010E94184190E0DF91CF911F910F91ED
:104F7000FF90EF90089541E0BE01C8010E94F02526
:104F80008C239D23892BB9F3E9CF40E00C94442571
:104F9000CF92DF92FF920F931F93CF93DF931F92D5
:104FA000CDB7DEB78C0141E00E944425811151C08C
:104FB00064E170E080E090E00E946A30D8011896C9
:104FC0001C921E9217976801B9E0CB0ED11CFF24EA
:104FD000F394F601819191916F01892BA9F1D80188
:104FE00015968D919C911697DC01ED91FC910680B0
:104FF000F781E02D4F2D60E2099581112AC0F8015B
:1050000085819681DC01ED91FC910480F581E02D94
:10501000AE014F5F5F4F61E2099581111AC049816E
:10502000842F86958695837079F0437F4983F801B4
:1050300085819681DC01ED91FC910680F781E02D60
:1050400061E20995811105C0F394B9E0FB12C1CF6B
:1050500080E00F90DF91CF911F910F91FF90DF9033
:10506000CF900895FC014481558160E070E0818516
:1050700092850C94A579FF920F931F93CF93DF93A2
:10508000EC01FF24F394F60E2885F21679F10985D8
:105090001A852150B9F06F3F59F430E040E050E0FC
:1050A0006FEF7FEF80E090E00E947974B9010CC04F
:1050B0008F2D90E0982F88270197622F70E00E9433
:1050C000127702C060E070E0F8014C815D81CF0191
:1050D000801B910B8417950740F44081469FC001C7
:1050E000479F900D11249193F0CFF886DF91CF91D7
:1050F0001F910F91FF9008958F929F92AF92BF9250
:10510000CF92DF92EF92FF920F931F93CF93DF9393
:10511000FC01828193816817790708F04CC04A012D
:10512000AA24BB24B82DC32ED42EE52EFF24AC2DEB
:10513000922F8085882361F0889E40011124B92D2B
:10514000C89E60011124AD2D289FE00111249D2FE0
:10515000D684C385E184F284DC1208C09B01220F4F
:10516000331F620F731F6E0D7F1D16C0660F771FF2
:10517000660F771F6E0D7F1D052F112722273327FE
:10518000EB01CD0DD11D882329F0089F900111243A
:10519000232F01C0202F28838385EB01C80FD11D49
:1051A000B8838485EB01C80FD11DA8838585FB01D9
:1051B000E80FF11D9083DF91CF911F910F91FF9028
:1051C000EF90DF90CF90BF90AF909F908F90089519
:1051D0008F929F92AF92BF92CF92DF92EF92FF9207
:1051E0000F931F93CF93DF936C014A015B01E90199
:1051F000FC01E280F3802E153F05A0F40115110596
:1052000031F0020F131F0E151F0508F47801CE159B
:10521000DF0540F4A5019401BE01C6010E947C286F
:105220002196F5CFDF91CF911F910F91FF90EF90D5
:10523000DF90CF90BF90AF909F908F9008950F9385
:105240001F93DC0112968D919C9113976817790733
:1052500008F043C018968C911897882361F0489FF6
:10526000A0011124452F289F90011124232F089F6E
:1052700080011124012F1E968C911E971B969C91E4
:105280001B971996ED91FC911A97891308C0CB01D1
:10529000880F991F680F791F6E0F7F1F0AC0660F56
:1052A000771F660F771F6E0F7F1FFB01E80FF11D41
:1052B00010821B968C911B97FB01E80FF11D408318
:1052C0001C968C911C97FB01E80FF11D20831D9605
:1052D0008C91FB01E80FF11D00831F910F91089540
:1052E0000F931F93CF93DF938C01EB01DC01119699
:1052F0008C911197882349F016968D919C91179760
:1053000097FD03C060E00E94182FF801D783C68381
:105310008181882341F061E08C2F0E94182F60E08A
:105320008C2F0E94E82EFE01EE50FD4FE491F0E03C
:10533000EE0FFF1FEE56FD4F85919491D8015496C4
:105340009C938E935397FE01E455FD4FE49155963F
:10535000EC93DF91CF911F910F910895CF92DF923F
:10536000EF92FF920F931F93CF93DF93CDB7DEB7EA
:1053700029970FB6F894DEBF0FBECDBF8C01DC01BC
:1053800019968D919C911A97892B09F4A3C00E94BC
:105390004530F801C784D088E188F288DC01CB0170
:1053A0008C199D09AE09BF098C329140A105B10548
:1053B00070F3F894D80114968D919C9115979A8367
:1053C00089831996ED91FC911A977F01BFEFEB1A33
:1053D000FB0A80818987F80190810388F489E02D98
:1053E000D80155968C91992309F430C09081982B5F
:1053F00098879081809589238F838F818C8388E023
:105400008B8358856F8149853B812C8189819A8165
:10541000D701508347FD252F3A952083262F39F059
:10542000441F00C000006083000000C0F2CF38E0DD
:105430004D9160830000019761F7D8015496FC9369
:10544000EE93539749873B832C833AC09081982BE6
:1054500098879081809589238F838F818E8388E0C0
:105460008D8358856F8149853D812E8189819A81FF
:10547000D701508347FD252F00C000C0208300C006
:1054800000C000C000C000C060830000262F3A9515
:1054900041F0441F000000C000C000C000C000C0B8
:1054A000E8CF38E04D9100C0608300C0019709F754
:1054B000D8015496FC93EE93539749873D832E83EE
:1054C0009A83898378940E944530F8016787708BAE
:1054D000818B928B29960FB6F894DEBF0FBECDBF9D
:1054E000DF91CF911F910F91FF90EF90DF90CF90C0
:1054F0000895EF92FF920F931F93CF93DF93EC01E8
:105500007B0189859A850E9408799E858B859817ED
:1055100019F084E090E002C083E090E08E9D80016D
:105520008F9D100D9E9D100D11241D830C83C801AD
:105530000E9473789A878987009741F0A80160E0FC
:1055400070E00E94A579FB82EA8204C01D821C8261
:105550001B821A82DF91CF911F910F91FF90EF90E4
:105560000895CF93DF93EC018E819F8197FD07C053
:1055700061E00E94182F60E08E810E94E82E81E099
:105580008983DF91CF9108950F931F93CF93DF937A
:105590008C01D62FC8E06D2F6078C8010E94D63AE2
:1055A000DD0FC150C1F7C801DF91CF911F910F915D
:1055B0000C94643ACF92DF92EF92FF92CF93DF93F5
:1055C000EC01EA89FB8990818F858095892380830E
:1055D000EE89FF8990818F85892B8083E889F989FD
:1055E00090818E85809589238083EC89FD899081C7
:1055F0008E85892B80838D8D9E8D009711F00E9462
:105600003A30EE89FF8990818F8580958923808348
:105610008F8D882331F0EA89FB8990818F85892BD2
:10562000808388A1811107C08D8D9E8D0097F9F030
:105630000E943A301CC00E94A4306B017C01EA8DAC
:10564000FB8D90818F85892379F70E94A430DC013E
:10565000CB018C199D09AE09BF0949A15AA16BA1C3
:105660007CA184179507A607B70748F3DDCFEC891F
:10567000FD8990818E858095892380838F8D8823F5
:1056800031F0E889F98990818E85892B80838D8D11
:105690009E8D009741F0DF91CF91FF90EF90DF90CA
:1056A000CF900C943A30DF91CF91FF90EF90DF9044
:1056B000CF900895CF92DF92EF92FF92CF93DF9336
:1056C000EC01EC89FD8990818E858095892380830A
:1056D0008F8D882331F0E889F98990818E85892B17
:1056E0008083EA89FB8990818F85809589238083D7
:1056F000EE89FF8990818F85892B80838D8D9E8D8A
:10570000009711F00E943A30EC89FD8990818E85D6
:105710008095892380838F8D882331F0E889F989EA
:1057200090818E85892B80838D8D9E8D009711F0C1
:105730000E943A30EE89FF8990818F858095892378
:1057400080838F8D882331F0EA89FB8990818F8552
:10575000892B808388A181110CC08D8D9E8D00972F
:1057600021F1DF91CF91FF90EF90DF90CF900C94DB
:105770003A300E94A4306B017C01EA8DFB8D908150
:105780008F85892351F70E94A430DC01CB018C194D
:105790009D09AE09BF0949A15AA16BA17CA184173B
:1057A0009507A607B70748F3D8CFDF91CF91FF90B1
:1057B000EF90DF90CF90089590E0FC013197E231B7
:1057C000F10508F04CC0E156FF4F0C943A778091F8
:1057D00080008F7703C0809180008F7D8093800050
:1057E000089580918000877FF9CF84B58F7702C0BC
:1057F00084B58F7D84BD08958091B0008F7703C0FC
:105800008091B0008F7D8093B000089580919000CA
:105810008F7707C0809190008F7D03C080919000AA
:10582000877F8093900008958091A0008F7707C0B4
:105830008091A0008F7D03C08091A000877F80931E
:10584000A0000895809120018F7707C080912001EA
:105850008F7D03C080912001877F80932001089570
:1058600008950E94A079EF92FF921F93CF93DF9348
:105870001F92CDB7DEB7F82E162F9091BD09692F74
:1058800066958091BB099091BC0979830E94543B35
:105890008091BB099091BC09DC01ED91FC910190D4
:1058A000F081E02D6F2D09958091BB099091BC0985
:1058B0000E945A2B8091BD09682F669541E0809126
:1058C000BB099091BC090E94E861E12E7981F72E15
:1058D0008091BB099091BC09DC01ED91FC910084A1
:1058E000F185E02D0995892B79F08091BB09909184
:1058F000BC09DC01ED91FC910284F385E02D099552
:10590000F70181937F01E4CF81E090E00F90DF9178
:10591000CF911F91FF90EF9008951F93CF93DF9346
:105920001F92CDB7DEB7182FBE016F5F7F4F80E6A5
:105930000E94332C009771F069816C7F612B698321
:1059400080E60E94B96131E020E0892B09F430E063
:10595000832F922F0F90DF91CF911F9108951F9366
:10596000CF93DF931F92CDB7DEB7182FAE014F5FF5
:105970005F4F60E283EB99E00E94F43C009781F076
:1059800049814F70412B498360E283EB99E00E948B
:10599000BA3C31E020E0892B09F430E0832F922FCC
:1059A0000F90DF91CF911F9108950F931F93CF9385
:1059B000DF9300D0CDB7DEB7009721F00197A1F5B6
:1059C00027E001C026E0142F062F8091000A909155
:1059D000010ADC01ED91FC910480F581E02DAE011E
:1059E0004F5F5F4F622F2A8309952A8181111FC063
:1059F0008981982F9170901304C0829581708117CE
:105A0000A9F0498100FB40F910FB44F949838091DA
:105A1000000A9091010ADC01ED91FC910680F7816A
:105A2000E02D622F099503C081EE01C080E00F9048
:105A30000F90DF91CF911F910F910895CF92DF9238
:105A4000EF92FF920F931F93CF93DF9300D01F929B
:105A5000CDB7DEB76C018B017A018091000A90917D
:105A6000010ADC01ED91FC910480F581E02DAE018D
:105A70004F5F5F4F68E02B8309952B81C114D104E0
:105A8000D1F0CA94CD2809F064C0B0E12B9F9001F9
:105A9000112449814F70422B49838091000A9091D3
:105AA000010ADC01ED91FC910680F781E02D68E0B0
:105AB000099577E012C02F704981407F422B4983BE
:105AC0008091000A9091010ADC01ED91FC91068021
:105AD000F781E02D68E0099576E08091000A9091C9
